:10000000082A00201113000045130000BD11000054
:10001000BD110000BD110000BD110000BD110000A8
:10002000BD110000BD110000BD1100000510000051
:10003000BD110000BD110000A50F0000BD110000A2
:10004000D512000063490100D5120000D51200004E
:10005000D5120000D5120000D5120000D512000004
:10006000D5120000D5120000D5120000D5120000F4
:10007000D5120000D5120000D5120000D5120000E4
:10008000D5120000D5120000D5120000D5120000D4
:10009000D5120000D5120000D5120000D5120000C4
:1000A000D5120000D512000000000000F12200006F
:1000B00000000000311100000000000031110000BC
:1000C00000000000311100000000000031110000AC
:1000D000000000003111000000000000D12A0000E3
:1000E000000000003111000000000000311100008C
:1000F000000000003111000000000000311100007C
:10010000000000002949010000000000311100003A
:10011000D03B0020AD2D0000000000003111000098
:10012000000000003111000000000000311100004B
:1001300000000000F92E0000000000003111000056
:10014000000000003111000000000000311100002B
:10015000000000003111000000000000311100001B
:1001600000000000311100000000000059490100AA
:10017000000000003111000002B471464908490036
:10018000095649008E4402BC7047C04602B471460D
:1001900049084900095C49008E4402BC7047C046CA
:1001A00003B47146490840004900095E49008E4485
:1001B00003BC704703B47146490840004900095A1E
:1001C00049008E4403BC7047002243088B4274D31D
:1001D00003098B425FD3030A8B4244D3030B8B4248
:1001E00028D3030C8B420DD3FF22090212BA030C51
:1001F0008B4202D31212090265D0030B8B4219D332
:1002000000E0090AC30B8B4201D3CB03C01A524151
:10021000830B8B4201D38B03C01A5241430B8B4299
:1002200001D34B03C01A5241030B8B4201D30B0382
:10023000C01A5241C30A8B4201D3CB02C01A5241A9
:10024000830A8B4201D38B02C01A5241430A8B426C
:1002500001D34B02C01A5241030A8B4201D30B0255
:10026000C01A5241CDD2C3098B4201D3CB01C01A6F
:10027000524183098B4201D38B01C01A5241430979
:100280008B4201D34B01C01A524103098B4201D367
:100290000B01C01A5241C3088B4201D3CB00C01AD4
:1002A000524183088B4201D38B00C01A524143084C
:1002B0008B4201D34B00C01A5241411A00D2014671
:1002C000524110467047FFE701B5002000F0F0F8FA
:1002D00002BDC0460029F7D076E7704703460B43BE
:1002E0007FD4002243088B4274D303098B425FD32F
:1002F000030A8B4244D3030B8B4228D3030C8B425B
:100300000DD3FF22090212BA030C8B4202D3121240
:10031000090265D0030B8B4219D300E0090AC30B15
:100320008B4201D3CB03C01A5241830B8B4201D3C2
:100330008B03C01A5241430B8B4201D34B03C01AAB
:100340005241030B8B4201D30B03C01A5241C30A23
:100350008B4201D3CB02C01A5241830A8B4201D394
:100360008B02C01A5241430A8B4201D34B02C01A7E
:100370005241030A8B4201D30B02C01A5241CDD223
:10038000C3098B4201D3CB01C01A524183098B426E
:1003900001D38B01C01A524143098B4201D34B0157
:1003A000C01A524103098B4201D30B01C01A5241BA
:1003B000C3088B4201D3CB00C01A524183088B4241
:1003C00001D38B00C01A524143088B4201D34B002A
:1003D000C01A5241411A00D201465241104670479C
:1003E0005DE0CA0F00D04942031000D340425340A1
:1003F00000229C4603098B422DD3030A8B4212D361
:10040000FC22890112BA030A8B420CD38901921192
:100410008B4208D3890192118B4204D389013AD0CF
:10042000921100E08909C3098B4201D3CB01C01AA4
:10043000524183098B4201D38B01C01A52414309B7
:100440008B4201D34B01C01A524103098B4201D3A5
:100450000B01C01A5241C3088B4201D3CB00C01A12
:10046000524183088B4201D38B00C01A5241D9D22A
:1004700043088B4201D34B00C01A5241411A00D2AB
:100480000146634652415B10104601D34042002BA7
:1004900000D54942704763465B1000D3404201B526
:1004A000002000F005F802BD0029F8D016E77047DB
:1004B0007047C0469140031C90409C46203A9340B0
:1004C000194352426346D340194370471C2101230C
:1004D0001B04984201D3000C10391B0A984201D327
:1004E000000A08391B09984201D30009043902A205
:1004F000105C40187047C04604030202010101016C
:100500000000000000000000002B15D1002A13D1CC
:10051000002906DB01DC002806D00020C04341088A
:1005200002E080210906002007B4024801A140181A
:10053000029003BD7DFFFFFF03B4684601B502983A
:1005400000F036F9019B9E4602B00CBC7047C046D5
:10055000002B11D1002A0FD1002900D1002802D090
:100560000021C943081C07B4024802A140180290A8
:1005700003BDC0463DFFFFFF03B4684601B50298C6
:1005800000F054F8019B9E4602B00CBC7047C04678
:10059000F0B5CE46474615042D0C2E0080B5070455
:1005A000140C3F0C9946030C7E435D436743634341
:1005B0007F19340CE4199C46A54203D980235B02C1
:1005C0009846C4444B4643435143250C3604654486
:1005D000360C2404A4195B19591820000CBC904651
:1005E0009946F0BD10B50023002802D000F008F9AC
:1005F000431C180010BDC046094A43081340C01AE6
:100600000300084A8008104013401B181809C0183E
:10061000054B03401802C0180304C018000E7047B1
:1006200055555555333333330F0F0F0FF0B54F4634
:100630004646D646C0B5040082B00D0091469846A5
:100640008B422FD82CD04146484600F0CDF82900E7
:100650000600200000F0C8F8331A9C46203B9A465A
:1006600000D576E04B46524693401F004B4662460B
:1006700093401E00AF4228D825D05346A41BBD414D
:10068000002B00DA7BE0002200230092019301237B
:10069000524693400193012362469340009318E031
:1006A0008242D0D900220023009201930A9B002BA2
:1006B00001D01C605D600098019902B01CBC90469E
:1006C0009946A246F0BDA342D7D90022002300924A
:1006D00001936346002BE9D0FB0798464146720818
:1006E0000A437B0866460EE0AB4201D1A2420CD819
:1006F000A41A9D41012024196D410021013E2418B6
:100700004D41002E06D0AB42EED9013E24196D4179
:10071000002EF8D100980199534600196941002B29
:1007200023DB2B005246D3402A006446E2401C00E3
:1007300053461500002B2DDB26005746BE403300E4
:1007400026006746BE403200801A99410090019110
:10075000ACE7624620239B1A4A46DA406146130002
:1007600042468A4017001F4380E7624620239B1AB7
:100770002A0066469A402300F3401343D4E76246BA
:10078000202300219B1A0022009101920122DA40CD
:10079000019280E72023624626009B1ADE402F004C
:1007A000B0466646B74046463B003343C8E7C046BE
:1007B000F0B583B016001F000090019100F040F8E2
:1007C00004000D0002000B0030003900FFF7E0FECE
:1007D000009A019B121A8B41089920000A604B6015
:1007E000290003B0F0BDC04610B5002903D1FFF7C2
:1007F0006DFE203002E0081CFFF768FE10BDC04609
:10080000414208401C2101231B04984201D3000CE3
:1008100010391B0A984201D3000A08391B09984273
:1008200001D30009043902A2105C401A7047C04687
:100830001B1C1D1D1E1E1E1E1F1F1F1F1F1F1F1FD7
:10084000F0B54E465746DE464546E0B50F0000215E
:1008500083B006008946002F06DA39000027464299
:100860008F41012149428946002B07DA4946C94395
:10087000100089461900002342428B4134003D009C
:1008800092469846BB4269D866D041465046FFF72B
:10089000ABFF834639003000FFF7A6FF5B461B1A0B
:1008A0009C46203B9B4600D575E05146584681400A
:1008B0000B005146604681400A00BB4261D85ED0C1
:1008C00034003D005946A41A9D41002900DA7AE01F
:1008D0000021002001260090019159468E4001968A
:1008E000614601268E4061460096002950D0D90706
:1008F00056085F080E4363460EE0AF4201D1A642A0
:100900000CD8A41BBD41012124196D410022013BDB
:1009100064185541002B06D0AF42EED9013B241993
:100920006D41002BF8D1009801995B46001969418F
:10093000002B3DDB2E00DE4063462C00DC405B4696
:10094000002B4BDB34005D46AC4023006446A640E0
:100950003200801A994103E0B24296D9002000216A
:100960004B46002B04D003000C0000215842A1414B
:1009700003B03CBC90469946A246AB46F0BDB1429E
:100980009ED9002100200090019161460029AED13E
:1009900000980199E4E72023624651469B1AD9400A
:1009A0004046009161468840030000990B4380E770
:1009B000624620239B1A2A009A40260013006246B2
:1009C000D6401E43B8E7614620260127761A00204C
:1009D0000021F74000900191019781E767462023AD
:1009E00062463500BC409B1ADD4023002B43ADE737
:1009F00003000A781A70002A00D1704701330131D0
:100A0000F7E7020003001978981A002900D170470F
:100A10000133F8E703780A78934202D1002B02D120
:100A20001A00981A704701300131F3E7002330B5FE
:100A30009A4208D0013AC55CCC5C9A4202D001339C
:100A4000A542F8D02B1B180030BD70B50600032559
:100A50004E4003000C002E420AD00024A24217D1BF
:100A600070BD002AFCD02178013A1970013401339D
:100A700019002940F5D1551A032D05D89108890090
:100A8000521A5B186118E8E765585D500431F2E7C7
:100A90000D5D1D550134E1E770B503000326CDB2AD
:100AA0001C0033420ED1C9B20E0231430E04314351
:100AB0001600032E0CD893089B00E318A21893424B
:100AC00009D170BD002AFCD01D70013A0133E7E75F
:100AD00002C3043EEDE71D700133F0E710B51400CA
:100AE000114800F051FE200015F0C8F901B20F487E
:100AF00000F04AFEA388022B10D9200015F0BEF9A1
:100B000001B20B4800F040FEA388032B07D9200058
:100B100015F0ACF90100074800F036FE10BD06489C
:100B200000F032FEFAE7C046257701003B7701006E
:100B30004D7701005E7701007177010030B501004B
:100B400085B0344800290AD1334800F01DFE3349EE
:100B5000334803F04DFD041E05D00100314800F07C
:100B600013FE05B030BD304800F00EFE2F4B2100C3
:100B70000293022300940193220023002C4803F0E7
:100B80008DFC011E1BD02B4800F0FEFD00242A4BDB
:100B90002A481C7000F0F8FD294B019400932200B4
:100BA0002300200002210DF051F8041E0BD001009B
:100BB000244800F0E9FD244800F0E6FDD1E7234891
:100BC00000F0E2FDE2E70225214800F0DDFD01949E
:100BD0002300200000952A0029000DF09BF8041E38
:100BE00002D001001B48E4E71B4800F0CDFD1B4B81
:100BF00029000093019423002A0020000DF08AF8B8
:100C0000011E1748D5D1174800F0BEFD164800F068
:100C1000BBFDD0E745740100687401005476010003
:100C2000E077010082740100A37401008E76010058
:100C3000CD770100B874010084000020EE7401003B
:100C40003574010003750100F2750100D6740100CE
:100C5000217501002F7501005E7501000310000071
:100C600083750100B1750100D575010010B5012132
:100C70000400083016F0C2F9C30703D4210002486B
:100C800015F0A3FA10BDC0466813002010B5024845
:100C9000FFF7ECFF10BDC0460000002010B5024871
:100CA000FFF7E4FF10BDC0460C000020B02270B575
:100CB0008AB002AC120304AB0D00060008920021BA
:100CC0000822200007930993FFF7E6FE134B290043
:100CD000A380FF2307A8E37107F0F4FE310007A803
:100CE00015F07EF80E4D07A8297815F050F82B78EE
:100CF0000C4801332B70002307AA009321005430C5
:100D000007F008FF002802D0074800F03DFD310041
:100D1000064800F039FD0AB070BDC04600C0FFFFB4
:100D20008400002040360020C8760100FE760100D5
:100D300010B5054C01212200044800F025FD0449AE
:100D40002000FFF7B3FF10BDCC0C000015760100AA
:100D50000982000010B5074800F016FD0121064C7D
:100D600049422200054800F00FFD05492000FFF729
:100D70009DFF10BD3B76010034F3FFFF15760100A7
:100D80000982000070B5274800F0FEFC264815F0E7
:100D9000BFF8041E03D1254800F0F6FC70BD244DB9
:100DA000022128004942083016F033F9214B112264
:100DB0006B60636800211D6820003223A8471E492C
:100DC0001E4B01224B6080239B028B6063682000D6
:100DD000DB689847636811221B690021200098474F
:100DE000174D022128004942083016F012F9154B20
:100DF0001A226B60636800211D6820003223A84717
:100E00001149124B01224B608023DB048B60636825
:100E10002000DB68984763681A221B6900212000C4
:100E20009847BBE764760100807601008776010071
:100E300000000020310D00003C0000208D0C00005F
:100E40000C000020550D0000480000209D0C000003
:100E500010B5074800F098FCFFF794FF054803F031
:100E6000C7F8011E02D0044800F08EFC10BDC04639
:100E7000997701003D0B0000AF77010030B5EFF32B
:100E8000108072B61D490B68DBB2012B0FD11C4BD1
:100E90001B681B070BD11B4BE0251A68F0231400BD
:100EA0001C402A421FD1184A12681A421ED00B68F1
:100EB000DBB2012B12D1124A126812070ED1F021B7
:100EC000104A12680A40402A08D10F4A12680A42A2
:100ED00004D18021C122C905D2008B50002800D145
:100EE00062B6002030BD302CDDD0E0E7074B084A69
:100EF0001A608022074B12021A60D8E7E00F00F058
:100F0000E40F00F0E80F00F0EC0F00F004050040E3
:100F1000DFFF07C0186C0040084881684A897F2AB3
:100F20000AD8C069884207D000B515F073FB01BC30
:100F300086460349034A0A6070470000601100209A
:100F400004ED00E000000010F0B5C02400220326EC
:100F5000FF25A40010002F003040C00087409308F8
:100F600004499B005B1819590132B94319511A2AD7
:100F7000F0D1F0BD00E100E0074A08499368096834
:100F80009865D965802306495B05486803434B6033
:100F900062B69368D86D70476011002090DF010041
:100FA00000ED00E013498A6813481044EFF3098C00
:100FB000F0C043464C4655465E466746F8C00F4F64
:100FC0000F4E72B6CA698A603E60906D00239365C9
:100FD000002800D162B6084C10191030F8C89846A5
:100FE000A146AA46B346BC462438F0C88CF309880B
:100FF00070470000601100202800000004ED00E0B0
:101000000000000809487146014202D0EFF3098050
:1010100001D1EFF30880816902390978022900D0F3
:101020007AE700B500F004F900BD000004000000FC
:101030000E4B10B55A680400D205D20D032A0ED10A
:101040000B4800F0A1FB15F0B7FAA26901000948AE
:1010500000F09AFB2100002000F0F0F810BD0649D6
:101060000F2A00DD0549103A0548F1E700ED00E0E0
:10107000427801005A7801001478010029780100B3
:10108000A478010070470000030605D41F23184010
:101090001E3B8340014A13607047C04600E100E0F8
:1010A000030609D41F2318401E3B8340034AD3671D
:1010B000BFF34F8FBFF36F8F7047C04604E100E06E
:1010C0004309054A9B009B581F2210401E3A82404C
:1010D000100018407047C04600E100E030B5FF2521
:1010E00003242A0043B2C0B20440E400A2408901B4
:1010F0002940D243A140002B0ADBC0240A489B08A8
:101100009B001B18A400185902401143195130BD0F
:101110000F230340083B05489B089B001B18D86918
:1011200002401143D961F2E700E100E000ED00E088
:1011300010B500F043F810BD10B5EFF3108472B68F
:10114000054B9869002803D000229A6114F008FF2B
:10115000002C00D162B610BD60110020F8B5170058
:101160001E000C000A9B09990422050015F010FDD1
:101170003900072201200023203961189143094AD0
:10118000EB6482432B658A61069A0E604A60079A77
:101190008A60089ACA6080225204CA61A964AB6559
:1011A000F8BDC046296A0100014910220A60704753
:1011B00010ED00E062B630BF7047C04662B6064828
:1011C0007146014202D0EFF3098001D1EFF30880AC
:1011D00000B5FFF72DFF00BD0400000070B504004E
:1011E0000D00042809D0052816D00C48032C05D082
:1011F00021000B4800F0C8FA02E00A4800F0C4FAE7
:1012000015F0DAF9AA690100074800F0BDFA2900D3
:10121000200000F013F870BD0448EFE7B878010033
:1012200013790100DE78010036790100F8780100B9
:1012300010B501000068FFF7D1FF10BD10B50528FB
:101240000CD015F0DFFB00280BD015F0DBFB0B49B1
:10125000002800D10A490B4800F096FAFFF7AAFFD0
:10126000FCE715F0D9FB0028EFD1074C0748A1682F
:1012700000F08AFAA06800F00BF810BD7279010046
:10128000767901008779010060110020A7790100BB
:1012900070B50500EFF3108472B615F013FC0B4B1C
:1012A0009B68AB420DD10A4B5A68D20504D115F0A8
:1012B000B1F92000FFF760FE8022596852050A4309
:1012C0005A60200015F0E8F870BDC046601100209B
:1012D00000ED00E000B572B60A4A9069002803D01C
:1012E0000021916114F03CFE62B6EFF305800649DF
:1012F000401AC0000549014409C9984708BC9E46E8
:101300000AE600006011002010000000A8000000A4
:1013100072B604480449401880F30988022080F31B
:10132000148806E0082B00208002000030BFFDE793
:10133000704710B5FFF7FCFF14F04EFE14F058FE96
:1013400014F080FE10B5FFF7F1FFFFF7E5FD10BDCB
:1013500030B50C244C43C568C07A2C1988420ADB8E
:1013600021001F20D4170440A4186411A4000919F7
:101370001040196030BD2168F3E707B501ABFFF7F6
:10138000E7FF01238340019A11680B43136007BDF7
:10139000F7B504000026038945686B430093009A63
:1013A00003689F18837A0193019BB34204DC0025F4
:1013B0002389AB421ADCF7BD29000098FEF704FF31
:1013C0000C237343E268D3181A1D5A609A601F28D1
:1013D00006DCE6720323AD0803359D430136E3E7DF
:1013E0001F30400980001F603F18F3E763682268E0
:1013F0006B43D318E2682000111D19609168596091
:1014000091680B60936000212A00FFF7B6FF013559
:10141000CEE70020704700000B6810B501330B6069
:10142000014B1B68984710BDB0360020F0B587B05F
:1014300003930C9B0700029114000193002B01DC25
:101440000123019320230593039B012B01D12F330B
:1014500005930A230093002301261F4D0493049B48
:10146000002B01D1A54226D2691C2000FEF7ACFE5C
:1014700002993030B847012301360493009B691C60
:10148000013B20000093FEF725FF28000C000A21F5
:10149000FEF79AFE009B0500012BE0D12000029987
:1014A0003030B847039B032B03D1019B9C1B002CBE
:1014B0000DDC07B0F0BD019B009A9342DEDB039B7D
:1014C000022BDBD802990598B8470136D6E7029976
:1014D0002020B847013CEAE7FFC99A3B8A680B68BD
:1014E00030B5551C002B02D04C68944201DC8D6055
:1014F00030BD013C9B188D60944202D100221A70CD
:10150000F6E71870F4E70000014B18607047C0461A
:10151000B0360020F0B51C0000238DB00593013BD0
:101520000393002307001E00029107920493079B78
:101530001878002801D10DB0F0BD002E08D1252863
:1015400000D107E10299B847079B01330793EEE703
:1015500064285DD018D839280AD831284CD22D28D3
:1015600039D030283AD0252808D10299B84765E00B
:10157000582800D187E0632800D1E6E002992520B1
:10158000B847079B1878F0E7702872D006D869280A
:101590003ED06C2838D06828F0D1D5E7752857D0D0
:1015A00014D87328EAD12668251D34002078002835
:1015B00000D0C1E0049B032B00D0D4E0039BA41B0C
:1015C0001C1B002C00DDBBE02C0037E078285AD033
:1015D0007A28B9D0D2E703230493B5E7039B002B05
:1015E0000DDA049B002B00D1BBE0049B3038039044
:1015F000002BA9D10233EFE7039B002BF5DB0A2375
:10160000039A53431818F0E7059B013305939BE7B2
:10161000059B012B14DC25680434002D06DA0299A1
:101620002D20B847039B6D42013B03932A00039B87
:101630000093049B02993800FFF7F8FE002683E729
:1016400007342300072293431C001D680834E4E795
:10165000059B012B05DC22680434039B0093049B4B
:10166000E8E707342300072293431C001A68083474
:10167000F3E702993020B84702997820B847082349
:101680000393073B0493059B012B16DC236804346A
:101690000993082306930023082508930B93013D23
:1016A0000998AB00D8400F23184012D10B9B002B98
:1016B00001D1002D2CD130230FE007342300072265
:1016C00093431C001B6808340993E2E70A9B0693C6
:1016D000E5E75723092800D8273BC0180299B847E7
:1016E000089B0B9601330893069B0A93002DEDD1BE
:1016F000049B2E00032B00D026E7039B5D00089B74
:10170000ED1A002D9ADD02992020B847013DF8E737
:10171000069B069A013B0A93039B9342E6DB049BDC
:10172000012B03D130200299B847DFE7049B022B3D
:10173000DCD102992020F7E702990134B84735E758
:1017400002992020B847013C3BE702992068251DFB
:10175000B84739E701235B420596049603930126B7
:10176000F2E6012338E72C000600EDE607B50B0092
:10177000002102000191034801A9FFF7CBFE019867
:101780000EBDC046191400000FB407B504A901C965
:101790000191FFF7EBFF03B008BC04B0184700004D
:1017A0000CB430B5002585B008AB04CB0190029194
:1017B000040001A9074800930395FFF7ABFE0398C7
:1017C000029B984200DA255405B030BC08BC02B038
:1017D0001847C046DD140000704770B50D001C00AE
:1017E0001100AB4204D81A00FFF72FF9200070BD9A
:1017F0000024FBE710B5FFF74FF910BD1B23C2090A
:10180000534340005840C0B270470B6802781B0E2B
:10181000534003700B6842781B0C534043700B68B5
:1018200082781B0A534083700A68C3785340C370A0
:101830004B6802791B0E534003714B6842791B0CB5
:10184000534043714B6882791B0A534083714A6845
:10185000C3795340C3718B68027A1B0E53400372E5
:101860008B68427A1B0C534043728B68827A1B0A46
:10187000534083728A68C37A5340C372CB68027B39
:101880001B0E53400373CB68427B1B0C53404373C6
:10189000CB68827B1B0A53408373CB68C27B534067
:1018A000C37370471FB56A4603781370437953704A
:1018B000837A9370C37BD37003791371437A537126
:1018C000837B9371C378D371037A1372437B537212
:1018D00083789372C379D372037B13734378537302
:1018E00083799373C37AD37310231900FFF775FFBD
:1018F00005B000BDF8B5060008780C00FFF77EFFC4
:1019000005006078FFF77AFFA27863785340E278A9
:1019100053406B405840307060782778FFF76EFF77
:101920000500A078FFF76AFFA378E2787B40534078
:101930006B4058407070607825784540A078FFF77C
:101940005DFF0700E078FFF759FFE3785D406F40E7
:101950007840B0702078FFF751FF637825785D40BC
:10196000A3785D404540E078FFF748FFEDB2454081
:10197000F570F8BDF0B58DB001AC2200244BE0CB82
:10198000E0C2E0CBE0C2E0CBE0C260CB60C2031EAD
:101990003AD00B1E38D00D00020010350B784E786F
:1019A0001B0636043343CE7833438E780431360237
:1019B000334308C28D42F1D1182304229C46FF27ED
:1019C000144E0321C3680A4216D16146CB41190E59
:1019D000755C19003940715C2D060D43190C3940B6
:1019E0001B0A715C3B40F35C090429431B020B4357
:1019F0009108890061584B40016801324B400361F6
:101A000004302C2ADDD1012318000DB0F0BDC046F2
:101A1000B0730100CC790100F0B506008BB0140062
:101A200000285CD0081E5AD00020824257D01023D4
:101A30000A0002A81900FFF7D0FE210002A8FFF754
:101A4000E4FE230025001027A03310350193002366
:101A5000244A02A9595C02A8515C19540133102B85
:101A6000F7D1FFF71FFF02A906A8FFF743FF03A95D
:101A700007A8FFF73FFF04A908A8FFF73BFF05A948
:101A800009A8FFF737FF3B0006AA390002A8FFF7B5
:101A9000A4FE290002A8FFF7B8FE019B1035AB4257
:101AA000D5D100250F4A02ABEB5C02A9D35C6B5485
:101AB0000135102DF7D10800FFF7F4FE210002A830
:101AC000A031FFF7A2FE2B0002AA29003000FFF789
:101AD00084FE02A82A000021FFF78CFE01200BB033
:101AE000F0BDC046CC7901000B7810B587227F2B62
:101AF00000D800220F23CC5C64006240C254002B4B
:101B000003D0CA5C013BD209F5E710BD002110B536
:101B1000884203D05822FFF76DFE0121080010BD56
:101B200070B500240500A04210D021001022FFF75C
:101B300061FE2800102221003030FFF75BFE802379
:101B400000225B022A656B656C640134200070BD65
:101B5000F8B504000F001600051E24D00025A94288
:101B600021D058222900FFF745FE3900A664300035
:101B7000FFF700FF2900250010222000FFF73AFEA2
:101B80001035A26C21002000FFF746FF280021003D
:101B9000FFF7AAFF200029002030FFF7A5FF200053
:101BA000FFF7BEFF01252800F8BDF7B504000E00C1
:101BB0001500071E26D0002A01D1012722E00F1EA2
:101BC00020D0026D436D002711001943B94219D08E
:101BD00001204042C11712184B41606C22656365B9
:101BE000B8422BD010231B1A3030019320189D428D
:101BF0000AD22B0029003200FFF7EFFD636C01379A
:101C00005D1965643800FEBD019B32001900FFF7C5
:101C1000E4FD019B2100ED1AF618230067641031E2
:101C20001A0030321878127842401A7001338B4211
:101C3000F6D1A26C21002000FFF7EEFE2F007219F2
:101C4000D21B102F09D8002FB7D020003B00303016
:101C50003900FFF7C2FD6764AFE70023E15CD05CA9
:101C60004140E1540133102BF8D1A26C2100200037
:101C7000FFF7D2FE103FE2E770B505000C00002828
:101C80001BD0081E19D0486C102817D1080010303E
:101C900000231E00E25CC15C30365140A25D4A4028
:101CA000E2540133102BF4D1A26C21002800FFF77D
:101CB000B3FE2000FFF72AFF012070BD1022121A88
:101CC000303008180021FFF795FD80222000636C5A
:101CD0002030E31830331A70DAE7000037B50D4DC5
:101CE000280015F07FF9041E07D10B4814F010F9F5
:101CF00004000100280015F077F9636804221B68CE
:101D000001A920009847002802DA01F06DF901903E
:101D100001983EBD88000020CC7A010070B5040017
:101D2000074D0A2804D128680D2143685B6898474D
:101D30002868E1B243685B689847200070BDC046E0
:101D40008C00002010B50248FFF7DEFB10BDC04636
:101D50001D1D000010B5044814F0DAF8034B18609C
:101D6000FFF7F0FF002010BDD67A01008C000020A4
:101D700010B50400043015F0CDF8220000233932EC
:101D80006365013A5370137007223A342378934302
:101D9000237010BDF7B5020004008C460023012615
:101DA0003C32092700215F4311600D001D49C9190C
:101DB000019167460199485D0109795C0007000FB0
:101DC000C140314206D03000291D88400100106812
:101DD000014311600135092DEBD11068124935001E
:101DE000814318000D3085400133294302C2032B83
:101DF000D7D1230000223B331A70236D01330AD15F
:101E000001225242D317A264E364201D0422002160
:101E100015F061F8F7BD14F0B1FC226DD31712185C
:101E20004B41F0E7DD7A0100F01F000010B5436878
:101E30000A001C6800210123A04710BD10B51B48F3
:101E400014F066F81A4C0D212060FFF7EFFF0E2109
:101E50002068FFF7EBFF0F212068FFF7E7FF042161
:101E60002068FFF7E3FF05212068FFF7DFFF062169
:101E70002068FFF7DBFF07212068FFF7D7FF082165
:101E80002068FFF7D3FF09212068FFF7CFFF0A2161
:101E90002068FFF7CBFF0B212068FFF7C7FF0C215D
:101EA0002068FFF7C3FF002010BDC0468076010008
:101EB000B836002003003A33197802004B0702D0ED
:101EC0000A480B070DD4536D39321278890609D5AB
:101ED0009B5C0648203BDAB25E2A02D805225343B7
:101EE0001818704705205043FAE7C046F87A0100F9
:101EF000043810B500680022436801215C68014B7A
:101F0000A04710BDF01F0000F0B5040026003736D2
:101F1000051F337828680E3342689B00EB1857681A
:101F200087B05B6800220121B84730780321013077
:101F3000FEF7BAFA0F1E317000D097E0AB6C013398
:101F400003D1EB6C013300D190E014F017FCEB6C83
:101F50008B4205DB00D089E0AB6C834200D385E087
:101F6000210036310A78530700D19CE05306DB0F7D
:101F7000053301931000082318400090019856077C
:101F8000760F864258DA18331A4003922800FFF77A
:101F900091FF039B0290211F002B20D0009B4A6DD4
:101FA000002B09D012784D4B203AD1B25E291AD8B5
:101FB00005214A439B1816E0230035331978535CFA
:101FC0009C466046454B00280DD052185278203A66
:101FD000D1B25E2907D805235343404AEAE7009B64
:101FE000002B1AD04B6D019ADB5D921B9340029A35
:101FF000D25D3241134304AABB540137052FC5D12A
:102000000722363423780136164093431E43267048
:1020100004A92800FFF7BEFE28E0230035331A7814
:10202000013B1B78013B9C462C4B6245DBDA0523C8
:1020300001325A434B6DBDE72000009E3530002E23
:1020400016D09A430A702200202336321678077879
:10205000334011D06B6DDB5D5C426341DBB2002B22
:1020600015D0F3060DD42800FFF782FE07B0F0BDAF
:10207000037801330370E6E734342478A7425B41E8
:10208000ECE7002303701078083303431370072232
:102090000B7893431A00012313430B702800FFF7BA
:1020A00009FF0100B5E721002023353108781340EE
:1020B0000130C0B20870002B0AD06B6D1B5C584217
:1020C0004341DBB2002BE9D0D306CCD50023E4E7B3
:1020D00034342478A0425B41F3E7C046F87A01002B
:1020E00010B5EFF3108272B615490B78002B05D1AD
:1020F000002A00D162B64520404213E0013BDBB22A
:102100000B70002B04D0002A00D162B61020F3E738
:102110000C4B01201C78002C05D00870002A0DD132
:1021200062B60C3810BD1870002A00D162B6802249
:1021300001210020D20551601870F3E70B20DBE786
:102140009200002091000020002210B51000012113
:10215000FEF7C4FF0020FEF797FF002010BD00002F
:1021600070B5EFF3108372B6274A1078441C1470D0
:1021700000280BD0002B00D162B68022234BD20561
:10218000D3580020DB0300D4443870BD204E34788F
:10219000002C06D01070002B00D162B60B204042FC
:1021A000F3E701223270002B00D162B68024194D72
:1021B000E405002924D00020FEF772FF0023C1228D
:1021C0006B6092000133A158A35023606B68002B11
:1021D00012D000236B600133194202D1C222920057
:1021E000A350C02301210C4A5B00D1500020FEF710
:1021F0004BFF00233370C0E720BF40BF20BFE5E79F
:10220000012369602360F4E7920000200C040000C1
:1022100091000020FC00004000E100E0F8B507005C
:102220000D00EFF3108372B62D4A117800290CD0FF
:10223000002B00D162B680228323D205DB00D35865
:102240000020DB0300D44438F8BD01211170002BBD
:1022500000D162B60020FEF723FF0022214C80232C
:10226000A260C1220220DB05920099589850A32257
:10227000D2009D5001229A60A268002A2CD0002230
:10228000A2600232114202D1C22189005A50C023F9
:102290000126154A5B00D6500020FEF7F5FE80238C
:1022A000C22218209200DB05985003210022294009
:1022B000226162619142BED1A7221024D2009C50BB
:1022C000C122920098509E503800FFF749FF002825
:1022D000B1D1064B5E60AEE720BF40BF20BFCBE769
:1022E00090000020FC00004000E100E0FCE100E084
:1022F000F7B5244C8023E268DB059446C1229200A6
:10230000995801220A40204905005E5800926768EA
:10231000A0682169626901926246002A01D0002208
:10232000E260002F01D000276760009A002A06D0E3
:10233000F20304D5C2260122B6009A511A61002880
:1023400001D00023A360002908D0002128002161CA
:10235000FFF7C6FE80230122DB055A61019B002B9B
:102360000ED000218022C12361610124D2059B008F
:10237000D4502800FFF7F4FE002801D1034B5C6025
:10238000F7BDC046FC0000400C040000FCE100E08A
:1023900002008020400510B5046943695118634369
:1023A0000020994201D8D043C00F10BD80220349BC
:1023B000D2008B58002BFCD07047C04600E0014093
:1023C0008021F0B5224B234F85B0FA58490503927E
:1023D0000A6904000192017A029300230093994252
:1023E00002D00CF081FC00900223029A0025BB5021
:1023F000FFF7DCFFA1232268DB00FA50FFF7D6FFCE
:102400006368019A01359B1A636023689B182360F7
:10241000237A002B0DD16368002BEBD1029B039A2A
:10242000FA50FFF7C3FF6068431E9841404205B071
:10243000F0BD0CF059FC00990CF05AFC2900060084
:10244000FDF7C2FE044B86199E42E4D9E6E7C0467A
:102450000405000000E00140DA02000070B52F26FC
:102460002E258CB06E446D4431000400280012F01B
:102470002DFB2D7836780CF037FC00221149030033
:102480000591114811490892079204910392029014
:102490000191009206943200032128000CF0F0FA1A
:1024A0000223984308D10A490A4814F035F9002854
:1024B00005D1A0680CB070BD48204042FAE73C202E
:1024C000FBE7C046D9240000A0415201DA02000017
:1024D0004C160000AC000020F0B52F272E258FB041
:1024E0001E000B9011F090FD02ABED18FF183900A3
:1024F000280012F0EBFA124B2878002405931023E1
:102500000894009307940B9B0696049403940294FA
:102510000194220021000CF0B3FA02239843A04258
:102520000BD04A3BB3603A7828782300009421000E
:102530000CF038FB034814F097F80FB0F0BDC0461C
:10254000A5250000AC000020F8B50E0019003000F1
:1025500017001C00FFF71CFF002809D00025AC4223
:1025600004D0220031003800FEF76FFA2800F8BDD1
:1025700016256D42FAE70000012210B5064B110046
:102580004360064814F066F805480122002114F063
:1025900061F8002010BDC046047D010094000020B9
:1025A000AC000020F0B5586885B01D001B68984746
:1025B000041E12D10F270E266F446E4439003000DE
:1025C00012F084FA3A7830782300009421000CF05D
:1025D000E9FAAC60024814F047F805B0F0BDC04617
:1025E000AC0000208023F0B55B051F6989B00E00A8
:1025F000100039001500FDF76DFE01900C00300051
:102600003900FDF767FE002904D01624644220003B
:1026100009B0F0BD002CF8D129003000FFF7B8FE5A
:102620000028F2D0019B002BF1D00121104F49422C
:10263000380014F071F820000CF006FA030005A829
:10264000002B0FD0012302AA13720A4B846002965A
:10265000039505934260FFF701FF0400380014F072
:1026600003F8D4E7059645600472FFF7A9FEF4E786
:1026700094000020C123000070B50D000121094C19
:102680004942200014F048F8074A084B0021002D69
:1026900000D10121D150FFF789FE200013F0E4FFA3
:1026A000002070BD9400002000E0014004050000FF
:1026B000F7B50026037B0400B34202D00CF014FBF4
:1026C0000600676803223800104000D173E004253B
:1026D00097433A68A36801922D1A9D4200D91D00C4
:1026E00001AB18182A002168FEF7AFF9FFF75EFE6C
:1026F000019B3B6063685B19636023685B1923601F
:10270000A3685D1B237BA560002B54D00CF0ECFA72
:1027100031000CF0EDFA294B400098424BD9FFF7FD
:1027200045FE01204042FEBDFFF740FE2168013515
:102730004A780B7812021A438B781B041A43CB7821
:102740001B06134362681360636804336360236885
:1027500004332360A368043BA360237B002B0CD0CD
:102760000CF0C2FA31000CF0C3FA29000700FDF7A3
:102770002BFD124BC0199842D1D8A268032AD3D896
:10278000002A14D0636821681B6801A80193FEF732
:102790005CF9FFF70BFE6368019A1A60A368626830
:1027A000D21862602268D31823600023A360FFF769
:1027B000FDFD0020B7E70125DFE7C046DA02000093
:1027C000F0B50E008BB01900300001921D00FFF72C
:1027D000DFFD002827D00024A5421CD00121134F83
:1027E0004942380013F098FF20000CF02DF9019AAF
:1027F00006AB06925E609D60A0420FD001221A7364
:102800000B4A03A8059403920493FFF727FE0400E4
:10281000380013F029FF20000BB0F0BD18001C7326
:10282000FFF746FFF3E716246442F4E79400002024
:10283000B126000030B515000268A2209268C000E1
:1028400014682258002902D1EA4001310A400020D0
:102850001A6030BD00688068006800290AD1013123
:102860009140002B04D0A123DB00C1500020704711
:10287000024BFAE7024A8350F8E7C0460C05000015
:102880000405000010B5002483681868A2420ED029
:102890005A6808601960A24200D15960002010BD3A
:1028A000226081420FD15C600DE0040000680028C6
:1028B000F4D08842F9D10A685868002CF0D11A6027
:1028C000814200D15A6000230B60E7E70D4BF0B561
:1028D0001C68012500231F270B4E2200DA402A42E4
:1028E0000AD01A004532FF3292009259120A3A4039
:1028F000824201D1002903D00133042BEDD1173BD3
:102900001800F0BDD00000200060004070B50C0041
:102910001600002919D1036885689B681000197991
:10292000FFF7D4FF00280FDB01231A00B240A9688B
:1029300083400A43AA600200054940329200545085
:10294000C122200092008B5070BD23204042FBE743
:102950000060004070B50C001600002915D1036816
:1029600085689B6810001979FFF7B0FF00280BDB22
:1029700001231A00B240A96883409143C22220007B
:10298000A960034992008B5070BD23204042FBE7B1
:1029900000600040F7B515000268060092681768ED
:1029A000002902D0232040426AE003219813084006
:1029B000019080201A1340000A40C024C0218446A0
:1029C000A40289001C401940F438614504D0354800
:1029D0000918484248418000802149028C4200D1B8
:1029E00000240199920052182F4992005258290050
:1029F00094460122C131FF31134247D00C2840D107
:102A0000A124AA40E4003A5103246246144320431F
:102A10008900C8510220184032D032689268127979
:102A200001929A06BED55A0636D4042423405C424D
:102A30005C41802364425B021C40E4181B4F3E68EB
:102A40003000FDF7D9FD042829D001992800FFF7AF
:102A50003DFF002803DAF043FDF7C4FD01380123F0
:102A60001A0082401643F8222D02520115404530CB
:102A70001D43FF300E4B80002C433E60C4500020AD
:102A8000FEBD0428C0D1AA400A4CBCE762460243FE
:102A900014438900CC51BDE7C024A402CEE7052031
:102AA00081E7C04600FEFFFF2C7D0100D000002022
:102AB000006000400C05000010B500220221062035
:102AC000FEF70CFB0620FEF7DFFA002010BD000029
:102AD000F8B500231F251A001C00012613481449CD
:102AE0009F0079183F187868002808D0A220C000FD
:102AF00009587C603700090A29408F403A43013366
:102B0000042BEBD10B4EB3681C68002C0CD09D68D5
:102B10001540A3682B4204D02A00210030006368CE
:102B200098472468002CF4D1F8BDC046FC600040F2
:102B300000600040F43B002003689B681B681A009B
:102B4000FC32D068002806D00020D060A322D2003A
:102B50009B580B70704701204042FBE70368064A10
:102B60009B681B689950FC331A6A002AFCD000222B
:102B700008001A627047C0461C0500000368002068
:102B80009B681B681A00FC32926A824203D0902232
:102B9000D200985898500F2318407047F8B5036832
:102BA00005009B6818481C6813F0B2F90223060060
:102BB0004268FF33176800211822B8477368300055
:102BC0001F68002319221900B84718220F4BEB2168
:102BD000E2500F4B0132E250E122AB6852021A6020
:102BE0002B6849049B6800201A680A4BD1500422C4
:102BF000243BE2502300FC331862D8600123A36019
:102C00002360054B6B60F8BD807601000C05000069
:102C10001405000024050000987D0100F0B58478BB
:102C2000C3785218251D85B0944645199C4220D87A
:102C30001B1BDBB20027994202D25B1ADFB20B00EA
:102C40001C19C91AE4B2C9B2EB189D4209D14378E4
:102C50008470BB4202D90122244B1A60080005B0DF
:102C6000F0BD01225242944466462A780135327002
:102C7000EBE70278121BD2B2914226D25E1A921969
:102C8000D7B20A006418E4B2AE1801956546891AF5
:102C9000C9B203960295039E019DAE4218D16546C6
:102CA000AA1A0029D3D0002BD1D0051D8B421AD9E6
:102CB0000C005B1ADFB2091BC9B22B19AB42C6D09C
:102CC0002E78013A16700135F8E71F000024DBE783
:102CD000029E019D013E02962E78029D2E70019E5D
:102CE00001360196D7E71C000027E4E700D000403A
:102CF00070B500281DD0C2780578531CDBB29D4208
:102D000000D1002384789C4213D000290ED0A12149
:102D1000094EC900715882181171C3700133DBB2BA
:102D20009D4200D1002300209C4201D0102040424F
:102D300070BD3720FBE7C04600D00040012270B5CF
:102D400084681100200013F085FC20000122183057
:102D5000002113F07FFC23000522002530331A7078
:102D6000013ADD709D705A700C230D263C3463705F
:102D70000C480D4B2670E570A5701958033A1143A5
:102D800019501900FC314D60C12189005A503000A2
:102D90001A6002212A00FEF7A1F93000FEF774F94B
:102DA000280070BD0405000000D0004070B5124D31
:102DB0006B68002B0AD08468012120003C30FFF7AB
:102DC00097FF0300103302D100236B6070BD3730D2
:102DD000414241412000C9B23030FFF789FF06006F
:102DE0002000183013F040FC00236B601036EDD04B
:102DF0000122024B5A60E9E7FCD0004000D00040BD
:102E0000F8B50F0014008568002C01D12000F8BD32
:102E1000231CFF2C00D9FF239BB2E41ADEB2A4B21C
:102E200001212800494213F077FC280031003A00C4
:102E30003030FFF7F3FE0600280013F015FC002EDB
:102E4000E2D0280001211830494213F065FCE7E781
:102E5000130010B503480A003C301900FFF7DEFEEE
:102E600010BDC046D4000020A822084BD2009850C4
:102E7000074A9B58C01A0002000A064B02389842C3
:102E800003D98022044B92025A607047001001401F
:102E900004050000FDFF7F00FCE100E070B5114A71
:102EA000114B124CD0582568401B0002000A8228A2
:102EB00012D98321FDF788F90D4B1A68824200D997
:102EC0000200832353435B191B021B0A2360094B37
:102ED00010001A6013F05AFC20688330FFF7C4FF1B
:102EE00070BDC0460010014004050000280100200C
:102EF000240100208C3B0020002210B5024B5A64B4
:102F0000FFF7CCFF10BDC046FC100140074A10B5CA
:102F10000300904200D913008320054A58431360F0
:102F2000044B1B68C018FFF79FFF10BD23FA000079
:102F300024010020280100200022074B10B5802129
:102F40005A64C023054A5B008902D150FFF7A6FFEF
:102F50000122034B1A6010BDFC10014000E100E0AB
:102F60002401002070B51A4812F0D2FF00282BD09F
:102F700000240126436800211B689847154B8322D3
:102F80001C60154B154D1E60A123DB00EC5038333F
:102F9000EA508023D1225B029200AB50403AAB5002
:102FA0000F4B80215C64C0230E4A5B008902D15024
:102FB000112022003100FEF791F81120FEF764F88D
:102FC0002000AE602E6070BD01204042FBE7C0468D
:102FD000EC7C0100280100202401002000100140A9
:102FE000FC10014000E100E00A490B4A70B58B5823
:102FF0000A4E346875688858834209D1832060433B
:10300000181A074B00021B68000A5C43001970BDC8
:103010000300EEE7001001400405000060130020EB
:10302000903B0020F0B5EFF3108372B68122134D70
:10303000134E2C78624392190326013434402C70CD
:10304000002B00D162B6402900D9402103000F2790
:1030500010000C4D5E18B34204D10023490010004B
:103060008B54F0BD1C7824092C5D04701C7801334E
:103070003C402C5D44700230EDE7C0466301002007
:1030800064010020FE7D010070B51B261B4A1C490F
:1030900013788AB05E438E19012101330B401370FF
:1030A0000378040007AD032B22D81800FDF76EF853
:1030B000021A1C1E13492800FDF79AFC6278A379B6
:1030C0000492A27805950392E2781B21029222795C
:1030D00030000192627900920B4AFEF761FB3000EA
:1030E0000AB070BD0949E6E70949E4E70949E2E7A2
:1030F000094A0A212800FEF753FBDFE7620100209E
:103100002C010020B27D0100DB7D0100B97D0100B2
:10311000C07D0100CA7D0100D47D010070B58AB078
:1031200069460A00084B70CB70C270CB70C270CB7E
:1031300070C21B681360054B092801D880004358F2
:1031400018000AB070BDC046DC730100E4860100BF
:10315000F0B5070087B090790E00140012F0C4FC9F
:10316000234DA84212D0A479200012F0BDFC214BBF
:103170000390059300930495029401971E4B1F4AF8
:103180001F492048FEF700FB07B0F0BD200012F0F9
:10319000B1FC1D4DC00028184388BB4210D0200050
:1031A00012F0A8FC134BC00003932D186A88144931
:1031B000029200930197104B104A1448FEF7E4FA6C
:1031C000200012F097FC104DC00028184368002B17
:1031D000DAD0200012F08EFCC0004655200012F01C
:1031E00089FCC0002D18686813F03EFACCE7C04691
:1031F000883C002094A301001F7E0100F88001009C
:10320000FF80010002810100680300204781010066
:1032100010B50400034813F0E5FE012320411840D7
:1032200010BDC046B0370020F7B50191012105005F
:103230004942134812F0E8FC070008370400002157
:10324000380012F001FD00232000237512F052FC1B
:103250000C4EC00030184580200012F04BFC0023BB
:10326000C000361873603800032112F07FFD6B46F2
:103270001B7905702D0A457083702000FEBDC04685
:10328000883C00206803002070B50C0086B0150053
:10329000002903D1FFF7C8FF041E2ED00122002110
:1032A000684613F0D7F9200012F024FC6B46144E48
:1032B000C00030184360200012F054FD2100114876
:1032C00012F010FD1049684613F026FA200012F0A3
:1032D00011FCC000805D002805D0200012F010FD18
:1032E0000520404202E0002D02D02C6006B070BDE7
:1032F000200012F005FD2800F8E73720F1E7C0466E
:1033000068030020F43700201027000070B5134E2A
:10331000062231000500FDF789FB041E19D00621A5
:103320000F48FFF781FF041E15D006222900083040
:1033300012F023FD210000220948FFF7A5FF041E1B
:1033400007D1062229003000FDF77FFB0122054B43
:10335000DA71200070BD37246442FAE74837002054
:10336000052000004037002007B5062168460BF015
:10337000FBFC002808D16B463F225B79684613406E
:103380006A465371FFF7C2FF0EBD000070B50221FF
:1033900005001548FFF748FF041E22D0022108301F
:1033A00012F0E4FC0600012D13D10A20FFF730FFD4
:1033B00070702100357000220B48FFF765FF041E76
:1033C00005D10A48012D07D1802113F017FE2000F6
:1033D00070BD00234370ECE78121494213F019FED0
:1033E000F5E737246442F2E70C200000B0370020F4
:1033F000F7B50D00202100900192FFF715FF061E82
:1034000035D02021083012F0B1FC20220021040028
:103410000027FDF741FB019B9F4205D100223100AF
:103420000098FFF731FFFEBD23786A78D11802318A
:103430001F2905DD300012F063FC16204042F2E740
:10344000501CE1184870981CC0B2207001332978D4
:10345000DBB2E3185970013069682018FDF7F5FAFE
:103460006A78237801379B1823700835D3E7372013
:10347000E4E710B50820FFF7CBFE041E01D00020C2
:1034800010BD0720FFF7C4FE0028F8D02000FFF78A
:103490007DFFF5E7012310B5062104000370C01875
:1034A0000BF062FC002804D14023A2795B42134355
:1034B000A37110BDF0B58FB00CAA0021A048FFF792
:1034C000E3FE041E6DD10C9B9B681B78002B05D17D
:1034D0009C4A01219C48136013F086FD0C9812F061
:1034E0000FFC0CAA00219948FFF7CEFE041E58D10C
:1034F0000C9B0822996896480131FDF7A6FA0C98B2
:1035000012F0FEFB21000CAA9248FFF7BDFE041E3C
:1035100047D10C98904D83685A78AA73DA789978D5
:1035200012020A432A821A79EA731A7AD9791202A4
:103530000A436A825A799B791B021343AB8212F0C9
:10354000DFFB21000CAA8548FFF79EFE041E28D150
:103550000C9B0622996882480131FDF776FA0C9897
:103560002C7012F0CDFB21000CAA7E48FFF78CFED8
:10357000041E16D10C9B402299687B480131FDF74F
:1035800064FA0C9812F0BCFBAB7E5B060CD4774B54
:10359000774A019300937749774B7848FEF7F4F820
:1035A000133C20000FB0F0BD21000CAA7448FFF7B7
:1035B0006BFE041EF5D10C9B0822996871480131FD
:1035C000FDF743FA0C9812F09BFBAB7E9B0676D579
:1035D0002B003A331B781B0700D589E008216A4885
:1035E000FFF722FE041E70D00821401812F0BEFB27
:1035F000062240352B781340934200D19DE00223F0
:10360000002203701B0A43708270C2700271427103
:103610008271C27121005C48FFF736FE041EC0D1E2
:1036200008215A48FFF700FE051E4ED00821083039
:1036300012F09CFB802343707E3BC3701E330470EA
:103640008470047144718471C371220029004F4851
:10365000FFF71AFE041EA4D101000CAA4C48FFF784
:1036600013FE44494B4B002800D1A3E03F4A4A488F
:1036700001920092494AFEF787F8072200210AA822
:10368000FDF70AFA344F07220AA93800FDF7CEF9F0
:10369000002800D017E1424B344D1B68002B00D0AE
:1036A0004FE13B00012660331B78334200D06DE1CF
:1036B000019500953B4B394A2E493B4873E1022165
:1036C0003A48FFF7B1FD061E02D13724644268E78D
:1036D0000221083012F04AFB0123447003702200DB
:1036E00031003248FFF7D0FD041E00D170E758E7E3
:1036F0000CAA00212E48FFF7C7FD041E00D050E79A
:103700000C988268531C59785278090211439A78B0
:103710001C7912041143DA7812060A435979090216
:103720000C439979DB79090421431B060B432900DB
:1037300080310CC112F0E4FA50E7C1235B005FE76F
:10374000030C0000C4030020B03700200310000069
:1037500056370020011000004037002009100000FB
:1037600041370020021000005E37002094A30100C2
:103770008A810100FF8001006E7E010091810100BD
:1037800003200000B837002001200000010C0000D9
:1037900001FC0000947E0100C5810100F880010059
:1037A0008C120020767E0100698301006D0C000000
:1037B0001C2000000C9AA04E9568AA786878120226
:1037C0000243032A02D89D48960036589C4802922C
:1037D000039000909B4A01969B48FDF7D5FF2B79FB
:1037E000EA781B021343AA78697812020A439249C5
:1037F000022A04D1022B02D8944A99008958904A8F
:10380000934F039202930191009292498D4A3B009B
:103810009148FDF7B9FF6A798749032A02D88F4B8F
:103820009100C958864E0696A87A6B7A0002184312
:10383000EB7A1B0418432B7B1B06034305932B7A5F
:10384000E8791B0203430493AB7985480393029202
:103850003B007C4A019100967E49FDF795FF0C984C
:1038600012F04EFA0CAA00217E48FFF70DFD051E4E
:1038700006D0019600963B007B4A76497B48FAE6E3
:103880000C9B022299687A480131FDF7DEF80C980A
:1038900012F036FA0CAA29007648FFF7F5FC00284A
:1038A00006D0019600963B006F4A6A497248E2E6EC
:1038B0000C9B0122996871480131FDF7C6F80C98FC
:1038C00012F01EFAD9E66E49072228310CA8FDF73E
:1038D000BCF807220CA93800FDF7A8F8002800D191
:1038E000D9E63800FFF7D0FB554D0190654B554A9E
:1038F0005849029500956448FDF746FFBE7B3000AD
:10390000FFF70CFC0595BB8A4E4A04933B8A51494C
:103910000393029601905B4B00955C48FDF734FFE2
:10392000FE7B3000FFF7FAFB04957B8A454A039340
:10393000019002960095534B46495548FDF724FFE8
:103940002FE600211E683A0007230800B047072829
:1039500000D0A6E63B78012B04D13F22BB799343EC
:10396000C02B5FD0019500954A4B4B4A39494B48D3
:103970001626FDF709FF764201950095484B464A09
:1039800034494848FDF700FF34000AE609AA00213F
:103990004548FFF779FC002808D03E4B324A2D49B4
:1039A000424801950095FDF7EFFE19E0099B9968E3
:1039B0004B78002B09D0023106223D483E70FDF7BE
:1039C00044F8099812F09CF9C4E701950095314B31
:1039D000254A20493748FDF7D7FE099812F090F99B
:1039E0003800FFF757FD061EC6D1334B1B68002B6E
:1039F00011D05B683A009C46010007236646B04739
:103A00000728A7D0234B244A12492C48019500953A
:103A1000FDF7BAFE9EE7019500951E4B124A0D492F
:103A20002748F5E72248FFF771FC061EA4D10421C0
:103A3000244813F0E3FA54E7E4860100F48501001A
:103A400094A30100F981010000820100E8850100D2
:103A5000947E0100FF80010029820100D4860100CC
:103A60005182010002FC0000F88001008E820100FA
:103A70009F37002003FC0000C78201009E37002012
:103A8000DC730100867E01007A84010097840100C6
:103A9000E5840100767E01008A8101000A8401002C
:103AA000A07E01004B84010009FC0000008301009E
:103AB00041370020308301008C120020A5830100D3
:103AC000D4830100B037002010B5FFF7F3FC041ECB
:103AD00006D10221064813F091FA2000FFF7C9FC35
:103AE000044B1B68002B01D02000984710BDC04636
:103AF000B0370020C0030020034B10B5C4331B684F
:103B0000DB68984710BDC0464037002030B505003F
:103B100085B00C1E03D1FFF787FB041E1DD0104B90
:103B20009D4214D12000FFF7E7FF051E0CD00D4B7E
:103B30000190029300930C4A0C4B0D490D48FDF780
:103B400023FE200012F0DCF8280005B030BD210073
:103B5000094812F0C7F80025F6E737256D42F3E76C
:103B6000350C000094A301008A8101000F7E010042
:103B7000FF8001001D7F0100F4370020F0B585B003
:103B80000F22404C0121637B200013406373103AE5
:103B900013F012FB002860D1637B1B09012B0BD9AA
:103BA000042B0CD0384A019302920092374B384ACA
:103BB00038493948FDF7E8FD12F0BEFCE0E7267B06
:103BC000002EF9D13100354812F026F8051E50D0EC
:103BD0000121334F4942380012F09EFD314CA03490
:103BE0002368002B2BD1280012F0BCF82D4CA034F8
:103BF00020602800FFF780FF0028DDD0224B2A4AF2
:103C000024490293019000932848294BFDF7BCFDFD
:103C1000380012F029FD280011F06CFFC300254880
:103C20000022C0181F214088FFF792FA206812F086
:103C300067F800232800236012F062F8BCE7124BFB
:103C4000194A019300931349194B1B48FDF79CFD3A
:103C5000206812F055F82660C5E70B4B124A019315
:103C600000930C49154B1648FDF78EFD62B60420F3
:103C700002DF054B0C4A0193009306490C4B114897
:103C8000F2E7C0460838002094A30100517E0100ED
:103C9000F8800100FF8001001C850100F43700203E
:103CA000C8370020403700208A8101001D7F0100B5
:103CB000487E0100680300204D850100607E010000
:103CC00078850100A2850100F0B5057D8DB0040066
:103CD000012D00D0C3E0866833780E3B012B0BD852
:103CE000674B684A019300936749684B6848FDF742
:103CF0004BFD62B6042002DF0700083702213800BE
:103D000012F0ACF836783E2E00D098E0A668290074
:103D1000380012F0A3F83578082D47D0092D00D1CE
:103D20006AE0022D00D078E0380012F09FF806908B
:103D3000069B013BDBB20693FF2B4ED0A568092101
:103D4000380012F08BF82B7A0AAEEB185B7A691CFC
:103D500007936B780722023B3000012B5AD8FCF7FF
:103D600074FE3378023B33704A4E3368002B17D011
:103D7000380012F0AEF8A389089009932B7A1C2121
:103D8000A3816B462A78595636683B000AA8B0478B
:103D90006B4622691B8CD318A3606B469B8CA38156
:103DA000297A3800013112F059F8C1E711213A4F50
:103DB000A6684942380013F02CF93378002B08D15B
:103DC000711C40223548FCF740FE2900380013F0F2
:103DD00015F9334B1D68002D05D1200011F090FF1F
:103DE00000200DB0F0BD002032782B68824200D157
:103DF000701C98476D68EEE72A4D2B68002BECD0BD
:103E00000020A2681178814200D1501C98470023FD
:103E10002B60E2E7FCF719FEA6E7A689A06831004F
:103E2000FFF700F9164B0390049300931E4A1F4BB3
:103E300015491F4802960195FDF7A6FCCDE7A58917
:103E4000A0682900FFF7EEF80D4B03900493009350
:103E5000029501960D4B144A0B491648ECE7084BA6
:103E6000084A029300930849134B01951348FDF744
:103E70008BFC200011F044FF16204042B1E7C04601
:103E800094A301008A810100FF8001003E7E0100B1
:103E90004F7F0100C4030020B03700207C030020C6
:103EA000BC03002078030020F88001002C7E010074
:103EB0008E7F0100C37F0100A97E0100F57F010014
:103EC000F0B5037D85B004008568012B0BD0344B21
:103ED000344A019300933449344B3548FDF754FC80
:103EE00062B6042002DF8389012B07D82C4B2D4AB0
:103EF000019300932C492D4B2E48EFE72B780E3B76
:103F0000012B15D8070008370221380011F0A6FF51
:103F10002B780E2B14D00F2B2DD0200011F0F0FE9B
:103F20001F4B204A019300931F49204B2248D5E79D
:103F30001B4B1C4A019300931B491C4B1F48CDE7A8
:103F4000A36803219D785A782D02380015431E7806
:103F500011F084FFA368220019782800FFF7F8F811
:103F6000002E02D0164812F07FFB200011F0C8FE90
:103F7000002005B0F0BDA6680421F578B3782D02C5
:103F80001D4373783800039311F068FF31782200E5
:103F90002800FFF7DDF8039B002BE6D0E2E7C046E0
:103FA00094A301008A810100FF800100B17E01001D
:103FB000198001005D800100D5800100978001001B
:103FC000C8370020094AC4321368002B08D1816821
:103FD000002908D0C168002905D01060180070477A
:103FE00045204042FBE71620FBE7C0464037002053
:103FF000F0B52C4C87B0C43423680700002B0BD1DC
:10400000294B2A4A0193009329492A4B2A48FDF754
:10401000BBFB1324644227E0284E0121300012F03C
:10402000EDFF012528403BD1254BEB221F600923E2
:104030005B42059004900393029001900090214B05
:1040400092002149214812F01DFD23689B68984782
:10405000041E0CD0144B019002930093134A154B8D
:1040600013491B48FDF790FB200007B0F0BD002F5F
:104070000BD1FFF71FFA041EF6D10221300012F017
:10408000BDFF2000FFF7F5F9EEE72900114812F017
:10409000B5FF2842E8D11049104812F096F8E3E73E
:1040A0004524B7E74037002094A301008A8101002E
:1040B000FF800100BE7E0100C87E0100B0370020F5
:1040C000C00300207D3B0000E0130020C803002057
:1040D000F17E0100AC370020A437002068130020D7
:1040E000F0B5170002781E0085B005000C0043886B
:1040F000D20706D4504A927B082A02D89F2B00D8B8
:1041000095E0AA889A4200D291E01F2B00D88EE059
:104110008023DB019A4200D989E00520FFF778F877
:10412000002800D085E021003A004448FFF760F9FC
:10413000041E32D1002E29D12B78DB0726D40F2282
:1041400000216846FCF7A8FC6A466B8801271380AB
:10415000AB885380072353732B783B4220D0022037
:10416000FFF756F8002802D03548FFF7CFF86A4627
:10417000314B1B78537100230F2132481371FFF725
:1041800053F8041E29D13724644206E00A9A31000C
:104190002D48FFF72DF9041ED1D0200005B0F0BD49
:1041A0005B0714D50220FFF733F8041E03D0244820
:1041B000FFF7ACF804006A461F4B1B785371002CC4
:1041C000EBD10223002E00D103236A46D4E7FFF788
:1041D000CBF86B4604005F71F1E70F2269460830A7
:1041E00011F0CBFD210000221648FFF74DF8041E08
:1041F000D3D101211548FFF717F8061EC3D00121BE
:10420000083011F0C4FD220031001048FFF73CF8DF
:10421000041EC2D10E4E2021300012F0EFFE2B788A
:104220009B07BAD44021300012F0E8FEB5E716240F
:10423000AAE74524A8E7C046403700200820000030
:104240004137002006200000092000000A2000005D
:10425000B0370020412170B5194D4942280012F0B5
:10426000D8FE0520FEF7D4FF002802D1002420004C
:1042700070BD01211348FEF7D7FF041E1CD000219A
:10428000083011F084FD210000220E48FEF7FCFFEB
:10429000041EECD121212800494212F0BAFE072069
:1042A000FEF7B6FF0028E1D00920FEF7B1FF002895
:1042B000DCD0FFF759F8DAE737246442D7E7C04685
:1042C000B03700200A2000000378F7B505000F0082
:1042D000012B00D987E04378012B00D983E0418886
:1042E00043480B1F9BB2834200D97CE0AA88131F6E
:1042F0009BB2834200D976E0914200D273E08024E1
:104300003C4E64002100300012F078FE044000D0E2
:104310006CE00720FEF77CFF00280AD02000FFF7A2
:1043200035F8041E05D03000334912F072FE20002B
:10433000FEBD6B78002B47D080213000C90012F001
:104340005DFE0722002168466C882E78AD88FCF758
:10435000A3FB6B465C70240A1E709C706B46DD707C
:104360002D0A1D716A4600239371244B214D1B7841
:104370005371012E0AD10520FEF74AFF002805D10E
:10438000FEF7F2FF041E2BD16B465E7107211C481D
:10439000FEF74AFF041E21D007226946083011F0BB
:1043A000ECFC21001648FFF7B1FB0120FEF7EEFF01
:1043B000041E15D1012E0CD180212800890012F095
:1043C0001DFE104B1F60B2E70F49300012F021FEB6
:1043D000B7E70E49280012F01CFEF2E737246442CA
:1043E00005492800A1E716246442A0E74524FBE71D
:1043F000FC3F0000B0370020FFFEFFFF40370020E9
:104400000B200000C4030020FFFBFFFFFFFDFFFFA8
:1044100010B50749074812F0FCFDC30505D500207B
:10442000054B1860FFF725F810BD45204042FBE71B
:10443000FFFEFFFFB0370020C403002070B5050069
:10444000054811F0E1FB041E04D00021083011F0F2
:10445000FBFB2575200070BDA83C002010B50100B5
:10446000EFF3108272B600200B4BA0331C6818606B
:10447000824200D162B6002C09D001230021200025
:104480002375A181083011F0DFFB200010BD012051
:10449000FFF7D4FF0400F8E740370020F0B58DB0F7
:1044A0001D0012AB089204CB254C1B88254F264ECD
:1044B0000A9007910B923100244A099302940193C8
:1044C00000943B002248FDF75FF912F075F8089B55
:1044D00005940393079B0190029300943B001D4AAF
:1044E000310004951C48FDF74FF92B000A9A0899F2
:1044F000079800F023FE041E1BD118490B9B1A02DB
:104500004B68120A1B0E1B0613434B60099804F0FC
:10451000C9F8102214991248FCF797FA0122114B9E
:104520001A7007F03BFB012806D100F09BFB00F05E
:10453000C3F920000DB0F0BD00F0B0FBF7E7C046B6
:1045400094A30100EC860100FF800100F9810100C5
:10455000FE860100268701002D87010020380020FB
:104560006C3800202804002070B5194D2B78002BE2
:104570002CD004F0DFF8F621164A002053681026EC
:104580001B0E1B0653601B0E0B4000219060D16078
:1045900002210024B3438B43D3710F48146012F0FF
:1045A00061FB07F0ABF803F0ADF903F0CBF9320093
:1045B00021000A48FCF770FA502221000848FCF755
:1045C0006BFA2C7000F088F900F068FB70BDC046F3
:1045D0002804002020380020443800206C380020B7
:1045E00068390020014B18787047C0462804002025
:1045F00010B5080004F042F8041E07D101F0BEFD1A
:1046000003F0BEF900F010FB00F03CF9200010BDF3
:104610000C2343430148C0187047C0462C040020B7
:10462000F0B58BB001214148494211F0F5FA051E61
:10463000F8D004214269137A0B4251D08B43137294
:104640003B4B10319B7B082B00D850316A6988B2F4
:104650001368049353680593537ADB06DB0E8B4291
:1046600000DB98B2137A02009C06640F0A32013410
:1046700054439B072F4A9B0FD35C08AF3B70AB8919
:1046800006AE7B70AB68052109930023C000337030
:10469000FBF724FE002380B27080B08001220093DB
:1046A00039003000FFF71CFD0600280011F028FB40
:1046B000049B0A34A4B2002B2ED01B68002B03D01D
:1046C000059A310020009847002E0ED01A4B1B4A45
:1046D000029300931A491B4B1B480196FDF754F8AF
:1046E00011F078FC11F028FF9CE7200011F040FF4A
:1046F000FFF7B0FD049B04005B68002B01D0059917
:104700009847002CECD00C4B0194029300930B4A79
:104710000C4B0B490D48E1E7002ED7D1200011F0DA
:1047200027FFFFF797FD0400EBE7C046483C002059
:1047300040370020E687010094A301008A81010030
:10474000FF8001006E87010087870100B2870100AA
:10475000F0B50F0085B01C00032A14D1A388012BEB
:1047600011D9200011F082FB061E0CD0A38885B25F
:10477000AB420AD2184B194A019300931849194BBE
:104780001948FDF701F805B0F0BD200011F0A1FBBC
:10479000A38802902000039311F068FB013DA580DF
:1047A0002A280ED02B2812D06B46A2681B89310014
:1047B000D31823606B469B892000A38011F04EFB29
:1047C000CCE700223900200001F052FBECE720008A
:1047D00000F054F9E8E7C04694A30100F880010016
:1047E000FF80010077870100EA870100F7B51D000F
:1047F00008AB1B780C0009991700019311F004FA1B
:10480000061E1CD011F076F9A04704000C220021EE
:104810007061FCF741F90322237A174093433B432D
:1048200004322A401D0038231F21D2009D43154326
:10483000637A019A8B430A401343257263723000F6
:10484000FEBD000007B5019300920B000200024973
:104850000248FFF7CBFF0EBD11460000683C002068
:10486000436910B506C304234269117A0B431372DE
:1048700011F078FA0100024811F034FA10BDC04678
:10488000483C00207FB509210023CB2249420593F3
:10489000049303910293019300939200034B044904
:1048A000044812F0EFF807B000BDC04621460000F2
:1048B00080190020A404002007B506220449684698
:1048C000FCF7C3F803496846FFF7FEFC0EBDC0467F
:1048D0000C7401005147000010B5FFF799FD10BDA1
:1048E00010B50C0011F036FF206010BD10B507F0B8
:1048F00055F9002802D1024812F0B4F910BDC046A3
:104900000405002010B5064C01212000083012F0EB
:1049100075FBC30703D42100024811F056FC10BDFB
:104920000405002068130020F8B504000D0000F015
:104930009FFB260007000121280011F028FAA37F21
:104940003036002B00D049363900280011F01FFA0C
:10495000310008222800213111F00FFA054B280000
:10496000196811F04AFA210028002831082211F0B4
:1049700004FAF8BD2038002073B5FFF733FE002895
:1049800059D001232D4A2E4C11782E4D4B401370D7
:1049900035D011F0DFFE2300A0331B88AB4221D0BD
:1049A00023000833DB6FC01A274B984209D8230035
:1049B00088331A78254B01325343254A9B18984275
:1049C00010D30023142219000220FFF73BFF051E1D
:1049D00022D1204B204A019300932049204B2148AB
:1049E000FCF7D2FE07F0DAF8012802D0E3799B0742
:1049F00004D5164A1C491D4812F086F973BD2200E1
:104A0000A0321288AA42C4D0220021008932107834
:104A1000883108701370BCE70100154E0831300072
:104A2000FFF782FF280032001249FFF719FF280024
:104A300011F066F9D6E7104ADCE7C0462C050020E5
:104A400020380020FFFF0000BF27090010270000CA
:104A500078ECFFFF94A301008A810100FF80010030
:104A60001888010052880100040500206813002006
:104A7000A43800208089010088130000F0B58388E5
:104A80008BB00400002B0AD1584B594A0193009374
:104A90005849594B5948FCF777FE0BB0F0BD11F05F
:104AA000E5F90028F9D0012869D1A288142A0AD88A
:104AB0004E4B0192029300934D4A514B4D49514840
:104AC000FCF762FEE9E7504F3B00A0331A884F4BDA
:104AD0009A425DD0152221684D48FBF7A7FF0028B8
:104AE00056D14C4C15E0A01D15220699FBF7ADFFE1
:104AF000002000F0FBF9002815D0A38B002B12D06A
:104B00003A4B454A019300933A493D4B4348FCF7E1
:104B10003BFE07F043F80128BFD16379FF2BBCD0DF
:104B200001336371B9E70220FB797508EDB20342E6
:104B300009D00122D907C90F2A40914203D18343EA
:104B4000FB71FFF7D3FE012729000598394000F0DB
:104B500039FC1723310004AA9B1805001A78394044
:104B6000200000F0B1FB00283DD0200000F08EFABC
:104B70002000002D00D0002000F022FCC9E71B4BD4
:104B8000019002930093244A1B4B1A49244897E74B
:104B900023682000069311F069F9236808210600B4
:104BA00017252000079311F059F9200011F07FF923
:104BB00004ABED18009505902368020031000798BA
:104BC00000F086FF041E00D167E7E37F022B8AD145
:104BD0002B78002B87D1054B0F4A01930093054991
:104BE000074B104857E7002D93D0C4E794A301006A
:104BF0008A810100FF8001003E8801008388010056
:104C00002B880100A488010020380020FFFF00004D
:104C1000AA380020A4380020F8800100168901007D
:104C200053890100D588010010B50249024812F0ED
:104C300003F810BD7949000004050020012310B5D8
:104C40000224074903405A00CB79A3431343CB7195
:104C5000002802D0FFF756FE10BDFFF747FEFBE726
:104C60002038002010B5FFF7BDFC002802D1FFF767
:104C700049FE10BD064B1A00A0321188054A914228
:104C8000F5D0002288331A80034800F0FFF9EEE7E0
:104C900020380020FFFF0000A4380020044B10B58E
:104CA000DB799B0702D4034811F0DCFF10BDC0463E
:104CB0002038002004050020F0B50400260021362D
:104CC00089B008001700310008220593FBF7AEFEFB
:104CD00000230500984225D1200006AC059B320038
:104CE00039003930009403F027FB082221000E9888
:104CF000FBF79CFE0123002814D008210E98FEF734
:104D000091F9082106002000FEF78CF9074B02906C
:104D1000039300930196064B064A07490748FCF7A0
:104D200033FD2B00180009B0F0BDC04694A301006C
:104D3000568A0100F8800100FF800100C58A010049
:104D4000F0B505001F008BB0129C0691079211F080
:104D500033FC7F22584E594904962B8803933B78A5
:104D6000019013400293564A564B00965648FCF762
:104D70000BFD11F021FC554D04962B68504A03930E
:104D80003B784E49DB09029301904E4B0096504808
:104D9000FCF7FAFC01213B782A68DB090A405A40FB
:104DA000119B20009B7C8B431343119A10999374A1
:104DB0000023A380A368236010F0D8FF109A390065
:104DC000FBF743FE119B079A997C2B68C907C90F13
:104DD000591A206803F062F9002800D06AE03026F2
:104DE000119B9B7C1E4025D121682D68DB07DB0FC2
:104DF000ED1A8B78042203312D0209A81D43FBF71D
:104E000024FE3100099A3348CB00C3181E6896422D
:104E100002D15B68AB4224D001310A29F4D12E4F74
:104E20002C4B3888C6009B19013024C380B2FBF795
:104E300051FA398021684A798B79120213431BB2E7
:104E400011999AB20A81002B17DC1B4B0192029335
:104E50000093224A1B4B19492148FCF795FC162068
:104E600009E0154B1D4A019300931449154B1D4849
:104E7000FCF78AFC452040421AE011F09DFB0E4BE6
:104E8000119A039312890D490292019000930C4AE2
:104E90000C4B1548FCF778FC119B21009A7C0B4BBE
:104EA000D2071B68D20F9A1A0698002303F058F90C
:104EB0000BB0F0BD0220DEE794A30100FF800100EB
:104EC00026870100618A01005695010020380020E4
:104ED000859501004805002098050020F880010014
:104EE000EF950100B695010024960100064A074B94
:104EF000904206D0064BA0331A88044B824200D061
:104F0000002318007047C046FFFF0000A4380020AF
:104F1000203800200023F0B58BB0069109A90B7052
:104F200003001F2504002933079302ABED18079BEC
:104F300011340193070000942B000122069802F01F
:104F4000E9FF061E0BD03D4B3D4A019300933D49BE
:104F50003D4B3E48FCF718FC30000BB0F0BD102272
:104F600006993800FBF771FD2B783B7411F024FB98
:104F70001021050020003E7CFEF754F82F4C324BE8
:104F8000334A3049039002960195049400943148C5
:104F9000FCF7FAFB11F010FB050010210798FEF753
:104FA00041F801953D000290274B294A2549039479
:104FB000009429482135FCF7E7FB2900069802F008
:104FC000FBFF061E06D0019400941F4B1C4A1D498E
:104FD0002248BFE711F0F0FA082106002800FEF78A
:104FE00021F83D0002900196174B194A1549039488
:104FF00000941B483935FCF7C7FB2A00194906986D
:1050000003F034F8061E06D0019400940E4B0C4AAF
:105010000C4915489EE711F0CFFA1021070028002F
:10502000FEF700F80394029001970094064B084A9B
:1050300004490E48FCF7A8FB8EE7C04694A3010084
:105040008A810100FF8001008889010071910100BF
:1050500026870100AD910100D7910100FA9101006E
:1050600024920100429201004792010075920100D2
:10507000031E00D0837F044AD279D20701D50222D1
:10508000134318007047C04620380020F0B50400D4
:1050900087B0FFF7EDFFA37F0500204F204E002BC8
:1050A0002BD011F089FA1F4B1F490393A28B01905B
:1050B0000292009332003B001C482700FCF764FB7F
:1050C000793711F079FA174B194E04933268164963
:1050D0000392019000930295104B114A1548FCF77A
:1050E00053FB3A00380028340094213233682900F9
:1050F000393003F021F907B0F0BD11F05DFA094B2A
:1051000009490393A28B00933B0027000292019070
:1051100032000948FCF738FB3037D2E7A08901009C
:105120002687010094A30100FF8001008D8B010000
:1051300020380020EF8B0100BC8B0100F0B58BB054
:105140000C0016000893079011F036FA089B344DB6
:10515000344F0493079B344A39000595029301901C
:10516000324B009503943248FCF70EFB11F024FA01
:10517000102109903000FDF755FF099B039502901F
:1051800001930095294B3900274A2A48FCF7FCFA7D
:105190001023294DEF791F403FD150223900274875
:1051A000FBF77AFC264B2A001F800123A232234002
:1051B00013703100002B2AD02248FFF7ABFE0028E5
:1051C00002D00520404220E02B000222A3331A70B7
:1051D0006A462B00928BA033E9791A802B000222B9
:1051E000A4331A70089B64082B6023001024013A32
:1051F0000C43134094431C43EC7111F0BFFAA860B8
:10520000E9601148FFF742FF00200BB0F0BD0F48E6
:10521000FFF780FE0028DBD0D3E74520D2E7C04669
:1052200094A30100FF80010026870100BA890100D4
:105230001D8C0100528C0100203800204805002000
:10524000980500201D390020A4380020D438002003
:1052500030B5050085B011F0AFF9134BAA8B03935D
:10526000029201900093114A114B12491248FCF727
:105270008BFA29002800492279313030FBF7E5FB11
:105280000E4CAA8B23005C331B889A420AD16034EF
:105290002378002B06D0112209490A48FBF7D5FBD9
:1052A0000023237005B030BD94A3010026870100C0
:1052B000CD890100FF8001008C940100203800207E
:1052C000923800208138002030B5837F85B00400FB
:1052D000C57F8B420ED0002D0CD1214B214A01936A
:1052E00000932149214B2248FCF74EFA2A00100076
:1052F00005B030BD0B00581E8341A377002911D0A3
:105300000022012DF3D111F057F9154B01900293B2
:105310000093184A154B14491748FCF735FA022335
:10532000E377E3E7012D03D0022D03D00A00DEE787
:10533000002ADCD011F040F9094BE27F039302927E
:1053400001900C4A00930849084B0C48FCF71CFAE2
:105350002000FFF77DFF00230122E377C7E7C04667
:1053600094A30100F8800100FF800100E58901009D
:10537000F38A010026870100368B01005E8B010055
:1053800070B5002401250D4823181A004932FF3258
:105390001288002A0BD04B33FF331A78002A0AD028
:1053A0004930FF30001908220021FBF775FB083453
:1053B000502CE8D170BD1D70F9E7C04620380020A0
:1053C000704700000122F0B5784C0F00E17987B0FA
:1053D0001140049023680591754E764D1ED0984279
:1053E0000AD0029333000190734A744974480395BC
:1053F0000095FCF7C9F90DE0002F00D198E011F0FD
:10540000DBF8330001906F4A6C496F4802950095B4
:10541000FCF7BAF90027380007B0F0BD049A9A42A9
:1054200009D111F0C9F80295019000953300654A41
:1054300062496648ECE7049A9A4204D31A00049938
:105440002A328A420AD25B4A0293049B0392019356
:10545000009233005E4A59495E48CAE704995A1CD3
:105460008A423FD23300544A5449019500955A4824
:10547000FCF78AF9502205995848FBF70DFB049B6D
:10548000236063681B0E1B0663600122E3791740EB
:1054900093433B43E371134273D0049B236011F0A9
:1054A0008BF8444B45490393226801900292009384
:1054B000444A33004A48FCF767F9FFF761FF494A5D
:1054C00049494A4811F020FC11F058F9A060E16008
:1054D000A0342288464B01279A429CD04548FFF7CA
:1054E000D5FD98E704998A420AD1002F20D1019571
:1054F00000953300304A31493F48FCF745F98AE7C7
:10550000002F0BD111F058F802950190009533004F
:105510002C4A2A493948FCF737F97CE70293049B67
:105520000395019300953300234A2449344860E7EA
:1055300011F024F9A268E368801A994100290CDC73
:1055400002D1304B984208D80195009533001A4A91
:105550001A492D48FCF718F95CE7002F95D101F0A6
:105560000BFC002891D0134B134A0193009313496D
:1055700033002648FCF708F90823E2791343E37166
:1055800049E711F019F80B4B0190029300930D4A73
:1055900033000A491E48FCF7F7F8636812481B0EEF
:1055A0001B06636011F05EFB8EE7C04620380020CA
:1055B000F789010094A30100F8800100FF80010039
:1055C000FA8E0100268701002E8F01006A8F0100EC
:1055D0008A8101009C8F0100D38F0100683900206F
:1055E0000991010000CCBF19443800206813002045
:1055F000FFFF0000A438002000900100329001005D
:105600005F900100FF6F991498900100CA9001000B
:10561000489101001FB510F0CFFF0A4B0A4A0293D0
:105620000190009309490A4B0A48FCF7ADF80120A4
:10563000FFF704FB084B00211868FFF7C3FE05B015
:1056400000BDC04694A3010026870100FF80010031
:10565000B88A01004095010020380020F0B50E0006
:1056600014008BB00993069010F0A6FF4F4F504ADC
:105670000597B38903940493069B4E499B8B019035
:10568000029300974C4B4D48FCF77EF84923634347
:105690004B4C069A0793E1795933D3180893C907FD
:1056A0002368C90F591A089AB06802F0F7FC051E62
:1056B0000BD00190404B434A3E4943480297009724
:1056C000FCF762F828000BB0F0BD079B069A413347
:1056D000D31807933300E27908330693D20723687F
:1056E000D20F9A1A06990300079802F039FD051E99
:1056F00007D00190029700972F4B324A2D4933482B
:10570000DEE7A379B26893706368B2681B021B0C72
:10571000D370636819020A0A0131FF311B0E090AAE
:105720001B060B436360B36806991A71E27923681C
:10573000D207D20F9A1A0300079802F0DBFC051E6D
:1057400007D00190029700971B4B1E4A1949204829
:10575000B6E7E1792368C907C90F591A089AB068F2
:1057600002F09CFC051E07D0019002970097124B97
:10577000144A10491748A3E730000126109A0999E6
:10578000FFF76EF8E37933429CD16368124A1B023B
:105790001B0A934200D895E73000FFF74FFA2068C4
:1057A00031008019FFF70EFE8CE7C04694A301007C
:1057B00026870100FF8001000D8A0100B0930100DF
:1057C000203800208A810100E69301001294010034
:1057D0003A9401006294010000127A00F0B5436827
:1057E0008DB00B925B88524A09939B185A425341E1
:1057F000DBB20A93099B05001A004E4B0E004E4F78
:105800004E4C9A4210D1080010F067FB07280BD8C5
:105810003B004B4A4B494C4801940094FBF7B4FFC2
:10582000162040420DB0F0BD300010F056FB0328AA
:1058300006D8019400943B00414A42494348EDE7B1
:1058400010F0BAFE3D4A424C069263683D491B0285
:105850001B0A05930A9B04936B689B8803932B890F
:105860000190029300923B003A4A3B48FBF78CFFC1
:105870006B683000998810F0D6FA2989300010F052
:10588000D2FA0321300010F0C6FAA37903706368DE
:105890001B021B0C4370636819020A0A0131FF31B5
:1058A0001B0E090A1B060B4363608270099A6B6822
:1058B0001100204A914238D1D97980231943300010
:1058C00010F0C4FA0122EB7A2F689343EB7249255A
:1058D000BA7FE17955432B004133FB180993C9077F
:1058E0002368C90F591A7B1940331B78C901194322
:1058F000C9B2300010F0AAFAE2792368D207D20FB9
:105900009A1A31000B9B099802F0F4FB002800D092
:1059100088E72A00E1792368C9075932C90FBA1804
:10592000591A306802F0BAFB7CE7D979C7E7C0465C
:105930000100FFFFFFFF0000328A010094A3010075
:105940008A810100FF8001005B8E01008E8E0100C4
:105950002038002026870100BD8E0100F0B504002C
:1059600091B00F0016000A9310F026FE23890F90C5
:105970000B9363689B880C93BB890D933B000833A2
:105980001800099310F0A5FA0E90099810F0A5FAE6
:105990000E9B434D05930D9B424A04930C9B424939
:1059A00003930B9B079502930F9B06900193009521
:1059B0003E4B3F48FBF7E8FE10F0FEFD0C90BB8924
:1059C000B86819000B93FDF72DFB0B9B354A02932A
:1059D0000C9B35490495039001930095334B354852
:1059E000FBF7D2FE10F0E8FD334B03955B682D4AC0
:1059F0001B021B0A0293019000952C4B2A492F4849
:105A0000FBF7C2FE6568EB79FF2B02D106F07AFC4A
:105A1000E871002209992000FFF7E0FE051E20D161
:105A20006368988802F014FF002820D0002E2ED141
:105A3000380010F097F90100214810F009F9002E04
:105A400005D07368002B02D00A99002098470121E5
:105A50001C4811F0D3FAC30703D41B491B4810F0AC
:105A6000B4FB380010F04CF9280011B0F0BD6368A9
:105A7000988802F0C3FE0028D8D16368DB79012B37
:105A8000EFD00A9A31003800FEF7EAFEE9E7336802
:105A9000002BCDD000210A9A08009847C8E7C046DD
:105AA00094A3010026870100FF800100458A0100C0
:105AB000AC940100F89401002038002020950100EA
:105AC0003C3800203838002030380020681300208F
:105AD000F7B51C00144B1700A0331A88134B0500B0
