:1000000068290020D1270000092800007D26000073
:100010007D2600007D2600007D2600007D26000054
:100020007D2600007D2600007D260000C5240000FE
:100030007D2600007D260000652400007D2600004E
:100040009527000003420100952700009527000036
:1000500095270000952700009527000095270000B0
:1000600095270000952700009527000095270000A0
:100070009527000095270000952700009527000090
:100080009527000095270000952700009527000080
:100090009527000095270000952700009527000070
:1000A000952700009527000000000000151E0000A5
:1000B00000000000F125000000000000F125000014
:1000C00000000000F125000000000000F125000004
:1000D00000000000F125000000000000115A01009E
:1000E00000000000F125000000000000F1250000E4
:1000F00000000000F125000000000000F1250000D4
:1001000000000000C941010000000000F1250000CE
:100110001C3B0020DD61010000000000F125000013
:1001200000000000F125000000000000F1250000A3
:1001300000000000B522000000000000F1250000D2
:1001400000000000F125000000000000F125000083
:1001500000000000F125000000000000F125000073
:1001600000000000F125000000000000F94101003E
:1001700000000000F125000002B471464908490062
:10018000095649008E4402BC7047C04602B471460D
:1001900049084900095C49008E4402BC7047C046CA
:1001A00003B47146490840004900095E49008E4485
:1001B00003BC704703B47146490840004900095A1E
:1001C00049008E4403BC7047002243088B4274D31D
:1001D00003098B425FD3030A8B4244D3030B8B4248
:1001E00028D3030C8B420DD3FF22090212BA030C51
:1001F0008B4202D31212090265D0030B8B4219D332
:1002000000E0090AC30B8B4201D3CB03C01A524151
:10021000830B8B4201D38B03C01A5241430B8B4299
:1002200001D34B03C01A5241030B8B4201D30B0382
:10023000C01A5241C30A8B4201D3CB02C01A5241A9
:10024000830A8B4201D38B02C01A5241430A8B426C
:1002500001D34B02C01A5241030A8B4201D30B0255
:10026000C01A5241CDD2C3098B4201D3CB01C01A6F
:10027000524183098B4201D38B01C01A5241430979
:100280008B4201D34B01C01A524103098B4201D367
:100290000B01C01A5241C3088B4201D3CB00C01AD4
:1002A000524183088B4201D38B00C01A524143084C
:1002B0008B4201D34B00C01A5241411A00D2014671
:1002C000524110467047FFE701B5002000F0F0F8FA
:1002D00002BDC0460029F7D076E7704703460B43BE
:1002E0007FD4002243088B4274D303098B425FD32F
:1002F000030A8B4244D3030B8B4228D3030C8B425B
:100300000DD3FF22090212BA030C8B4202D3121240
:10031000090265D0030B8B4219D300E0090AC30B15
:100320008B4201D3CB03C01A5241830B8B4201D3C2
:100330008B03C01A5241430B8B4201D34B03C01AAB
:100340005241030B8B4201D30B03C01A5241C30A23
:100350008B4201D3CB02C01A5241830A8B4201D394
:100360008B02C01A5241430A8B4201D34B02C01A7E
:100370005241030A8B4201D30B02C01A5241CDD223
:10038000C3098B4201D3CB01C01A524183098B426E
:1003900001D38B01C01A524143098B4201D34B0157
:1003A000C01A524103098B4201D30B01C01A5241BA
:1003B000C3088B4201D3CB00C01A524183088B4241
:1003C00001D38B00C01A524143088B4201D34B002A
:1003D000C01A5241411A00D201465241104670479C
:1003E0005DE0CA0F00D04942031000D340425340A1
:1003F00000229C4603098B422DD3030A8B4212D361
:10040000FC22890112BA030A8B420CD38901921192
:100410008B4208D3890192118B4204D389013AD0CF
:10042000921100E08909C3098B4201D3CB01C01AA4
:10043000524183098B4201D38B01C01A52414309B7
:100440008B4201D34B01C01A524103098B4201D3A5
:100450000B01C01A5241C3088B4201D3CB00C01A12
:10046000524183088B4201D38B00C01A5241D9D22A
:1004700043088B4201D34B00C01A5241411A00D2AB
:100480000146634652415B10104601D34042002BA7
:1004900000D54942704763465B1000D3404201B526
:1004A000002000F005F802BD0029F8D016E77047DB
:1004B0007047C0469140031C90409C46203A9340B0
:1004C000194352426346D340194370471C2101230C
:1004D0001B04984201D3000C10391B0A984201D327
:1004E000000A08391B09984201D30009043902A205
:1004F000105C40187047C04604030202010101016C
:100500000000000000000000002B15D1002A13D1CC
:10051000002906DB01DC002806D00020C04341088A
:1005200002E080210906002007B4024801A140181A
:10053000029003BD7DFFFFFF03B4684601B502983A
:1005400000F036F9019B9E4602B00CBC7047C046D5
:10055000002B11D1002A0FD1002900D1002802D090
:100560000021C943081C07B4024802A140180290A8
:1005700003BDC0463DFFFFFF03B4684601B50298C6
:1005800000F054F8019B9E4602B00CBC7047C04678
:10059000F0B5CE46474615042D0C2E0080B5070455
:1005A000140C3F0C9946030C7E435D436743634341
:1005B0007F19340CE4199C46A54203D980235B02C1
:1005C0009846C4444B4643435143250C3604654486
:1005D000360C2404A4195B19591820000CBC904651
:1005E0009946F0BD10B50023002802D000F008F9AC
:1005F000431C180010BDC046094A43081340C01AE6
:100600000300084A8008104013401B181809C0183E
:10061000054B03401802C0180304C018000E7047B1
:1006200055555555333333330F0F0F0FF0B54F4634
:100630004646D646C0B5040082B00D0091469846A5
:100640008B422FD82CD04146484600F0CDF82900E7
:100650000600200000F0C8F8331A9C46203B9A465A
:1006600000D576E04B46524693401F004B4662460B
:1006700093401E00AF4228D825D05346A41BBD414D
:10068000002B00DA7BE0002200230092019301237B
:10069000524693400193012362469340009318E031
:1006A0008242D0D900220023009201930A9B002BA2
:1006B00001D01C605D600098019902B01CBC90469E
:1006C0009946A246F0BDA342D7D90022002300924A
:1006D00001936346002BE9D0FB0798464146720818
:1006E0000A437B0866460EE0AB4201D1A2420CD819
:1006F000A41A9D41012024196D410021013E2418B6
:100700004D41002E06D0AB42EED9013E24196D4179
:10071000002EF8D100980199534600196941002B29
:1007200023DB2B005246D3402A006446E2401C00E3
:1007300053461500002B2DDB26005746BE403300E4
:1007400026006746BE403200801A99410090019110
:10075000ACE7624620239B1A4A46DA406146130002
:1007600042468A4017001F4380E7624620239B1AB7
:100770002A0066469A402300F3401343D4E76246BA
:10078000202300219B1A0022009101920122DA40CD
:10079000019280E72023624626009B1ADE402F004C
:1007A000B0466646B74046463B003343C8E7C046BE
:1007B000F0B583B016001F000090019100F040F8E2
:1007C00004000D0002000B0030003900FFF7E0FECE
:1007D000009A019B121A8B41089920000A604B6015
:1007E000290003B0F0BDC04610B5002903D1FFF7C2
:1007F0006DFE203002E0081CFFF768FE10BDC04609
:10080000414208401C2101231B04984201D3000CE3
:1008100010391B0A984201D3000A08391B09984273
:1008200001D30009043902A2105C401A7047C04687
:100830001B1C1D1D1E1E1E1E1F1F1F1F1F1F1F1FD7
:10084000F0B54E465746DE464546E0B50F0000215E
:1008500083B006008946002F06DA39000027464299
:100860008F41012149428946002B07DA4946C94395
:10087000100089461900002342428B4134003D009C
:1008800092469846BB4269D866D041465046FFF72B
:10089000ABFF834639003000FFF7A6FF5B461B1A0B
:1008A0009C46203B9B4600D575E05146584681400A
:1008B0000B005146604681400A00BB4261D85ED0C1
:1008C00034003D005946A41A9D41002900DA7AE01F
:1008D0000021002001260090019159468E4001968A
:1008E000614601268E4061460096002950D0D90706
:1008F00056085F080E4363460EE0AF4201D1A642A0
:100900000CD8A41BBD41012124196D410022013BDB
:1009100064185541002B06D0AF42EED9013B241993
:100920006D41002BF8D1009801995B46001969418F
:10093000002B3DDB2E00DE4063462C00DC405B4696
:10094000002B4BDB34005D46AC4023006446A640E0
:100950003200801A994103E0B24296D9002000216A
:100960004B46002B04D003000C0000215842A1414B
:1009700003B03CBC90469946A246AB46F0BDB1429E
:100980009ED9002100200090019161460029AED13E
:1009900000980199E4E72023624651469B1AD9400A
:1009A0004046009161468840030000990B4380E770
:1009B000624620239B1A2A009A40260013006246B2
:1009C000D6401E43B8E7614620260127761A00204C
:1009D0000021F74000900191019781E767462023AD
:1009E00062463500BC409B1ADD4023002B43ADE737
:1009F00003000A781A70002A00D1704701330131D0
:100A0000F7E7020003001978981A002900D170470F
:100A10000133F8E703780A78934202D1002B02D120
:100A20001A00981A704701300131F3E7002330B5FE
:100A30009A4208D0013AC55CCC5C9A4202D001339C
:100A4000A542F8D02B1B180030BD70B50600032559
:100A50004E4003000C002E420AD00024A24217D1BF
:100A600070BD002AFCD02178013A1970013401339D
:100A700019002940F5D1551A032D05D89108890090
:100A8000521A5B186118E8E765585D500431F2E7C7
:100A90000D5D1D550134E1E770B503000326CDB2AD
:100AA0001C0033420ED1C9B20E0231430E04314351
:100AB0001600032E0CD893089B00E318A21893424B
:100AC00009D170BD002AFCD01D70013A0133E7E75F
:100AD00002C3043EEDE71D700133F0E770B514006A
:100AE000104800F09BFD2000257914F00AFE01B2A9
:100AF0000D4800F093FD032D0FD9200014F001FEE6
:100B000001B20A4800F08AFD042D07D0200014F03D
:100B1000F0FD0100064800F081FD70BD054800F0C1
:100B20007DFDFAE7DC7B0100F27B0100047C010023
:100B3000157C0100287C010037B5011E32480AD11E
:100B4000324800F06BFD3249324803F061F9041E6F
:100B500004D00100304800F061FD37BD2F4800F09F
:100B60005DFD2F4B210001930223220000932D48AD
:100B7000230003F0C3F8011E1BD02B4800F04EFDEC
:100B800000242A4B2A481C7000F048FD294B019490
:100B9000009322002300200002210CF09BFC041E85
:100BA0000BD00100244800F039FD244800F036FD48
:100BB000D3E7234800F032FDE2E70225214800F0A8
:100BC0002DFD01942300200000952A0029000CF03F
:100BD000EBFC041E02D001001B48E4E71B4800F0B8
:100BE0001DFD1B4B29000093019423002A002000C7
:100BF0000CF0DAFC011E1748D5D1174800F00EFDA5
:100C0000164800F00BFDD0E7697901008C790100EE
:100C1000687B0100E47C0100A6790100C77901002E
:100C2000A27B0100D17C0100DC790100840000205E
:100C3000127A010059790100277A0100167B010020
:100C4000FA790100457A0100537A0100827A0100A5
:100C500003100000A77A0100D57A0100F97A01009B
:100C600010B501210400083016F094FCC30703D42A
:100C70002100024815F03DFD10BDC046C012002005
:100C800010B50248FFF7ECFF10BDC0460000002081
:100C900010B50248FFF7E4FF10BDC0460C0000206D
:100CA000F0B58FB005AC029003920D000A2200212E
:100CB00020001F00FFF7F0FE274BA380FF23637285
:100CC0006B461E8908AB0B93002D2FD0B022390044
:100CD00012030BA80C920D9307F01EFB31000BA81A
:100CE00014F0ADFC1D4B0BA8197814F0A0FC2900E2
:100CF0000BA814F09CFC03990BA814F098FC00239B
:100D0000174800930BAA2100543007F02DFB002850
:100D100002D0144800F082FC104A0299137812485D
:100D20000133137000F07AFC0FB0F0BD902239004F
:100D300012030BA80C920D9307F0EEFA31000BA8EA
:100D400014F07DFC054B0BA8197814F070FC0448D6
:100D500000952B00D6E7C04600C0FFFF84000020AE
:100D6000A0350020507C0100857C010010B50548AD
:100D700000F054FC044BC82219210448FFF790FFEF
:100D800010BDC046397B01000B820000FF7F0000D0
:100D900010B5054800F042FC044BC8221921002080
:100DA000FFF77EFF10BDC0464F7B01000C820000A4
:100DB00070B5234800F032FC224815F07FFA041E7B
:100DC00003D1214800F02AFC70BD00251F4B204AAA
:100DD0001D605A609D60436829001E6811223223FD
:100DE000B0471C491C4B01224B6080239B028B6047
:100DF00063682000DB689847636829001B6911223B
:100E000020009847154B164A1D605A609D60636824
:100E100029001E681A2232232000B0471149124BC4
:100E200001224B608023DB048B6063682000DB6859
:100E3000984763681A221B69290020009847C3E776
:100E4000787B0100947B01009B7B01000000002067
:100E50006D0D00003C000020810C00000C00002003
:100E6000910D000048000020910C000010B50748CB
:100E700000F0D4FBFFF79CFF054802F0E9FC011EDF
:100E800002D0044800F0CAFB10BDC046AB7C010094
:100E9000390B0000B37C010030B5EFF3108072B65F
:100EA0001D490B68DBB2012B0FD11C4B1B681B07C4
:100EB0000BD11B4BE0251A68F02314001C402A427A
:100EC0001FD1184A12681A421ED00B68DBB2012BE0
:100ED00012D1124A126812070ED1F021104A12687C
:100EE0000A40402A08D10F4A12680A4204D18021E0
:100EF000C122C905D2008B50002800D162B6002063
:100F000030BD302CDDD0E0E7074B084A1A60802264
:100F1000074B12021A60D8E7E00F00F0E40F00F070
:100F2000E80F00F0EC0F00F004050040DFFF07C001
:100F3000186C004010B50400080011001A00A0470A
:100F400015F0A2FE01F004FC30B50C244C43C5683A
:100F5000C07A2C1988420ADB21001F20D4170440D4
:100F6000A4186411A40009191040196030BD21684B
:100F7000F3E707B501ABFFF7E7FF01238340019AD1
:100F800011680B43136007BD07B501ABFFF7DCFF2A
:100F900001238340019A11689943116007BDF7B599
:100FA00004000026038945686B430093009A036898
:100FB0009F18837A0193019BB34204DC00252389A7
:100FC000AB421ADCF7BD29000098FFF7FDF80C23AF
:100FD0007343E268D3181A1D5A609A601F2806DC12
:100FE000E6720323AD0803359D430136E3E71F3066
:100FF000400980001F603F18F3E7636822686B4375
:10100000D318E2682000111D196091685960916839
:101010000B60936000212A00FFF7ABFF0135CEE79C
:10102000F0B58BB000AF7A606A463B603962867A71
:101030000400B3000A33DB08DB00D31A9D467B6251
:10104000436803206A46033383430125136000236A
:10105000043A6D42F861591EB9619E420BDD002BC6
:1010600005D01068F96980080330884350605168E2
:10107000386A814208D2BB69013311D100230C20A8
:101080003A6C1360404244E00C205843E168081871
:10109000011D4068884200D01D0001330432DAE7A8
:1010A0006B1CEBD0AB003B627B6AAA00D1580C23CF
:1010B0006B437B617A69E3689B185E6804339E42E8
:1010C00064D0736832681A60326853602368F01A1B
:1010D000FFF704F9290002002000FFF755FF7A6AA4
:1010E0006B1C9446FB603B6A63443B612368BA69AE
:1010F000F01AFB68013B9A420EDC7B681A60930091
:101100007A6A9958FFF7EAF83B68186000203B6C50
:101110001E60BD460BB0F0BD3B691968FFF7DEF8F5
:101120008300BB607B690C337B610123FB613B69FE
:10113000BA685D68FB69F9686B43F3183B62FB6949
:1011400020009A18FFF715FF3B6A013D5D192368DF
:101150006268ED1A238953439D420CD2E3687A6991
:10116000396A9B181A1D0A600A00996851609A68CA
:10117000396A11609960FB690133FB61042BD6D198
:10118000FB680133FB603B690433AEE70B2079E772
:10119000F0B589B0837A050068469B000A33DB0806
:1011A000DB00C31A00AF9D46032468460126BB60DE
:1011B0006B680333A3430360B14251D214007961D9
:1011C0007B69BA689B00D3587969220028003B618B
:1011D0002E68FFF7CEFE7B69002B49D01C2322002E
:1011E000FB1879692800FFF7AFFE03220300C01740
:1011F0001040C018FB6980101B688000C3400F219D
:101200000B408B4234D10023FB60230093437B606F
:10121000FA687B6879699E1832002800FFF7B4FEEF
:10122000B4420FD03B6969685E435A1E2B689B1914
:10123000B6182A894A43964204D25A68196811603E
:101240001B685A60FB680133FB60042BE0D17B69AB
:10125000E217013B7B6103231A401419A410AFE786
:10126000036801369B080333A34343600430A3E7BC
:101270003B692A685C43013B3619F3189B1A69687D
:101280002A894A4393420BD20C237A69E968534373
:10129000C9180B1D33608B6873608B681E608E608D
:1012A000BD4609B0F0BD0020704700000B6810B5C6
:1012B00001330B60014B1B68984710BD10360020AE
:1012C000F0B587B003930C9B0700029114000193C3
:1012D000002B01DC0123019320230593039B012BA9
:1012E00001D12F3305930A230093002301261F4DBC
:1012F0000493049B002B01D1A54226D2691C200037
:10130000FEF762FF02993030B8470123013604939B
:10131000009B691C013B20000093FEF7DBFF2800C7
:101320000C000A21FEF750FF009B0500012BE0D1C5
:10133000200002993030B847039B032B03D1019B57
:101340009C1B002C0DDC07B0F0BD019B009A934262
:10135000DEDB039B022BDBD802990598B8470136E8
:10136000D6E702992020B847013CEAE7FFC99A3B3B
:101370008A680B6830B5551C002B02D04C6894422B
:1013800001DC8D6030BD013C9B188D60944202D120
:1013900000221A70F6E71870F4E70000014B18609D
:1013A0007047C04610360020F0B51C0000238DB0F9
:1013B0000593013B0393002307001E00029107924F
:1013C0000493079B1878002801D10DB0F0BD002EC2
:1013D00008D1252800D107E10299B847079B0133BE
:1013E0000793EEE764285DD018D839280AD8312849
:1013F0004CD22D2839D030283AD0252808D102994E
:10140000B84765E0582800D187E0632800D1E6E0BE
:1014100002992520B847079B1878F0E7702872D00A
:1014200006D869283ED06C2838D06828F0D1D5E796
:10143000752857D014D87328EAD12668251D3400A2
:101440002078002800D0C1E0049B032B00D0D4E01A
:10145000039BA41B1C1B002C00DDBBE02C0037E011
:1014600078285AD07A28B9D0D2E703230493B5E775
:10147000039B002B0DDA049B002B00D1BBE0049BE7
:1014800030380390002BA9D10233EFE7039B002BE8
:10149000F5DB0A23039A53431818F0E7059B013341
:1014A00005939BE7059B012B14DC25680434002D74
:1014B00006DA02992D20B847039B6D42013B039346
:1014C0002A00039B0093049B02993800FFF7F8FE63
:1014D000002683E707342300072293431C001D687E
:1014E0000834E4E7059B012B05DC22680434039BE8
:1014F0000093049BE8E707342300072293431C0072
:101500001A680834F3E702993020B8470299782026
:10151000B84708230393073B0493059B012B16DC74
:1015200023680434099308230693002308250893AD
:101530000B93013D0998AB00D8400F23184012D1FE
:101540000B9B002B01D1002D2CD130230FE0073451
:101550002300072293431C001B6808340993E2E729
:101560000A9B0693E5E75723092800D8273BC018B4
:101570000299B847089B0B9601330893069B0A9380
:10158000002DEDD1049B2E00032B00D026E7039BFA
:101590005D00089BED1A002D9ADD02992020B847C6
:1015A000013DF8E7069B069A013B0A93039B934291
:1015B000E6DB049B012B03D130200299B847DFE71B
:1015C000049B022BDCD102992020F7E70299013419
:1015D000B84735E702992020B847013C3BE702991C
:1015E0002068251DB84739E701235B42059604961C
:1015F00003930126F2E6012338E72C000600EDE60E
:1016000007B50B00002102000191034801A9FFF773
:10161000CBFE01980EBDC046AD1200000FB407B559
:1016200004A901C90191FFF7EBFF03B008BC04B0A6
:10163000184700000CB430B5002585B008AB04CBCA
:1016400001900291040001A9074800930395FFF758
:10165000ABFE0398029B984200DA255405B030BCDB
:1016600008BC02B01847C04671130000704770B53F
:101670000D001C001100AB4204D81A00FFF7E5F979
:10168000200070BD0024FBE710B5FFF705FA10BD80
:101690001B23C209534340005840C0B270470B6837
:1016A00002781B0E534003700B6842781B0C5340AA
:1016B00043700B6882781B0A534083700A68C378B2
:1016C0005340C3704B6802791B0E534003714B6843
:1016D00042791B0C534043714B6882791B0A53407B
:1016E00083714A68C3795340C3718B68027A1B0EB9
:1016F000534003728B68427A1B0C534043728B68D1
:10170000827A1B0A534083728A68C37A5340C37239
:10171000CB68027B1B0E53400373CB68427B1B0CD0
:1017200053404373CB68827B1B0A53408373CB685F
:10173000C27B5340C37370471FB56A46037813706A
:1017400043795370837A9370C37BD3700379137199
:10175000437A5371837B9371C378D371037A137285
:10176000437B537283789372C379D372037B137371
:101770004378537383799373C37AD3731023190017
:10178000FFF775FF05B000BDF8B5060008780C003E
:10179000FFF77EFF05006078FFF77AFFA278637895
:1017A0005340E27853406B4058403070607827785F
:1017B000FFF76EFF0500A078FFF76AFFA378E278D5
:1017C0007B4053406B4058407070607825784540AE
:1017D000A078FFF75DFF0700E078FFF759FFE37897
:1017E0005D406F407840B0702078FFF751FF63781C
:1017F00025785D40A3785D404540E078FFF748FFDD
:10180000EDB24540F570F8BDF0B58DB001AC2200E9
:10181000244BE0CBE0C2E0CBE0C2E0CBE0C260CB47
:1018200060C2031E3AD00B1E38D00D0002001035E6
:101830000B784E781B0636043343CE7833438E78CC
:1018400004313602334308C28D42F1D118230422F9
:101850009C46FF27144E0321C3680A4216D16146F5
:10186000CB41190E755C19003940715C2D060D4392
:10187000190C39401B0A715C3B40F35C0904294395
:101880001B020B439108890061584B4001680132EB
:101890004B40036104302C2ADDD1012318000DB028
:1018A000F0BDC046D4780100187D0100F0B50600F7
:1018B0008BB0140000285CD0081E5AD00020824251
:1018C00057D010230A0002A81900FFF7D0FE21000C
:1018D00002A8FFF7E4FE230025001027A0331035EF
:1018E00001930023244A02A9595C02A8515C1954AF
:1018F0000133102BF7D1FFF71FFF02A906A8FFF74E
:1019000043FF03A907A8FFF73FFF04A908A8FFF7B3
:101910003BFF05A909A8FFF737FF3B0006AA3900DE
:1019200002A8FFF7A4FE290002A8FFF7B8FE019B5A
:101930001035AB42D5D100250F4A02ABEB5C02A9B2
:10194000D35C6B540135102DF7D10800FFF7F4FE7E
:10195000210002A8A031FFF7A2FE2B0002AA290055
:101960003000FFF784FE02A82A000021FFF78CFE5A
:1019700001200BB0F0BDC046187D01000B7810B5FA
:1019800087227F2B00D800220F23CC5C64006240AA
:10199000C254002B03D0CA5C013BD209F5E710BD4D
:1019A000002110B5884203D05822FFF76DFE0121B7
:1019B000080010BD70B500240500A04210D0210021
:1019C0001022FFF761FE2800102221003030FFF7BF
:1019D0005BFE802300225B022A656B656C64013428
:1019E000200070BDF8B504000F001600051E24D0BD
:1019F0000025A94221D058222900FFF745FE3900D1
:101A0000A6643000FFF700FF290025001022200007
:101A1000FFF73AFE1035A26C21002000FFF746FFC9
:101A200028002100FFF7AAFF200029002030FFF73F
:101A3000A5FF2000FFF7BEFF01252800F8BDF7B580
:101A400004000E001500071E26D0002A01D1012730
:101A500022E00F1E20D0026D436D002711001943B4
:101A6000B94219D001204042C11712184B41606C95
:101A700022656365B8422BD010231B1A30300193C6
:101A800020189D420AD22B0029003200FFF7EFFDFB
:101A9000636C01375D1965643800FEBD019B32003F
:101AA0001900FFF7E4FD019B2100ED1AF618230051
:101AB000676410311A0030321878127842401A7078
:101AC00001338B42F6D1A26C21002000FFF7EEFE1D
:101AD0002F007219D21B102F09D8002FB7D0200069
:101AE0003B0030303900FFF7C2FD6764AFE70023E9
:101AF000E15CD05C4140E1540133102BF8D1A26C81
:101B000021002000FFF7D2FE103FE2E770B505008C
:101B10000C0000281BD0081E19D0486C102817D1C3
:101B20000800103000231E00E25CC15C30365140DA
:101B3000A25D4A40E2540133102BF4D1A26C210083
:101B40002800FFF7B3FE2000FFF72AFF012070BD39
:101B50001022121A303008180021FFF795FD80225C
:101B60002000636C2030E31830331A70DAE700008D
:101B700037B50D4D280015F001FD041E07D10B48A7
:101B800014F09CFB04000100280015F0F9FC6368C8
:101B900004221B6801A920009847002802DA00F0FF
:101BA00001FC019001983EBD88000020187E0100D4
:101BB00070B50400074D0A2804D128680D21436838
:101BC0005B6898472868E1B243685B6898472000E3
:101BD00070BDC0468C00002010B50248FFF7DEFB48
:101BE00010BDC046B11B000010B5044814F066FBE0
:101BF000034B1860FFF7F0FF002010BD227E0100AC
:101C00008C00002010B5EFF3108272B615490B78E6
:101C1000002B05D1002A00D162B64520404213E0D6
:101C2000013BDBB20B70002B04D0002A00D162B65E
:101C30001020F3E70C4B01201C78002C05D0087015
:101C4000002A0DD162B60C3810BD1870002A00D1E0
:101C500062B6802201210020D20551601870F3E79E
:101C60000B20DBE79200002091000020002210B53D
:101C70001000012100F092FC002000F065FC002023
:101C800010BD000070B5EFF3108372B6274A1078CC
:101C9000441C147000280BD0002B00D162B68022A7
:101CA000234BD205D3580020DB0300D4443870BD49
:101CB000204E3478002C06D01070002B00D162B674
:101CC0000B204042F3E701223270002B00D162B6B4
:101CD0008024194DE405002924D0002000F040FCA8
:101CE0000023C1226B6092000133A158A3502360EE
:101CF0006B68002B12D000236B600133194202D1B4
:101D0000C2229200A350C02301210C4A5B00D15093
:101D1000002000F019FC00233370C0E720BF40BF53
:101D200020BFE5E7012369602360F4E7920000200B
:101D30000C04000091000020FC00004000E100E0E5
:101D4000F8B507000D00EFF3108372B62D4A117835
:101D500000290CD0002B00D162B680228323D2054B
:101D6000DB00D3580020DB0300D44438F8BD012148
:101D70001170002B00D162B6002000F0F1FB0022B0
:101D8000214C8023A260C1220220DB0592009958D9
:101D90009850A322D2009D5001229A60A268002A86
:101DA0002CD00022A2600232114202D1C22189004D
:101DB0005A50C0230126154A5B00D650002000F07F
:101DC000C3FB8023C22218209200DB059850032118
:101DD00000222940226162619142BED1A7221024D3
:101DE000D2009C50C122920098509E503800FFF7BC
:101DF00049FF0028B1D1064B5E60AEE720BF40BF6F
:101E000020BFCBE790000020FC00004000E100E094
:101E1000FCE100E0F7B5244C8023E268DB05944642
:101E2000C1229200995801220A40204905005E58BB
:101E300000926768A0682169626901926246002A7F
:101E400001D00022E260002F01D000276760009AD5
:101E5000002A06D0F20304D5C2260122B6009A5108
:101E60001A61002801D00023A360002908D00021B6
:101E700028002161FFF7C6FE80230122DB055A619D
:101E8000019B002B0ED000218022C123616101241F
:101E9000D2059B00D4502800FFF7F4FE002801D1A2
:101EA000034B5C60F7BDC046FC0000400C04000022
:101EB000FCE100E010B50400043015F00AFB22003C
:101EC000002339326365013A5370137007223A34A4
:101ED00023789343237010BDF7B5020004008C46AD
:101EE000002301263C32092700215F4311600D00C9
:101EF0001D49C919019167460199485D0109795C3D
:101F00000007000FC140314206D03000291D884033
:101F100001001068014311600135092DEBD11068F3
:101F200012493500814318000D30854001332943A3
:101F300002C2032BD7D1230000223B331A70236D3A
:101F400001330AD101225242D317A264E364201D57
:101F50000422002115F09FFAF7BD14F0F9FE226D5E
:101F6000D31712184B41F0E75A7E0100F01F000012
:101F700010B543680A001C6800210123A04710BD6A
:101F800010B51B4814F09AF91A4C0D212060FFF788
:101F9000EFFF0E212068FFF7EBFF0F212068FFF70E
:101FA000E7FF04212068FFF7E3FF05212068FFF722
:101FB000DFFF06212068FFF7DBFF07212068FFF71E
:101FC000D7FF08212068FFF7D3FF09212068FFF71A
:101FD000CFFF0A212068FFF7CBFF0B212068FFF716
:101FE000C7FF0C212068FFF7C3FF002010BDC046CB
:101FF000947B01001836002003003A331978020060
:102000004B0702D00A480B070DD4536D39321278B2
:10201000890609D59B5C0648203BDAB25E2A02D8C5
:10202000052253431818704705205043FAE7C0466D
:10203000757E0100043810B5006800224368012154
:102040005C68014BA04710BDF01F0000F0B5040014
:1020500026003736051F337828680E3342689B0008
:10206000EB18576887B05B6800220121B8473078C9
:1020700003210130FEF718FA0F1E317000D097E0EF
:10208000AB6C013303D1EB6C013300D190E014F061
:102090005FFEEB6C8B4205DB00D089E0AB6C8342CA
:1020A00000D385E0210036310A78530700D19CE047
:1020B0005306DB0F053301931000082318400090EE
:1020C00001985607760F864258DA18331A40039261
:1020D0002800FFF791FF039B0290211F002B20D0C7
:1020E000009B4A6D002B09D012784D4B203AD1B29B
:1020F0005E291AD805214A439B1816E02300353380
:102100001978535C9C466046454B00280DD0521808
:102110005278203AD1B25E2907D805235343404A6A
:10212000EAE7009B002B1AD04B6D019ADB5D921BF6
:102130009340029AD25D3241134304AABB54013743
:10214000052FC5D107223634237801361640934334
:102150001E43267004A92800FFF7BEFE28E02300D6
:1021600035331A78013B1B78013B9C462C4B62456A
:10217000DBDA052301325A434B6DBDE72000009E98
:102180003530002E16D09A430A70220020233632B2
:1021900016780778334011D06B6DDB5D5C4263418C
:1021A000DBB2002B15D0F3060DD42800FFF782FE1A
:1021B00007B0F0BD037801330370E6E734342478C8
:1021C000A7425B41ECE70023037010780833034318
:1021D000137007220B7893431A00012313430B70EB
:1021E0002800FFF709FF0100B5E721002023353162
:1021F000087813400130C0B20870002B0AD06B6D14
:102200001B5C58424341DBB2002BE9D0D306CCD54E
:102210000023E4E734342478A0425B41F3E7C0466E
:10222000757E0100A822084BD2009850074A9B589F
:10223000C01A0002000A064B0238984203D98022D5
:10224000044B92025A6070470010014004050000E0
:10225000FDFF7F00FCE100E070B5114A114B124C0C
:10226000D0582568401B0002000A822812D9832119
:10227000FDF7AAFF0D4B1A68824200D902008323A2
:1022800053435B191B021B0A2360094B10001A60A1
:1022900014F066FD20688330FFF7C4FF70BDC046B0
:1022A0000010014004050000980000209400002068
:1022B000D83A0020002210B5024B5A64FFF7CCFF39
:1022C00010BDC046FC100140074A10B50300904203
:1022D00000D913008320054A58431360044B1B6840
:1022E000C018FFF79FFF10BD23FA000094000020E4
:1022F000980000200022074B10B580215A64C023AB
:10230000054A5B008902D150FFF7A6FF0122034B6B
:102310001A6010BDFC10014000E100E094000020B4
:1023200070B51A4813F0CAFF00282BD000240126EC
:10233000436800211B689847154B83221C60154B8E
:10234000154D1E60A123DB00EC503833EA5080238A
:10235000D1225B029200AB50403AAB500F4B802130
:102360005C64C0230E4A5B008902D1501120220018
:10237000310000F013F9112000F0E6F82000AE6003
:102380002E6070BD01204042FBE7C046447E010044
:10239000980000209400002000100140FC10014033
:1023A00000E100E00A490B4A70B58B580A4E3468C8
:1023B00075688858834209D183206043181A074BF7
:1023C00000021B68000A5C43001970BD0300EEE7C1
:1023D0000010014004050000B8120020DC3A002083
:1023E00006488168006A884207D000B514F0D8FB1F
:1023F00001BC86460249034A0A60704780120020E9
:1024000004ED00E000000010F0B5C0240022032617
:10241000FF25A40010002F003040C0008740930823
:1024200004499B005B1819590132B94319511A2A02
:10243000F0D1F0BD00E100E0074A0849936809685F
:1024400018665966802306495B05486803434B605C
:1024500062B69368586E704780120020B4E40100A1
:1024600000ED00E013498A6813481044EFF3098C2B
:10247000F0C043464C4655465E466746F8C00F4F8F
:102480000F4E72B60A6A8A603E60106E00231366B1
:10249000002800D162B6084C10191030F8C89846D0
:1024A000A146AA46B346BC462438F0C88CF3098836
:1024B00070470000801200202C00000004ED00E0B6
:1024C0000000000809487146014202D0EFF309807C
:1024D00001D1EFF30880816902390978022900D01F
:1024E0007EE700B500F004F900BD00000400000024
:1024F0000E4B10B55A680400D205D20D032A0ED136
:102500000B48FFF78BF814F0BFFBA26901000948E4
:10251000FFF784F82100002000F0F0F810BD064914
:102520000F2A00DD0549103A0548F1E700ED00E00B
:1025300088800100A08001005A8001006F800100A6
:10254000EA80010070470000030605D41F231840ED
:102550001E3B8340014A13607047C04600E100E023
:10256000030609D41F2318401E3B8340034AD36748
:10257000BFF34F8FBFF36F8F7047C04604E100E099
:102580004309054A9B009B581F2210401E3A824077
:10259000100018407047C04600E100E030B5FF254C
:1025A00003242A0043B2C0B20440E400A2408901DF
:1025B0002940D243A140002B0ADBC0240A489B08D3
:1025C0009B001B18A400185902401143195130BD3B
:1025D0000F230340083B05489B089B001B18D86944
:1025E00002401143D961F2E700E100E000ED00E0B4
:1025F00010B500F043F810BD10B5EFF3108472B6BB
:10260000054BD869002803D00022DA6113F07EFE62
:10261000002C00D162B610BD80120020F8B5170062
:102620001E000C000A9B09990422050014F092FD7B
:102630003900072201200023203961189143094AFB
:102640002B6582436B658A61069A0E604A60079A21
:102650008A60089ACA6080225204CA61E9642B66C3
:10266000F8BDC046350F0000014910220A607047CE
:1026700010ED00E062B630BF7047C04662B6064853
:102680007146014202D0EFF3098001D1EFF30880D7
:1026900000B5FFF72DFF00BD0400000070B5040079
:1026A0000D00042809D0052816D00C48032C05D0AD
:1026B00021000B48FEF7B2FF02E00A48FEF7AEFF2A
:1026C00014F0E2FAAA6901000748FEF7A7FF290003
:1026D000200000F013F870BD0448EFE7FE80010011
:1026E00059810100248101007C8101003E810100AB
:1026F00010B501000068FFF7D1FF10BD10B5052827
:102700000CD014F064FC00280BD014F060FC0B49D2
:10271000002800D10A490B48FEF780FFFFF7AAFF07
:10272000FCE714F05DFC0028EFD1074C0748A168D6
:10273000FEF774FFA06800F00BF810BDB88101002F
:10274000BC810100CD81010080120020ED810100DB
:1027500070B50500EFF3108472B614F099FC0B4BC2
:102760009B68AB420DD10A4B5A68D20504D114F0D4
:1027700017FA2000FFF760FE8022596852050A43CD
:102780005A60200014F0D0F870BDC04680120020BE
:1027900000ED00E000B572B60A4AD069002803D007
:1027A0000021D16113F0B2FD62B6EFF30580064956
:1027B000401AC0000549014409C9984708BC9E4613
:1027C0000EE600008012002010000000A8000000AB
:1027D00072B605480549401880F30988022080F345
:1027E0001488BFF36F8F06E0682A00208002000083
:1027F00030BFFDE7704710B5FFF7FCFF13F0B6FDE3
:1028000013F0C0FD13F0E4FD10B5FFF7F1FFFFF783
:10281000E7FD10BDF0B5EFF3108372B68122134DC2
:10282000134E2C78624392190326013434402C70E5
:10283000002B00D162B6402900D9402103000F27A8
:1028400010000C4D5E18B34204D100234900100063
:102850008B54F0BD1C7824092C5D04701C78013366
:102860003C402C5D44700230EDE7C046F80000208B
:10287000F90000207C820100122130B50C000E4AC4
:102880000E4D137887B05C432C19012501332B4082
:10289000137002784379049242780392827802920C
:1028A000C2780192027920000092054AFEF7C2FE2A
:1028B000200007B030BDC046F60000209C0000207C
:1028C0005E82010070B51B261B4A1C4913788AB032
:1028D0005E438E19012101330B401370037804000D
:1028E00007AD032B22D81800FDF750FC021A1C1E5E
:1028F00013492800FEF77CF86278A3790492A27845
:1029000005950392E2781B21029222793000019210
:10291000627900920B4AFEF78DFE30000AB070BD5E
:102920000949E6E70949E4E70949E2E7094A0A21D2
:102930002800FEF77FFEDFE7F7000020C000002040
:10294000128201003B8201001982010020820100F5
:102950002A8201003482010070B58AB069460A00FB
:10296000084B70CB70C270CB70C270CB70C21B684A
:102970001360054B092801D88000435818000AB09D
:1029800070BDC046007901004C8B0100F0B5070016
:1029900087B090790E00140012F0F6FC234DA84287
:1029A00012D0A479200012F0EFFC214B0390059384
:1029B00000930495029401971E4B1F4A1F4920481B
:1029C000FEF72CFE07B0F0BD200012F0E3FC1D4D19
:1029D000C00028184388BB4210D0200012F0DAFC57
:1029E000134BC00003932D186A8814490292009378
:1029F0000197104B104A1448FEF710FE200012F009
:102A0000C9FC104DC00028184368002BDAD0200004
:102A100012F0C0FCC0004655200012F0BBFCC00004
:102A20002D18686814F03FF9CCE7C046D43B00206D
:102A300010A80100F08201007B860100828601005F
:102A40008586010000030020CA86010010B504003D
:102A5000034814F093FD01232041184010BDC046E7
:102A600008370020F7B501910121050049421348BC
:102A700012F01AFD0700083704000021380012F098
:102A800033FD00232000237512F084FC0C4EC0009F
:102A900030184580200012F07DFC0023C00036185D
:102AA00073603800032112F0B1FD6B461B7905708D
:102AB0002D0A457083702000FEBDC046D43B002027
:102AC0000003002070B50C0086B01500002903D16A
:102AD000FFF7C8FF041E2ED001220021684614F023
:102AE000D9F8200012F056FC6B46144EC000301886
:102AF0004360200012F086FD2100114812F042FDD3
:102B00001049684614F0F3F8200012F043FCC000AE
:102B1000805D002805D0200012F042FD05204042D3
:102B200002E0002D02D02C6006B070BD200012F033
:102B300037FD2800F8E73720F1E7C0460003002002
:102B40003C3700201027000070B502210500154811
:102B5000FFF788FF041E22D00221083012F056FD34
:102B60000600012D14D10B20FFF770FF70702100BB
:102B7000357000220B48FFF7A5FF041E06D10A4856
:102B8000012D08D18021490014F004FD200070BD02
:102B900000234370EBE7054914F007FDF6E73724FF
:102BA0006442F3E70C20000008370020FFFEFFFF1F
:102BB00070B5134E062231000500FDF737FF041EE5
:102BC00019D006210F48FFF74DFF041E15D006222D
:102BD0002900083012F021FD210000220948FFF7EA
:102BE00071FF041E07D1062229003000FDF72DFFDA
:102BF0000122054BDA71200070BD37246442FAE7E8
:102C0000A0360020052000009836002007B50621D8
:102C100068460BF0F3FC002808D16B463F225B7935
:102C2000684613406A465371FFF7C2FF0EBDF7B501
:102C30000D00202100900192FFF714FF061E35D0F1
:102C40002021083012F0E2FC20220021040000279D
:102C5000FDF722FF019B9F4205D100223100009821
:102C6000FFF730FFFEBD23786A78D11802311F29A3
:102C700005DD300012F094FC16204042F2E7501CB3
:102C8000E1184870981CC0B2207001332978DBB27B
:102C9000E3185970013069682018FDF7D6FE6A788C
:102CA000237801379B1823700835D3E73720E4E7F2
:102CB00010B50920FFF7CAFE041E01D0002010BD88
:102CC0000820FFF7C3FE0028F8D02000FFF73CFFE4
:102CD000F5E7012310B5062104000370C0180BF0BE
:102CE0008DFC002804D14023A2795B421343A371D9
:102CF00010BD0000104B13B51A78012A04D19B793E
:102D00003E329343C02B0CD00C4B0D4A01930093E1
:102D10000C490D4B0D481624FEF780FC6442200040
:102D200016BD0B48FFF744FF041EF8D104210948E3
:102D300014F030FCF3E7C0469836002010A80100DC
:102D40003386010082860100478301003A86010034
:102D50009936002008370020F0B51A4D87B02800BA
:102D6000FFF7B0FD184C194E01903300184A19496D
:102D7000029400941848FEF751FCAF7B3800FFF72F
:102D8000EBFD0594AB8A124A04932B8A11490393F5
:102D900002973300019000941048FEF73FFCEF7B50
:102DA0003800FFF7D9FD04946B8A094A0393019018
:102DB00002970094330007490948FEF72FFC07B03B
:102DC000F0BDC0469836002010A801009B8201008B
:102DD0005A83010082860100618301007E83010025
:102DE000CC830100F0B58FB00CAA0021A248FFF7F8
:102DF00069FE041E76D10C9B9B681B78002B0AD1C0
:102E00009E4C9F4A2000136014F0B8FB0D21014036
:102E1000200014F0B5FB0C9812F0C2FB0CAA0021A4
:102E20009848FFF74FFE041E5CD10C9B082299685E
:102E300095480131FDF709FE0C9812F0B1FB210015
:102E40000CAA9248FFF73EFE041E4BD10C98904D01
:102E500083685A78AA73DA78997812020A432A8228
:102E60001A79EA731A7AD97912020A436A825A796C
:102E70009B791B021343AB8212F092FB0320FFF7F6
:102E8000E5FD011E10D10CAA8248FFF71BFE041EAF
:102E900028D10C9B062299687F480131FDF7D5FDAA
:102EA0000C982C7012F07CFB0CAA00217B48FFF7D9
:102EB00009FE041E16D10C9B402299687848013106
:102EC000FDF7C3FD0C9812F06BFBAB7E5B060CD4D8
:102ED000744B754A019300937449754B7548FEF71E
:102EE0009DFB133C20000FB0F0BD21000CAA7248DE
:102EF000FFF7E8FD041EF5D10C9B082299686F4886
:102F00000131FDF7A2FD0C9812F04AFBAB7E9B0647
:102F100071D52B003A331B781B0700D584E00821BC
:102F20006748FFF79FFD041E6BD00821401812F080
:102F30006DFB062240352B781340934200D198E078
:102F40000223002203701B0A43708270C270027158
:102F500042718271C27121005948FFF7B3FD041E0E
:102F6000C0D108215748FFF77DFD051E49D0082133
:102F7000083012F04BFB802343707E3BC3701E333E
:102F800004708470047144718471C371220029003B
:102F90004C48FFF797FD041EA4D101000CAA4A4833
:102FA000FFF790FD4149494B002800D19CE03D4A84
:102FB000474801920092474AFEF730FB0722002162
:102FC0000AA8FDF769FD324D07220AA92800FDF77E
:102FD0002DFD002800D010E12B00012660331B7866
:102FE000334200D01AE12F4B3A4A019300932F4904
:102FF000394B3A4820E102213948FFF733FD061EDC
:1030000002D1372464426DE70221083012F0FEFA43
:10301000012344700370220031003148FFF752FD54
:10302000041E00D175E75DE70CAA00212D48FFF7CB
:1030300049FD041E00D055E70C988268531C59784E
:103040005278090211439A781C7912041143DA78F4
:1030500012060A43597909020C439979DB7909046C
:1030600021431B060B43290080310CC112F098FA52
:1030700055E7C1235B0064E7030C0000083700201C
:103080005C03002003100000AE3600200110000099
:103090009836002009100000993600200210000028
:1030A000B636002010A80100338601008286010098
:1030B0003F8301000D87010003200000103700202E
:1030C00001200000010C000001FC0000AC820100A6
:1030D000418701007B8601008D820100DE880100AE
:1030E0006D0C00001C2000000C9A734E9568AA78A5
:1030F000687812020243032A02D8704896003658B4
:103100006F480292039000906E4A01966E48FEF757
:1031100085FA2B79EA781B021343AA7869781202A0
:103120000A436549022A04D1022B02D8674A990052
:103130008958634A664F0392029301910092654950
:10314000604A3B006448FEF769FA6A795A49032AE3
:1031500002D8624B9100C958594E0696A87A6B7AEC
:1031600000021843EB7A1B0418432B7B1B06034316
:1031700005932B7AE8791B0203430493AB795848F3
:10318000039302923B004F4A019100965149FEF78A
:1031900045FA0C9812F004FA0CAA00215148FFF7E6
:1031A00091FC051E06D0019600963B004E4A494907
:1031B0004E4801E70C9B022299684D480131FDF70A
:1031C00044FC0C9812F0ECF90CAA29004948FFF7CE
:1031D00079FC002806D0019600963B00424A3D4902
:1031E0004548E9E60C9B0122996844480131FDF706
:1031F0002CFC0C9812F0D4F9E0E641490722283162
:103200000CA8FDF722FC07220CA92800FDF70EFCF4
:10321000002800D1E0E6FFF79FFD63E609AA002140
:103220003848FFF74FFC002809D0254B2E4A019360
:1032300000932849344B3548FEF7F0F928E0099B04
:1032400099684B78002B17D00231062230482E7037
:10325000FDF7FBFB099812F0A3F9FFF74BFD051EE4
:10326000D9D0174B2B4A019300931A492A4B2B486C
:10327000FEF7D4F92C0035E6114B1B4A019300935D
:103280001449214B2648FEF7C9F9099812F088F92C
:103290002800FFF71EFD051EE3D11D48FFF7ECFADD
:1032A000074B0190029300930F4A174B09491D48A1
:1032B000FEF7B4F9D1E7C0464C8B01005C8A0100EF
:1032C00010A801005A83010075870100508A01008F
:1032D000AC820100828601009E8701003C8B0100C8
:1032E000C687010002FC00007B8601000388010004
:1032F000F736002003FC00003C880100F636002071
:103300000079010009FC00008D8201007588010030
:103310009936002033860100B882010053890100EC
:10332000A58801001A89010010B5FFF75BFD041E96
:1033300006D10221064814F02DF92000FFF7B8FC51
:10334000044B1B68002B01D02000984710BDC046DD
:103350000837002058030020034B10B5B4331B6816
:10336000DB68984710BDC0469836002030B5050090
:1033700085B00C1E03D1FFF775FB041E1DD0104B4A
:103380009D4214D12000FFF7E7FF051E0CD00D4B26
:103390000190029300930C4A0C4B0D490D48FEF727
:1033A0003DF9200012F0FCF8280005B030BD2100E6
:1033B000094812F0E7F80025F6E737256D42F3E7F4
:1033C000350C000010A8010033860100E0820100E6
:1033D00082860100588401003C370020F0B585B09A
:1033E0000F22404C0121637B200013406373103A8D
:1033F00014F07EF9002860D1637B1B09012B0BD9E7
:10340000042B0CD0384A019302920092374B384A71
:1034100038493948FEF702F913F0E4FBE0E7267B70
:10342000002EF9D13100354812F046F8051E50D073
:103430000121334F4942380013F059FC314CA0347C
:103440002368002B2BD1280012F0DCF82D4CA0347F
:1034500020602800FFF780FF0028DDD0224B2A4A99
:1034600024490293019000932848294BFEF7D6F88F
:10347000380013F018FC280011F08CFFC300254819
:103480000022C0181F214088FFF780FA206812F040
:1034900087F800232800236012F082F8BCE7124B63
:1034A000194A019300931349194B1B48FEF7B6F8CC
:1034B000206812F075F82660C5E70B4B124A01939D
:1034C00000930C49154B1648FEF7A8F862B6042085
:1034D00002DF054B0C4A0193009306490C4B11483F
:1034E000F2E7C0465037002010A8010022830100F7
:1034F0007B86010082860100828901003C37002022
:1035000020370020983600203386010058840100BF
:103510001983010000030020B389010031830100F9
:10352000DE890100088A0100F0B5057D8DB0040038
:10353000012D00D0C3E0866833780E3B012B0BD8F9
:10354000674B684A019300936749684B6848FEF7E8
:1035500065F862B6042002DF070008370221380050
:1035600012F0BFF836783E2E00D098E0A668290009
:10357000380012F0B6F83578082D47D0092D00D163
:103580006AE0022D00D078E0380012F0B2F8069020
:10359000069B013BDBB20693FF2B4ED0A5680921A9
:1035A000380012F09EF82B7A0AAEEB185B7A691C91
:1035B00007936B780722023B3000012B5AD8FDF7A6
:1035C00044FA3378023B33704A4E3368002B17D0ED
:1035D000380012F0C1F8A389089009932B7A1C21B6
:1035E000A3816B462A78595636683B000AA8B04733
:1035F0006B4622691B8CD318A3606B469B8CA381FE
:10360000297A3800013112F06CF8C1E721213A4DD6
:10361000A6684942280013F0C8FF3378002B08D170
:10362000711C40223548FDF710FA1021280013F0D4
:10363000B1FF334B1D68002D05D1200011F0B0FF04
:1036400000200DB0F0BD002032782B68824200D1FE
:10365000701C98476D68EEE72A4D2B68002BECD064
:103660000020A2681178814200D1501C98470023A5
:103670002B60E2E7FDF7E9F9A6E7A689A06831002B
:10368000FFF7C8F8164B0390049300931E4A1F4B94
:1036900015491F4802960195FDF7C0FFCDE7A589A2
:1036A000A0682900FFF7B6F80D4B03900493009330
:1036B000029501960D4B144A0B491648ECE7084B4E
:1036C000084A029300930849134B01951348FDF7EC
:1036D000A5FF200011F064FF16204042B1E7C0466C
:1036E00010A8010033860100828601000F830100CB
:1036F0008A8401005C0300200837002014030020A6
:1037000054030020100300207B860100FD8201008D
:10371000C9840100FE840100C182010030850100DE
:10372000F0B5037D85B004008568012B0BD0344BC8
:10373000344A019300933449344B3548FDF76EFF0A
:1037400062B6042002DF8389012B07D82C4B2D4A57
:10375000019300932C492D4B2E48EFE72B780E3B1D
:10376000012B15D8070008370221380011F0B9FFE6
:103770002B780E2B14D00F2B2DD0200011F010FF22
:103780001F4B204A019300931F49204B2248D5E745
:103790001B4B1C4A019300931B491C4B1F48CDE750
:1037A000A36803219D785A782D02380015431E78AE
:1037B00011F097FFA368220019782800FFF7E6F8B8
:1037C000002E02D0164813F06EFA200011F0E8FE29
:1037D000002005B0F0BDA6680421F578B3782D026D
:1037E0001D4373783800039311F07BFF317822007A
:1037F0002800FFF7CBF8039B002BE6D0E2E7C0469A
:1038000010A801003386010082860100C9820100F0
:10381000548501009885010010860100D2850100C1
:1038200020370020094AB4321368002B08D1816880
:10383000002908D0C168002905D010601800704721
:1038400045204042FBE71620FBE7C04698360020A3
:10385000F0B52C4C87B0B43423680700002B0BD193
:10386000294B2A4A0193009329492A4B2A48FDF7FC
:10387000D5FE1324644227E0284E0121300013F0C6
:1038800089FE012528403BD1254BEB221F600923EF
:103890005B42059004900393029001900090214BAD
:1038A00092002149214813F0D3FB23689B68984775
:1038B000041E0CD0144B019002930093134A154B35
:1038C00013491B48FDF7AAFE200007B0F0BD002FEA
:1038D0000BD1FFF787FA041EF6D10221300013F056
:1038E00059FE2000FFF7E4F9EEE72900114813F034
:1038F00051FE2842E8D11049104812F0FAFEE3E7E1
:103900004524B7E79836002010A80100338601004F
:1039100082860100D682010003840100083700205E
:1039200058030020DD330000401300206003002016
:103930002C84010004370020FC360020C012002037
:10394000F0B5170002781E0085B005000C00438812
:10395000D20706D4504A927B082A02D89F2B00D85F
:1039600095E0AA889A4200D291E01F2B00D88EE001
:103970008023DB019A4200D989E00620FFF766F830
:10398000002800D085E021003A004448FFF74FF9B5
:10399000041E32D1002E29D12B78DB0726D40F222A
:1039A00000216846FDF778F86A466B880127138086
:1039B000AB885380072353732B783B4220D00220DF
:1039C000FFF744F8002802D03548FFF7F1F86A46BF
:1039D000314B1B78537100230F2132481371FFF7CD
:1039E00041F8041E29D13724644206E00A9A3100C6
:1039F0002D48FFF71CF9041ED1D0200005B0F0BD02
:103A00005B0714D50220FFF721F8041E03D02448D9
:103A1000FFF7CEF804006A461F4B1B785371002C49
:103A2000EBD10223002E00D103236A46D4E7FFF72F
:103A3000EDF86B4604005F71F1E70F22694608302C
:103A400011F0EBFD210000221648FFF73BF8041EA1
:103A5000D3D101211548FFF705F8061EC3D0012177
:103A6000083011F0E4FD220031001048FFF72AF879
:103A7000041EC2D10E4E4021300013F08BFD2B7876
:103A80009B07BAD48021300013F084FDB5E71624DB
:103A9000AAE74524A8E7C046983600200820000081
:103AA0009936002006200000092000000A200000AE
:103AB00008370020812170B5194D4942280013F0C4
:103AC00074FD0620FEF7C2FF002802D1002420006A
:103AD00070BD01211348FEF7C5FF041E1CD0002154
:103AE000083011F0A4FD210000220E48FEF7EAFF85
:103AF000041EECD141212800494213F056FD082054
:103B0000FEF7A4FF0028E1D00A20FEF79FFF00285F
:103B1000DCD0FFF77BF8DAE737246442D7E7C0460A
:103B2000083700200A2000000378F7B505000F00D1
:103B3000012B00D987E04378012B00D983E041882D
:103B400043480B1F9BB2834200D97CE0AA88131F15
:103B50009BB2834200D976E0914200D273E0802488
:103B60003C4EA4002100300013F014FD044000D0AE
:103B70006CE00820FEF76AFF00280AD02000FEF75C
:103B8000E3FF041E05D03000334913F00EFD200082
:103B9000FEBD6B78002B47D080213000090113F067
:103BA000F9FC0722002168466C882E78AD88FCF766
:103BB00073FF6B465C70240A1E709C706B46DD7050
:103BC0002D0A1D716A4600239371244B214D1B78E9
:103BD0005371012E0AD10620FEF738FF002805D1C7
:103BE000FFF714F8041E2BD16B465E7107211C48A9
:103BF000FEF738FF041E21D007226946083011F075
:103C00000CFD21001648FFF7B1FB0120FEF79CFFD9
:103C1000041E15D1012E0CD180212800C90013F0FB
:103C2000B9FC104B1F60B2E70F49300013F0BDFC28
:103C3000B7E70E49280013F0B8FCF2E737246442D6
:103C400005492800A1E716246442A0E74524FBE7C4
:103C5000FC3F000008370020FFFDFFFF98360020E2
:103C60000B2000005C030020FFF7FFFFFFFBFFFFBE
:103C700010B50749074813F098FC830505D50020C7
:103C8000054B1860FFF714F810BD45204042FBE7D4
:103C9000FFFDFFFF083700205C03002070B5050022
:103CA000054811F001FC041E04D00021083011F079
:103CB0001BFC2575200070BDF43B002010B50100F1
:103CC000EFF3108272B600200B4BA0331C68186013
:103CD000824200D162B6002C09D0012300212000CD
:103CE0002375A181083011F0FFFB200010BD0120D9
:103CF000FFF7D4FF0400F8E798360020F0B58BB04A
:103D00001D0010AB1B881D4C1D4F1E4E09900691C7
:103D1000079231001C4A08930294019300943B00DF
:103D20001A48FDF77BFC12F0AFFF079B0594039345
:103D3000069B0190029300943B00154A31000495C4
:103D40001448FDF76BFC2B00099A0799069800F0C0
:103D5000FDFD041E0ED1104A53681B0E1B06536056
:103D6000089804F0C9F8102211990C48FCF76DFE70
:103D700001F008FE20000BB0F0BDC04610A8010005
:103D8000548B0100828601005A830100668B01007A
:103D90008E8B0100958B010064370020B037002026
:103DA00070B51026134CE379334222D004F0ECF8BE
:103DB000F6220025636810481B0E1B0663601B0E6D
:103DC0001340621CD5770222B3439343E37125600D
:103DD00013F024FA08F018F903F098F903F0BCF98D
:103DE000320029000548FCF757FE00F07FF900F08B
:103DF0005DFB70BD6437002088370020B03700209D
:103E0000024BD879C006C00F7047C0466437002007
:103E100010B5080004F05CF8041E07D101F0C0FDE5
:103E200003F0B8F900F008FB00F036F9200010BDEF
:103E30000C2343430148C0187047C046C803002004
:103E400070470000F0B58BB001214348494211F0A2
:103E500033FB051EF8D004214269137A0B4253D07C
:103E60008B4313723D4B10319B7B082B00D8503194
:103E70006B691A6804925A6805920A225C7AE00813
:103E80000130424388B28A4200DB90B207221440DC
:103E900002001B7A0A32013454439B07304A9B0FBD
:103EA000D35C08AF3B70AB8906AE7B70AB68052175
:103EB00009930023C0003370FCF710FA002380B28E
:103EC0007080B0800122009339003000FFF738FD88
:103ED0000600280011F064FB049B0A34A4B2002BF6
:103EE00030D01B68002B03D0059A31002000984782
:103EF000002E10D01B4B1C4A029300931B491C4BF5
:103F00001C480196FDF78AFB1B491C4813F05EF81C
:103F100012F068FE98E7200012F092FEFFF7CAFD4B
:103F2000049B04005B68002B01D005999847002C86
:103F3000EAD00C4B0194029300930B4A0C4B0B49B3
:103F40000F48DFE7002ED5D1200012F079FEFFF7F1
:103F5000B1FD0400EBE7C046943B002098360020FA
:103F6000568C010010A801003386010082860100F2
:103F7000D68B0100EF8B01004E8C0100413E00000A
:103F80001A8C0100F0B50F0085B01C00032A14D173
:103F9000A388012B11D9200011F0ABFB061E0CD019
:103FA000A38885B2AB420AD2184B194A01930093F9
:103FB0001849194B1948FDF731FB05B0F0BD200039
:103FC00011F0CAFBA38802902000039311F091FB2B
:103FD000013DA5802A280ED02B2812D06B46A2685E
:103FE0001B893100D31823606B469B892000A38076
:103FF00011F077FBCCE700223900200001F042FBF2
:10400000ECE7200000F042F9E8E7C04610A8010004
:104010007B86010082860100DF8B01005A8C010043
:10402000F8B50C00069917001E0011F03DFA051EA8
:104030000FD011F0AFF9A04704000C2268610021F5
:10404000FCF72AFD0323227A1F409A433A43227247
:1040500066722800F8BD000007B50B000092034906
:1040600002000348FFF7DCFF0EBDC046313E0000F2
:10407000B43B0020436910B506C304234269117A9A
:104080000B43137211F0BEFA0100024811F07AFAE4
:1040900010BDC046943B00207FB509210023CB22F0
:1040A0004942059304930391029301930093920074
:1040B000034B0449044812F0CBFF07B000BDC046D3
:1040C000453E0000E01800204004002007B506220D
:1040D00004496846FCF7B9FC03496846FFF724FD2C
:1040E0000EBDC04630790100853F000010B5FFF7D6
:1040F000BFFD10BD10B50C0012F016FE206010BD03
:1041000010B507F0E5F8002802D1024813F086F850
:1041100010BDC046A804002010B5064C01212000A7
:10412000083013F037FAC30703D42100024812F015
:10413000E0FA10BDA8040020C0120020F8B5040069
:104140000D0000F09DFB260007000121280011F062
:104150006EFAA37F3036002B00D049363900280094
:1041600011F065FA310008222800213111F055FACA
:10417000054B2800196811F083FA21002800283126
:10418000082211F04AFAF8BD6437002073B5FFF732
:1041900037FE002858D001232C4A2D4C11782D4D84
:1041A0004B40137034D012F0BFFD2300A0331B88A6
:1041B000AB4220D023000833DB6FC01A264B984255
:1041C00009D8230088331A78244B01325343244AF8
:1041D0009B1898420FD3002208210220FFF73CFFD2
:1041E000051E22D11F4B204A019300931F49204BEB
:1041F0002048FDF713FA07F06BF8012802D0E379A5
:104200009B0704D5154A1C491C4813F067F873BD79
:104210002200A0321288AA42C5D022002100893291
:104220001078883108701370BDE70100144E083112
:104230003000FFF783FF280032001249FFF71AFF12
:10424000280011F0ADF9D6E70F4ADCE7D0040020D2
:1042500064370020FFFF0000BF270900102700007F
:1042600078ECFFFF10A80100338601008286010070
:10427000888C0100C28C0100A8040020C01200201C
:10428000E8370020F08D010088130000F0B5838826
:104290008BB00400002B0AD1584B594A019300936C
:1042A0005849594B5948FDF7B9F90BB0F0BD11F019
:1042B00020FA0028F9D0012869D1A288142A0AD846
:1042C0004E4B0192029300934D4A514B4D49514838
:1042D000FDF7A4F9E9E7504F3B00A0331A884F4B94
:1042E0009A425DD0152221684D48FCF79FFB0028BB
:1042F00056D14C4C15E0A01D15220699FCF7A5FBE4
:10430000002000F0FBF9002815D0A38B002B12D061
:104310003A4B454A019300933A493D4B4348FDF7D8
:104320007DF906F0D5FF0128BFD16379FF2BBCD002
:1043300001336371B9E70220FB797508EDB20342DE
:1043400009D00122D907C90F2A40914203D18343E2
:10435000FB71FFF7D5FE012729000598394000F0D1
:1043600037FC1723310004AA9B1805001A7839403E
:10437000200000F0AFFB00283DD0200000F08EFAB6
:104380002000002D00D0002000F020FCC9E71B4BCE
:10439000019002930093244A1B4B1A49244897E743
:1043A00023682000069311F0A4F923680821060071
:1043B00017252000079311F094F9200011F0BAF9A5
:1043C00004ABED18009505902368020031000798B2
:1043D00000F088FF041E00D167E7E37F022B8AD13B
:1043E0002B78002B87D1054B0F4A01930093054989
:1043F000074B104857E7002D93D0C4E710A80100E1
:104400003386010082860100AE8C0100F38C01002E
:104410009B8C0100148D010064370020FFFF000019
:10442000EE370020E83700207B860100868D0100F2
:10443000C38D0100458D010010B50249024812F0FC
:10444000DDFE10BD8D410000A8040020012310B541
:104450000224074903405A00CB79A3431343CB718D
:10446000002802D0FFF758FE10BDFFF749FEFBE71A
:104470006437002010B5FFF7C3FC002802D1FFF716
:104480004BFE10BD064B1A00A0321188054A91421E
:10449000F5D0002288331A80034800F0FFF9EEE7D8
:1044A00064370020FFFF0000E8370020044B10B500
:1044B000DB799B0702D4034812F0B0FE10BDC04662
:1044C00064370020A8040020F0B50400260021363F
:1044D00089B008001700310008220593FCF7A6FAFE
:1044E00000230500984225D1200006AC059B320030
:1044F00039003930009403F029FB082221000E987E
:10450000FCF794FA0123002814D008210E98FEF736
:1045100081F9082106002000FEF77CF9074B029084
:10452000039300930196064B064A07490748FDF797
:1045300075F82B00180009B0F0BDC04610A80100A6
:10454000C68E01007B86010082860100348F010047
:10455000F0B505001F008BB0129C0691079212F077
:1045600093FB7F22584E594904962B8803933B783E
:10457000019013400293564A564B00965648FDF759
:104580004DF812F081FB554D04962B68504A039369
:104590003B784E49DB09029301904E4B0096504800
:1045A000FDF73CF801213B782A68DB090A405A40B4
:1045B000119B20001B7D8B431343119A1099137597
:1045C0000023A380A368236011F020F8109A39001B
:1045D000FCF73BFA119B079A197D2B68C907C90F95
:1045E000591A206803F064F9002800D06AE03026E8
:1045F000119B1B7D1E4025D121682D68DB07DB0F39
:10460000ED1A8B78042203312D0209A81D43FCF713
:104610001CFA3100099A3348CB00C3181E68964231
:1046200002D15B68AB4224D001310A29F4D12E4F6C
:104630002C4B3888C6009B19013024C380B2FBF78D
:1046400049FE398021684A798B79120213431BB2E3
:1046500011999AB20A81002B17DC1B4B019202932D
:104660000093224A1B4B19492148FCF7D7FF16201B
:1046700009E0154B1D4A019300931449154B1D4841
:10468000FCF7CCFF452040421AE012F0FDFA0E4B39
:10469000119A039312890D490292019000930C4ADA
:1046A0000C4B1548FCF7BAFF119B21001A7D0B4BF0
:1046B000D2071B68D20F9A1A0698002303F05AF902
:1046C0000BB0F0BD0220DEE710A8010082860100D9
:1046D0008E8B0100D18E0100D29901006437002039
:1046E000019A0100E8040020380500207B860100C3
:1046F0006B9A0100329A0100A09A0100064A074B0A
:10470000904206D0064BA0331A88044B824200D058
:10471000002318007047C046FFFF0000E837002064
:10472000643700200023F0B58BB0069109A90B7007
:1047300003001F2504002933079302ABED18079BE4
:1047400011340193070000942B000122069802F017
:10475000EBFF061E0BD03D4B3D4A019300933D49B4
:104760003D4B3E48FCF75AFF30000BB0F0BD102225
:1047700006993800FCF769F92B783B7412F084FA3B
:104780001021050020003E7CFEF744F82F4C324BF0
:10479000334A3049039002960195049400943148BD
:1047A000FCF73CFF12F070FA050010210798FEF7A5
:1047B00031F801953D000290274B294A2549039481
:1047C000009429482135FCF729FF2900069802F0BA
:1047D000FDFF061E06D0019400941F4B1C4A1D4984
:1047E0002248BFE712F050FA082106002800FEF721
:1047F00011F83D0002900196174B194A1549039490
:1048000000941B483935FCF709FF2A00194906981E
:1048100003F036F8061E06D0019400940E4B0C4AA5
:104820000C4915489EE712F02FFA102107002800C6
:10483000FDF7F0FF0394029001970094064B084A9D
:1048400004490E48FCF7EAFE8EE7C04610A80100B6
:104850003386010082860100F88D0100BD950100BC
:104860008E8B0100F9950100239601004696010008
:10487000709601008E96010093960100C19601008A
:10488000031E00D0837F044AD279D20701D50222C9
:10489000134318007047C04664370020F0B5040089
:1048A00087B0FFF7EDFFA37F0500204F204E002BC0
:1048B0002BD012F0E9F91F4B1F490393A28B0190F3
:1048C0000292009332003B001C482700FCF7A6FE32
:1048D000793712F0D9F9174B194E049332681649FB
:1048E0000392019000930295104B114A1548FCF772
:1048F00095FE3A00380028340094213233682900AC
:10490000393003F023F907B0F0BD12F0BDF9094BBF
:1049100009490393A28B00933B0027000292019068
:1049200032000948FCF77AFE3037D2E7108E0100DA
:104930008E8B010010A8010082860100FC8F01000F
:10494000643700205E9001002B900100F0B58BB021
:104950000C0016000893079012F096F9089B334D4F
:10496000334F0493079B334A390005950293019016
:10497000314B009503943148FCF750FE12F084F956
:10498000102109903000FDF745FF099B0395029027
:1049900001930095284B3900264A2948FCF73EFE32
:1049A0001023284DEF791F403ED150223900264870
:1049B000FCF772F8254B2A001F800123A232234006
:1049C00013703100002B29D02148FFF7ABFE0028DF
:1049D00002D0052040421FE02B000222A3331A70B0
:1049E0006A462B00928BA033E9791A802B000222B1
:1049F000A4331A70089B64082B6023001024013A2A
:104A00000C43134094431C436023EC711148AD18D0
:104A1000EB77FFF743FF00200BB0F0BD0E48FFF728
:104A200081FE0028DCD0D4E74520D3E710A80100A0
:104A3000828601008E8B01002A8E01008C9001007D
:104A4000C190010064370020E804002038050020F0
:104A500061380020E83700201838002030B5050004
:104A600085B012F011F9134BAA8B039302920190B7
:104A70000093114A114B12491248FCF7CFFD29004F
:104A80002800492279313030FBF7DFFF0E4CAA8B2A
:104A900023005C331B889A420AD160342378002BB0
:104AA00006D0112209490A48FBF7CFFF00232370E3
:104AB00005B030BD10A801008E8B01003D8E0100B5
:104AC00082860100D898010064370020D637002084
:104AD000C537002030B5837F85B00400C57F8B4289
:104AE0000ED0002D0CD1214B214A01930093214976
:104AF000214B2248FCF792FD2A00100005B030BD82
:104B00000B00581E8341A377002911D00022012DEC
:104B1000F3D112F0B9F8154B019002930093184AA3
:104B2000154B14491748FCF779FD0223E377E3E7B7
:104B3000012D03D0022D03D00A00DEE7002ADCD0CD
:104B400012F0A2F8094BE27F0393029201900C4A03
:104B500000930849084B0C48FCF760FD2000FFF764
:104B60007DFF00230122E377C7E7C04610A80100BC
:104B70007B86010082860100558E0100628F010054
:104B80008E8B0100A58F0100CD8F010070B5002430
:104B900001250D4823181A004932FF321288002AD5
:104BA0000BD04B33FF331A78002A0AD04930FF303C
:104BB000001908220021FBF76FFF0834502CE8D1C0
:104BC00070BD1D70F9E7C0466437002070470000D3
:104BD0000122F0B56A4C0D00E17987B01140070061
:104BE00023680591674E00291ED098420AD002938F
:104BF0000190654B654A6649664803960096FCF746
:104C00000DFD0DE0002D00D187E012F03DF85E4B68
:104C10000190614A5E49614802960096FCF7FEFCED
:104C20000025280007B0F0BD984209D112F02CF8F9
:104C3000029601900096544B574A55495848EDE763
:104C4000984203D31A002A32824209D24D4A029373
:104C50000392009201974C4B524A4D495248CEE77D
:104C6000013383423ED2484B484A49490196009657
:104C70004E48FCF7D3FC502205994D48FBF70CFF3A
:104C8000636827601B0E1B06636001232A00002156
:104C9000E5791A409D431543E218E5713A4ED17704
:104CA0001D425BD0276011F0EFFF364B384903936C
:104CB0002268019002920093374A33003D48FCF786
:104CC000ADFCFFF763FF3C4A3C493D48A03412F07D
:104CD00005FB22883B4B01259A42A2D03A48FFF7B8
:104CE000DDFD9EE783420AD1002D16D10196009684
:104CF000254B264A26493548FCF790FC91E7002DC4
:104D00000BD111F0C1FF0296019000961E4B224A72
:104D10001F492F48FCF782FC83E7631CDB7F5F2B76
:104D200008D801960096184B184A19492948FCF7EB
:104D300075FC75E7002DA8D101F02AFC0028A4D04D
:104D4000104B124A0193009311490F4B2248FCF774
:104D500065FC0823E2791343E37162E711F094FFE5
:104D6000084B0190029300930B4A330008491B48FB
:104D7000FCF754FC63681B0E1B066360A3E7C04688
:104D80006437002010A80100678E01007B860100B7
:104D9000828601007F9301008E8B0100B393010096
:104DA000EF93010033860100219401005894010023
:104DB000AC38002055950100005C2605883700209E
:104DC000C0120020FFFF0000E8370020859401009A
:104DD000B7940100E4940100169501009495010038
:104DE00010B51B4C86B0621CD37F1833D37711F0FB
:104DF0004BFFE379174ADB0700D4174A0134E17F00
:104E0000164C012900D0164C144B049405930391C1
:104E1000029201900093134A134B14491448FCF773
:104E2000FDFB0B4C631CDB7F5F2B06D8114A12493C
:104E3000124812F053FA06B010BD0120E379034284
:104E4000F9D0FFF703FB00212068FFF7C1FEF2E76E
:104E5000643700208C9901009C99010010A8010082
:104E60003A8B01008E8B0100288F010082860100A1
:104E7000AC990100005C260588370020C012002094
:104E800005494B681A02100A0132FF321B0E120A42
:104E90001B0613434B60704764370020F0B50E00CB
:104EA00014008BB00993069011F0EEFE494F4A4A68
:104EB0000597B38903940493069B48499B8B019003
:104EC00002930097464B4748FCF7A8FB49236343EE
:104ED000454D069A0793E9795933D3180893C907C2
:104EE0002B68C90F591A089AB06802F0E1FC041E39
:104EF0000BD001903A4B3D4A38493D480297009704
:104F0000FCF78CFB20000BB0F0BD079B069A4133E9
:104F1000D31807933300EA7908330693D2072B6836
:104F2000D20F9A1A06990300079802F023FD041E77
:104F300007D0019002970097294B2C4A27492D480A
:104F4000DEE7FFF79DFFB268030C9370B268030AB7
:104F5000D370B36806991871EA792B68D207D20F1B
:104F60009A1A0798230002F0CFFC041E07D0019084
:104F7000029700971A4B1D4A18491F48C0E7E97964
:104F80002B68C907C90F591A089AB06802F090FC3B
:104F9000041E07D0019002970097114B134A0F4946
:104FA0001648ADE730000126109A0999FFF762F81C
:104FB000EB793342A6D16B68114A1B021B0A93425C
:104FC000A0D93000FFF742FA286831008019FFF7B6
:104FD000FFFD97E710A801008E8B0100828601007B
:104FE0007D8E0100FC9701006437002033860100AC
:104FF000329801005E98010086980100AE98010089
:1050000000127A00F0B543688DB00B925B884D4A70
:1050100009939B185A425341DBB20A93099B05003E
:105020001A00494B0F00494E494C9A4210D10800D2
:1050300010F096FB07280BD83300464A46494748EC
:1050400001940094FCF7EAFA162040420DB0F0BD3E
:10505000380010F085FB032806D801940094330033
:105060003C4A3D493E48EDE711F00EFE384A3D4CC2
:105070000692636838491B021B0A05930A9B049336
:105080006B689B8803932B890190029300923300F5
:10509000354A3648FCF7C2FA6B683800998810F038
:1050A00005FB2989380010F001FB0321380010F0BE
:1050B000F5FA0600FFF7E4FE099A030C33701100BD
:1050C000030A214A7370B0706B68914238D1597AE3
:1050D00080231943380010F0FCFA0122EB7A2E6885
:1050E0009343EB724925B27FE17955432B0041335D
:1050F000F3180993C9072368C90F591A7319403364
:105100001B78C9011943C9B2380010F0E2FAE279FC
:105110002368D207D20F9A1A39000B9B099802F024
:10512000F3FB002800D091E72A00E1792368C90742
:105130005932C90FB218591A386802F0B9FB85E71D
:10514000597AC7E70100FFFFFFFF0000A28E0100B0
:1051500010A801003386010082860100E092010060
:1051600013930100643700208E8B010042930100ED
:10517000F0B5040091B00F0016000A9311F084FD01
:1051800023890F900B9363689B880C93BB890D93C5
:105190003B0008331800099310F0DEFA0E900998CE
:1051A00010F0DEFA0E9B434D05930D9B424A04938B
:1051B0000C9B424903930B9B079502930F9B069010
:1051C000019300953E4B3F48FCF728FA11F05CFD37
:1051D0000C90BB89B86819000B93FDF71BFB0B9B68
:1051E000354A02930C9B3549049503900193009531
:1051F000334B3548FCF712FA11F046FD334B03955B
:105200005B682D4A1B021B0A0293019000952C4BF0
:105210002A492F48FCF702FA65686B7AFF2B02D106
:1052200006F00EFC6872002209992000FFF7EAFEE2
:10523000051E20D16368988802F034FF002820D032
:10524000002E2ED1380010F0DDF90100214810F0B9
:105250004FF9002E05D07368002B02D00A99002068
:10526000984701211C4812F095F9C30703D41B4944
:105270001B4811F03EFA380010F092F9280011B0E6
:10528000F0BD6368988802F0E3FE0028D8D1636817
:105290005B7A012BEFD00A9A31003800FEF7EAFE64
:1052A000E9E73368002BCDD000210A9A080098471F
:1052B000C8E7C04610A801008E8B0100828601005D
:1052C000B58E0100F8980100449901006437002070
:1052D0006C9901007C37002078370020703700205F
:1052E000C0120020F7B51C00144B1700A0331A8819
:1052F000134B05000E009A4216D00A0000940100DC
:105300003B001048FFF7E0F800280FD10B4BA33308
:105310001B78002B08D000943B00320029000A487B
:10532000FFF7D2F8002806D10020FEBD0023089A1E
:1053300006481370F9E70123F9E7C04664370020F7
:10534000FFFF00001838002061380020E8370020F7
:10535000F0B58BB008910793838807001600112BD6
:105360001AD8AC4CAC4EAD4D320001932900AC4B79
:1053700002940094AB48FCF751F9B9883868FDF7FE
:1053800049FA029401900094A54B32002900A648E6
:10539000FCF744F91620C2E0089A002A30D10268CE
:1053A000D3181A00083A1178DA1F127809020A4352
:1053B000991F0878591F097800021204014311430C
:1053C0001A1F1078DA1E127800020243981E007825
:1053D000013B1B780002034312041A439348089BC5
:1053E0004A40990009588A42D4D00133042BF8D19D
:1053F0008F490B689C0022500322013313400B603D
:1054000011F042FC0990BC8838682100FDF702FACF
:10541000804D099B04950390029401930095804B65
:10542000844A7E498448FCF7F9F803233021089A1E
:105430003C6813401A01337D8B4313433375BB889B
:105440001F0011F021FC0295019000957B4B794AD9
:1054500072497B48FCF7E2F87A4B7B4A1D00A03585
:105460002988914200D1C7E0C43319787F2322787C
:105470001340994255D1079B019602930097230050
:10548000724A73492800FFF763F8002849D10121C7
:105490007F202B884942B3806E4BF1803360079B9D
:1054A0001A68337B547883430440234333730340A7
:1054B00056D1737308205378DB09D900337D8343B9
:1054C0000B433375D178937881401B040B431179DA
:1054D0000B433361D179137A81400B43738111F00F
:1054E000D3FB4C4D079B03959B884D4C4B4F029330
:1054F000019023004F4A009539005748FCF78EF879
:10550000089A7389032A2DD0002B2BD12300390050
:10551000524A534801950095FCF780F84D204042CF
:1055200068E0484B1A00A3321278002A64D0FF3397
:10553000997B7F232278134099425DD1079B494D87
:105540000293019600972300474A48492800FEF736
:10555000FFFF002850D10223327D1343337596E7B5
:105560007173A7E70133FF339BB2FB2B06D801957C
:1055700000952300394A39003D48CDE7089B012BAF
:1055800010D0308902F064FD00280BD011F07CFBB4
:105590000295019000952300264A39003548FCF712
:1055A0003DF8BBE711F070FB1A4D1C4F0595337B9E
:1055B000204A5B065B0E0493738939000393338999
:1055C00001900293009523002B48FCF727F811F077
:1055D0005BFB079B060099881868FDF71BF903958C
:1055E0000290019600952300124A39002348FCF7E7
:1055F00015F800200BB0F0BD11F046FB054B0190F3
:10560000029300930B4A064B04491D48FCF706F829
:10561000022084E710A801007B8601008286010039
:10562000048F0100E090010018910100D4040020D3
:10563000E40400208E8B01002B910100DD8E01001F
:105640004D91010064370020FFFF00004138002029
:1056500029380020E83700206391010033860100DB
:105660009E910100043800208A3800207238002002
:10567000E19101001D920100559201008792010005
:10568000A4920100F0B59DB00792E8220E005203EB
:105690000EAD14AB002108900C920BAC1822280020
:1056A0000B93A360FBF7F8F96E7511F0EDFA8E4BD2
:1056B000079A8E4F04930392019000933A008C4B0B
:1056C0008C4902968C48FBF7A9FFFEF799FB00284E
:1056D00068D023002A0007990898FFF739FE0028B0
:1056E00060D1200010F038F8A3880600079368897D
:1056F00002F0D8FC0123002805D1688902F0A8FC3B
:105700000300581E83414022287D9B0190430343A0
:10571000290020002B7501F077F90A22AB5E002BDF
:1057200003DD3F222B7D93433CD1A368B6B29E1983
:105730006B469B8B2A7DA38030230B961A402B7BD4
:10574000102A21D16F321340012B2BD011F09CFA7B
:10575000654E0EAD05966B893A0004932B7D654925
:105760001B07DB0F03932B7B01905B065B0E029301
:105770000096624B6248FBF751FF30232A7D1A42A4
:1057800012D005F015FC11E05B065B0E012B09D968
:10579000002ADBD105F000FD0128D7D005F08EFEF0
:1057A0000128D3D01DB0F0BD05F026FD0100002278
:1057B0000120FEF751FC071E08D1019600964F4BC1
:1057C000504A4C495048FBF729FFEBE730222B7D2C
:1057D0001340102B0CD07F210B9A53788B435370BE
:1057E0002B7B0B9A5B0651785B0E013B0B4353708E
:1057F0003B0008330893A2880B9918000FF00DFFA7
:1058000049230E9C7F25A27F534307934133E3181E
:105810000993079BE31840331E7811F035FA324A9A
:1058200034490392BB685B7801902B40029300924D
:10583000324B2E4A3548FBF7F1FE0EAB1B7D5B0762
:1058400007D5BA681378AB431370BB681A78164350
:105850001E700EAD2E4E2A7D3368D207D20F9A1AD3
:1058600008990023099802F04FF800280CD01E4B2D
:10587000244A019300931F49204B2648FBF7CEFE94
:1058800038000FF08DFE8DE7297D079AC907336830
:105890005932C90FA218591AB86802F009F800283D
:1058A00007D0114B174A019300931249134B1A4822
:1058B000E4E72B7D9B069B0F012B0ED0002B04D021
:1058C000022BDDD105F0FAFD01E005F065FC0138A1
:1058D00043425841C0B20028D2D000223800110003
:1058E000FEF7C8FBCCE7C04610A801008E8B010074
:1058F000178F01008286010003970100F28E0100DC
:105900002A97010033860100589701007D97010016
:1059100064370020B1970100D697010070B586B0BA
:1059200012480FF0FEFD041E01D106B070BD11F04B
:10593000ABF9A58906002900A068FCF76BFF0C4BAA
:1059400003900493009302950A4B01960A4A0B496F
:105950000B48FBF763FE2000012208300021FFF70F
:1059600091FE20000FF01CFEDAE7C0467C370020D5
:1059700010A80100908E01008E8B0100828601002C
:10598000E396010010B505F0A3FC012804D1FEF751
:1059900071FDFEF79BFB10BDFEF788FDF9E70000E7
:1059A00010B50549054811F029FC0022044B0549B2
:1059B000DA6019615A6110BDE14D0000883700209E
:1059C000643700201D590000136B10B5002B04D064
:1059D0001B68002B01D0526B984710BD3023027D0D
:1059E00073B5134001000020102B11D003001F4C91
:1059F000D8004930FF30205A0D89002809D12933B9
:105A0000DB000969D2071D53D20FE31859609A7061
:105A100076BDA8421BD12933D800201885780120F3
:105A2000024209D0002DF3D0D800201845680E6935
:105A30000120B542ECD201E0002DF5D00969DB0070
:105A4000D207E318D20F59609A700020E0E70133C3
:105A50000A2BCDD1064B074A019300930649074B09
:105A60000748FBF7DBFD0120D2E7C0466437002082
:105A700010A801003386010082860100089B010006
:105A8000A0A30100F0B50F0004008BB008920993A9
:105A900011F0FAF8224D63680695BA8821490592FB
:105AA0005A8804929B88204A039323890190029389
:105AB00000951E4B1E48FBF7B1FDA17A0022012084
:105AC000FEF7CAFA061E0BD101950095174B194A2D
:105AD00014491948FBF7A2FD372040420BB0F0BD36
