:020000040000FA
:1000000068030010DD010000ED010000E5010000C3
:1000100000000000000000000000000000000000E0
:10002000000000000000000000000000E7010000E8
:1000300000000000000000009B0100007D020000A5
:10004000ED010000ED01000000000000ED010000E6
:10005000ED010000ED01000000000000ED010000D6
:10006000ED010000ED010000ED010000ED010000D8
:10007000ED010000ED010000ED010000ED010000C8
:10008000ED010000ED010000ED010000ED010000B8
:10009000ED010000ED010000ED0100000000000096
:1000A000ED010000ED010000ED010000ED01000098
:1000B000ED010000ED010000ED010000ED01000088
:1000C00000F002F800F03EF80CA030C80838241800
:1000D0002D18A246671EAB4654465D46AC4201D180
:1000E00000F030F87E460F3E0FCCB6460126334274
:1000F00000D0FB1AA246AB4633431847BC080000A9
:10010000DC080000103A02D378C878C1FAD8520748
:1001100001D330C830C101D504680C6070470000BD
:100120000023002400250026103A01D378C1FBD813
:10013000520700D330C100D50B6070471FB51FBDFB
:1001400010B510BD00F067F81146FFF7F7FF00F09B
:100150000DFB00F07FF803B4FFF7F2FF03BC00F0E3
:1001600085F80000084B19680868203080F309887A
:10017000022080F31488BFF36F8F3FBCAE4608BCEB
:1001800004BC62B61847000004000010EFF31080B2
:1001900072B6704780F310887047EFF309800E4BFA
:1001A0001A6820381060F0C044464D4656465F46F7
:1001B000F0C008B572B600F021FB62B60CBC116845
:1001C00008681030F0C8A046A946B246BB4680F386
:1001D00009882038F0C818470400001007488047F5
:1001E00007480047FEE7FEE7FEE7FEE7FEE7000000
:1001F00004480549034A054B70470000010600000A
:10020000C1000000680100106803001068010010C0
:10021000704770477047754600F024F8AE460500F9
:1002200069465346C008C000854618B020B5FFF7A0
:10023000DFFF60BC00274908B6460026C0C5C0C520
:10024000C0C5C0C5C0C5C0C5C0C5C0C5403D4900CA
:100250008D46704710B50446C046C0462046FFF79D
:100260007AFF10BD004870470801001001491820AE
:10027000ABBEFEE7260002007047000010B5FFF796
:1002800085FF044600F0FAFA002803D00120000799
:10029000024948602046FFF77DFF10BD00ED00E0F9
:1002A00000BF08498968042211400029F9D0054996
:1002B000C86100BF03498968082211400029F9D0AC
:1002C000704700000040064010B503460C4603E0AE
:1002D00018785B1CFFF7E4FF2046641E0028F7D166
:1002E00010BD42684A6093688B6093685960916062
:1002F000086103685B1C036070470000FFFFFFFF9D
:10030000002203098B422CD3030A8B4211D3002312
:100310009C464EE003460B433CD4002243088B42EC
:1003200031D303098B421CD3030A8B4201D3944679
:100330003FE0C3098B4201D3CB01C01A524183096C
:100340008B4201D38B01C01A524143098B4201D326
:100350004B01C01A524103098B4201D30B01C01A51
:100360005241C3088B4201D3CB00C01A52418308CB
:100370008B4201D38B00C01A524143088B4201D3F8
:100380004B00C01A5241411A00D201465241104658
:1003900070475DE0CA0F00D04942031000D34042CD
:1003A000534000229C4603098B422DD3030A8B4203
:1003B00012D3FC22890112BA030A8B420CD38901A1
:1003C00092118B4208D3890192118B4204D3890187
:1003D0003AD0921100E08909C3098B4201D3CB01C5
:1003E000C01A524183098B4201D38B01C01A52417A
:1003F00043098B4201D34B01C01A524103098B427E
:1004000001D30B01C01A5241C3088B4201D3CB0068
:10041000C01A524183088B4201D38B00C01A52414B
:10042000D9D243088B4201D34B00C01A5241411A22
:1004300000D20146634652415B10104601D3404250
:10044000002B00D54942704763465B1000D3404201
:1004500001B50020C046C04602BD000010B5002412
:100460005548406AC005000F030000F071F91009FB
:100470000B0D0F11131517191B1D1F2123252729DC
:1004800000241DE04D4C1BE04D4C19E04D4C17E095
:100490004D4C15E04D4C13E04D4C11E04D4C0FE030
:1004A0004D4C0DE04D4C0BE04D4C09E04D4C07E040
:1004B0004D4C05E04D4C03E04D4C01E04D4C00BF70
:1004C00000BF3D48406AC006800E811C2046FFF7F1
:1004D00017FF044638484030006B8007800F002823
:1004E00006D0012808D0022826D0032859D126E0BA
:1004F00041484249086054E02F4840300068800776
:10050000800F002806D0012808D002280AD003282E
:1005100010D10BE03848394908600BE036483749BC
:10052000086007E000203549086003E0324833499D
:10053000086000BF00BF34E03048046031E01E486E
:10054000403000688007800F002806D001280ED0B8
:10055000022816D0032822D117E017488068C00669
:10056000C00E401C244948432449086017E0124843
:100570008068C006C00E401C1F4948431F490860E0
:100580000DE000201D49086009E00B488068C006A6
:10059000C00E401C184948431849086000BF00BFFE
:1005A00000BF00BF04484030816B14480068FFF76B
:1005B000A7FE1249086010BD00800440C027090052
:1005C00090051000C05C1500F0B31A00200B20004D
:1005D000009F2400E0322900C0C62D005097310052
:1005E000E06735007038390000093D0040164000D2
:1005F00080234300C0304600001BB70000000010FD
:1006000008B532480068324908433049086031482B
:10061000406B182188432F4948630846806B182196
:1006200088432C4988632C480068C02188432A49A4
:1006300008602A48806B202188432849886308463F
:10064000806B802188432549886300201F498039B9
:100650000862009003E000BF0098401C00900098E2
:10066000C828F8D30120194940390860486000BF04
:10067000164840384068C007C00F0028F8D0412015
:100680001249803988601548806B8021884313495E
:10069000886300BF0D488038C068C007C00F0028BD
:1006A000F8D003200949403908630120486300BF9E
:1006B00006484038406BC007C00F0028F8D0012022
:1006C000024940398863FFF7C9FE08BD80800440B5
:1006D0008000040000400440C0C10040008204408B
:1006E00010B517480068000C00041549086008465A
:1006F0000068042108431249086008460068086041
:100700000120104948610846006801218903084317
:100710000C4908600A4652691201E1235B025A4300
:100720001146084A403A926B074B1B685A431046E1
:10073000FFF7E6FD401E054908620520086010BD70
:1007400000C00040808004400000001000400640CF
:1007500030B47446641E2578641CAB4204D3635DD8
:100760005B00E31830BC18471D46F8E710B5FFF7EB
:1007700047FFFFF7B5FF172102A0FFF7A5FD0020F7
:1007800010BD000055415254506F6C6C696E67206B
:10079000526F7574696E652E0D0A00000B49096869
:1007A0000968002901D1012100E00021002904D0BD
:1007B0000021C943064A116006E004490968C96876
:1007C000C868034A416811607047000008000010C3
:1007D0003400001001460A694B68886898608B688D
:1007E000486858605068884201D18868506000208D
:1007F00008611068401E1060106870471A48006851
:10080000002803D00120194908602CE00020174976
:1008100008601748016805E0002902D172B600BFE0
:10082000FEE7491E14204843124A1058002801D1FF
:10083000012000E000200028EED114224A430D4B95
:10084000D0184268526842600246083243689342B8
:1008500002D14268526842604268D268064B1A6010
:100860000348016000BF70473C00001028000010E2
:100870001C0000104000001004000010F8B500201B
:10088000009042480068002872D141480068451C29
:100890003F480560002D1CD13E48006800680028D4
:1008A00001D1012000E00020002802D172B600BF73
:1008B000FEE7384807683848006836490860364817
:1008C000076036480068401C34490860FFF766FF3F
:1008D00000BF3348006885423DD300BF2D48006803
:1008E0000068002801D1012000E00020002804D089
:1008F0000020C0432A4908602CE026480068C068F0
:10090000C4686668B54202D22548066022E0201D10
:10091000FFF760FFA06A002803D020461830FFF7D9
:1009200059FF2049E06A0968884202D91D49E06AF6
:1009300008601422E16A51431B4A8818211DFFF701
:10094000D0FC1A49E06A0968C96A8842C6D3012006
:100950000090C3E700BF15480068C06A14214843EF
:1009600011490858012801D90120009005E0FFE74E
:100970000F480068401C0E4908600E4800680028B7
:1009800001D0012000900098F8BD00003C0000104C
:1009900018000010080000100C0000102C000010BF
:1009A000340000101C000010400000100400001073
:1009B0002400001028000010D809000000000010DA
:1009C0004000000004010000180A00004000001070
:1009D000280300002001000000366E010000000026
:1009E0000000000000000000000000000000000007
:1009F00000000000000000000000000000000000F7
:100A000000000000000000000000000000000000E6
:080A10000000000000000000DE
:04000005000000C136
:00000001FF
