:10000000602A00203D33000075330000E931000014
:10001000E9310000E9310000E9310000E931000078
:10002000E9310000E9310000E93100003130000021
:10003000E9310000E9310000D12F0000E931000072
:1000400001330000AB2C010001330000013300003C
:1000500001330000013300000133000001330000D0
:1000600001330000013300000133000001330000C0
:1000700001330000013300000133000001330000B0
:1000800001330000013300000133000001330000A0
:100090000133000001330000013300000133000090
:1000A000013300000133000000000000C9280000F7
:1000B000000000005D310000000000005D31000024
:1000C000000000005D310000000000005D31000014
:1000D000000000005D31000000000000DD44010070
:1000E000000000005D310000000000005D310000F4
:1000F000000000005D310000000000005D310000E4
:1001000000000000712C0100000000005D310000C3
:100110002C3C0020A94C0100000000005D310000D3
:10012000000000005D310000000000005D310000B3
:1001300000000000212E0000000000005D310000E2
:10014000000000005D310000000000005D31000093
:10015000000000005D310000000000005D31000083
:10016000000000005D31000000000000A12C010033
:10017000000000005D31000002B4714649084900EA
:10018000095649008E4402BC7047C04602B471460D
:1001900049084900095C49008E4402BC7047C046CA
:1001A00003B47146490840004900095E49008E4485
:1001B00003BC704703B47146490840004900095A1E
:1001C00049008E4403BC7047002243088B4274D31D
:1001D00003098B425FD3030A8B4244D3030B8B4248
:1001E00028D3030C8B420DD3FF22090212BA030C51
:1001F0008B4202D31212090265D0030B8B4219D332
:1002000000E0090AC30B8B4201D3CB03C01A524151
:10021000830B8B4201D38B03C01A5241430B8B4299
:1002200001D34B03C01A5241030B8B4201D30B0382
:10023000C01A5241C30A8B4201D3CB02C01A5241A9
:10024000830A8B4201D38B02C01A5241430A8B426C
:1002500001D34B02C01A5241030A8B4201D30B0255
:10026000C01A5241CDD2C3098B4201D3CB01C01A6F
:10027000524183098B4201D38B01C01A5241430979
:100280008B4201D34B01C01A524103098B4201D367
:100290000B01C01A5241C3088B4201D3CB00C01AD4
:1002A000524183088B4201D38B00C01A524143084C
:1002B0008B4201D34B00C01A5241411A00D2014671
:1002C000524110467047FFE701B5002000F0F0F8FA
:1002D00002BDC0460029F7D076E7704703460B43BE
:1002E0007FD4002243088B4274D303098B425FD32F
:1002F000030A8B4244D3030B8B4228D3030C8B425B
:100300000DD3FF22090212BA030C8B4202D3121240
:10031000090265D0030B8B4219D300E0090AC30B15
:100320008B4201D3CB03C01A5241830B8B4201D3C2
:100330008B03C01A5241430B8B4201D34B03C01AAB
:100340005241030B8B4201D30B03C01A5241C30A23
:100350008B4201D3CB02C01A5241830A8B4201D394
:100360008B02C01A5241430A8B4201D34B02C01A7E
:100370005241030A8B4201D30B02C01A5241CDD223
:10038000C3098B4201D3CB01C01A524183098B426E
:1003900001D38B01C01A524143098B4201D34B0157
:1003A000C01A524103098B4201D30B01C01A5241BA
:1003B000C3088B4201D3CB00C01A524183088B4241
:1003C00001D38B00C01A524143088B4201D34B002A
:1003D000C01A5241411A00D201465241104670479C
:1003E0005DE0CA0F00D04942031000D340425340A1
:1003F00000229C4603098B422DD3030A8B4212D361
:10040000FC22890112BA030A8B420CD38901921192
:100410008B4208D3890192118B4204D389013AD0CF
:10042000921100E08909C3098B4201D3CB01C01AA4
:10043000524183098B4201D38B01C01A52414309B7
:100440008B4201D34B01C01A524103098B4201D3A5
:100450000B01C01A5241C3088B4201D3CB00C01A12
:10046000524183088B4201D38B00C01A5241D9D22A
:1004700043088B4201D34B00C01A5241411A00D2AB
:100480000146634652415B10104601D34042002BA7
:1004900000D54942704763465B1000D3404201B526
:1004A000002000F005F802BD0029F8D016E77047DB
:1004B0007047C0469140031C90409C46203A9340B0
:1004C000194352426346D340194370471C2101230C
:1004D0001B04984201D3000C10391B0A984201D327
:1004E000000A08391B09984201D30009043902A205
:1004F000105C40187047C04604030202010101016C
:100500000000000000000000002B15D1002A13D1CC
:10051000002906DB01DC002806D00020C04341088A
:1005200002E080210906002007B4024801A140181A
:10053000029003BD7DFFFFFF03B4684601B502983A
:1005400000F036F9019B9E4602B00CBC7047C046D5
:10055000002B11D1002A0FD1002900D1002802D090
:100560000021C943081C07B4024802A140180290A8
:1005700003BDC0463DFFFFFF03B4684601B50298C6
:1005800000F054F8019B9E4602B00CBC7047C04678
:10059000F0B5CE46474615042D0C2E0080B5070455
:1005A000140C3F0C9946030C7E435D436743634341
:1005B0007F19340CE4199C46A54203D980235B02C1
:1005C0009846C4444B4643435143250C3604654486
:1005D000360C2404A4195B19591820000CBC904651
:1005E0009946F0BD10B50023002802D000F008F9AC
:1005F000431C180010BDC046094A43081340C01AE6
:100600000300084A8008104013401B181809C0183E
:10061000054B03401802C0180304C018000E7047B1
:1006200055555555333333330F0F0F0FF0B54F4634
:100630004646D646C0B5040082B00D0091469846A5
:100640008B422FD82CD04146484600F0CDF82900E7
:100650000600200000F0C8F8331A9C46203B9A465A
:1006600000D576E04B46524693401F004B4662460B
:1006700093401E00AF4228D825D05346A41BBD414D
:10068000002B00DA7BE0002200230092019301237B
:10069000524693400193012362469340009318E031
:1006A0008242D0D900220023009201930A9B002BA2
:1006B00001D01C605D600098019902B01CBC90469E
:1006C0009946A246F0BDA342D7D90022002300924A
:1006D00001936346002BE9D0FB0798464146720818
:1006E0000A437B0866460EE0AB4201D1A2420CD819
:1006F000A41A9D41012024196D410021013E2418B6
:100700004D41002E06D0AB42EED9013E24196D4179
:10071000002EF8D100980199534600196941002B29
:1007200023DB2B005246D3402A006446E2401C00E3
:1007300053461500002B2DDB26005746BE403300E4
:1007400026006746BE403200801A99410090019110
:10075000ACE7624620239B1A4A46DA406146130002
:1007600042468A4017001F4380E7624620239B1AB7
:100770002A0066469A402300F3401343D4E76246BA
:10078000202300219B1A0022009101920122DA40CD
:10079000019280E72023624626009B1ADE402F004C
:1007A000B0466646B74046463B003343C8E7C046BE
:1007B000F0B583B016001F000090019100F040F8E2
:1007C00004000D0002000B0030003900FFF7E0FECE
:1007D000009A019B121A8B41089920000A604B6015
:1007E000290003B0F0BDC04610B5002903D1FFF7C2
:1007F0006DFE203002E0081CFFF768FE10BDC04609
:10080000414208401C2101231B04984201D3000CE3
:1008100010391B0A984201D3000A08391B09984273
:1008200001D30009043902A2105C401A7047C04687
:100830001B1C1D1D1E1E1E1E1F1F1F1F1F1F1F1FD7
:10084000F0B54E465746DE464546E0B50F0000215E
:1008500083B006008946002F06DA39000027464299
:100860008F41012149428946002B07DA4946C94395
:10087000100089461900002342428B4134003D009C
:1008800092469846BB4269D866D041465046FFF72B
:10089000ABFF834639003000FFF7A6FF5B461B1A0B
:1008A0009C46203B9B4600D575E05146584681400A
:1008B0000B005146604681400A00BB4261D85ED0C1
:1008C00034003D005946A41A9D41002900DA7AE01F
:1008D0000021002001260090019159468E4001968A
:1008E000614601268E4061460096002950D0D90706
:1008F00056085F080E4363460EE0AF4201D1A642A0
:100900000CD8A41BBD41012124196D410022013BDB
:1009100064185541002B06D0AF42EED9013B241993
:100920006D41002BF8D1009801995B46001969418F
:10093000002B3DDB2E00DE4063462C00DC405B4696
:10094000002B4BDB34005D46AC4023006446A640E0
:100950003200801A994103E0B24296D9002000216A
:100960004B46002B04D003000C0000215842A1414B
:1009700003B03CBC90469946A246AB46F0BDB1429E
:100980009ED9002100200090019161460029AED13E
:1009900000980199E4E72023624651469B1AD9400A
:1009A0004046009161468840030000990B4380E770
:1009B000624620239B1A2A009A40260013006246B2
:1009C000D6401E43B8E7614620260127761A00204C
:1009D0000021F74000900191019781E767462023AD
:1009E00062463500BC409B1ADD4023002B43ADE737
:1009F00003000A781A70002A00D1704701330131D0
:100A0000F7E7020003001978981A002900D170470F
:100A10000133F8E703780A78934202D1002B02D120
:100A20001A00981A704701300131F3E7002330B5FE
:100A30009A4208D0013AC55CCC5C9A4202D001339C
:100A4000A542F8D02B1B180030BD70B50600032559
:100A50004E4003000C002E420AD00024A24217D1BF
:100A600070BD002AFCD02178013A1970013401339D
:100A700019002940F5D1551A032D05D89108890090
:100A8000521A5B186118E8E765585D500431F2E7C7
:100A90000D5D1D550134E1E770B503000326CDB2AD
:100AA0001C0033420ED1C9B20E0231430E04314351
:100AB0001600032E0CD893089B00E318A21893424B
:100AC00009D170BD002AFCD01D70013A0133E7E75F
:100AD00002C3043EEDE71D700133F0E773B5050076
:100AE000002402F051F9114B06001D80A5420BDDD8
:100AF0000F4B28001988FFF7F1FB0130041CC0B22E
:100B0000192800D91924E4B229002200094801F06B
:100B1000DFFA052301225C43074B00923000E31803
:100B2000023A002102F0EEF873BDC0469E1200208A
:100B300014010020A46D0100576B010007B502F0FD
:100B400023F90122034B00920021524202F0DAF80D
:100B500007BDC0465C6B010007B502F015F9012224
:100B6000034B00920021524202F0CCF807BDC04670
:100B7000576B010070B514F051FE174B174A1B68F4
:100B800012689B18181A164B98420CD91549FFF792
:100B90001BFB0325C4B22A002100134801F098FA78
:100BA000A801204370BD114B984205D91049FFF7A9
:100BB0000BFB0225C4B2EEE70E4B984206D9FA2190
:100BC0008900FFF701FB0125C4B2E4E76421FFF7C8
:100BD000FBFA0025C4B2DEE780120020500100209D
:100BE000E0750900C0270900A266010030F200008C
:100BF000102700003818000013B514F00FFE164C33
:100C000002000B000020215E019114490020095EC2
:100C10001348009101F05CFA0023E05E114B0022C2
:100C20009B5EC018104B984214DC002800DA1800B4
:100C300000B22080FFF752FF0C4B1B78012B08D12C
:100C40000B4801F045FA00220A4B0B481A7015F0C8
:100C5000A6F913BD0020EBE79E12002078120020B9
:100C6000D96B010030010020FF7F000055010020FA
:100C7000056C0100540100208C3C002073B5011E5E
:100C8000424809D1424801F023FA4249424803F060
:100C900075FE011E03D0414801F01AFA73BD404BA6
:100CA000020001930723009303003E4803F0DCFD9C
:100CB000011E1BD03C4801F00BFA3C4801F008FA39
:100CC0003B4801F005FA00203A4B019000930200E6
:100CD000030007210BF052F9041E0CD00100364826
:100CE00001F0F6F9354801F0F3F9D7E7344801F09F
:100CF000EFF93448E2E73448802501F0E9F90722AA
:100D00006D01019423002000009511000BF0A0F963
:100D1000041E02D001002D48E2E72D4E300001F004
:100D2000D7F907222B4B01940093200023001100D8
:100D30000BF08EF9041E02D001002748D0E73000E6
:100D400001F0C6F90223072201940093200023003A
:100D500011000BF07DF9041E02D001001F48BFE70F
:100D60001F4801F0B5F90722C02311000194009536
:100D70001B0220000BF07CF9011E01D01948AFE7DF
:100D8000194801F0A5F91948ADE7C04635640100DE
:100D900058640100C8660100706D010072640100B2
:100DA000C1670100E06C010093640100B1640100BF
:100DB000FE640100256401000E65010085660100E6
:100DC000D1640100E96401002C6501003A6501006D
:100DD00070650100021000009C650100D2650100F1
:100DE000016601002666010053660100706601007D
:100DF00010B501210400083015F032F9C30703D4FF
:100E00002100024814F0DBF910BDC046B8130020E1
:100E100010B50248FFF7ECFF10BDC046F83C0020BB
:100E200010B50248FFF7E4FF10BDC04600000020E7
:100E300010B50248FFF7DCFF10BDC0460C000020D3
:100E4000F7B50E0004002E4801F042F93000357964
:100E500013F0ABF92B4B1880300013F09EF9019082
:100E600014F0DCFCA3880093274B009A9C461B8857
:100E700093421AD1254BE2881B889A4215D1244B04
:100E8000019A1B78934210D106000F00214B1A687B
:100E90005B68B61A9F41002F07DC02D11E4B9E42B1
:100EA00003D81E4801F014F9F7BD1A4B6A461860C2
:100EB0005960634612881A80E288144B1A806A4689
:100EC000134B12791A700022154B1A70032D02D998
:100ED000144801F0FDF80022134B1A70042D02D9BA
:100EE000124801F0F5F8074B0020185EFFF7F6FDF9
:100EF0000F4B1B88002BD7D00E48FFF779FFD3E7A5
:100F00005468010078120020981200209A120020E4
:100F10009C12002090120020701700006E680100E3
:100F200056010020AA6801003D000020EE68010083
:100F30004C0100202401002070B5064815000C006B
:100F400001F0C6F80022044B290020001A80FFF7A8
:100F500077FF70BD286901004C01002010B5080022
:100F6000034B898819801100FFF76AFF10BDC04646
:100F70004C01002070B50400057913F00EF9124EF3
:100F80003070200013F009F9317802000F4801F0A9
:100F90009FF800220E4B1A70022D02D90D4801F065
:100FA00097F800220C4B1A70032D02D90B4801F060
:100FB0008FF814F033FC02000B00094801F088F8A8
:100FC0000848FFF715FF70BDA0120020C16D010099
:100FD00056010020AA6801003D000020EE680100D3
:100FE000E36D010034010020002110B5024B100018
:100FF0001980FFF7BFFF10BD4C01002010B5054B55
:10100000898810001980FFF7B5FF0348FFF7F0FE4D
:1010100010BDC0464C01002040010020F7B507007C
:1010200008000C000E7913F0D9F8324D286020002A
:1010300013F0B3F8304B04001B78834203D02F4BDE
:101040001A882F4B1A8014F0E9FB00222D4B0090D8
:1010500001911A70052E02D92B4801F039F80022AF
:101060002A4B1A70062E02D9294801F031F8FB8864
:10107000BE889C46274B284F1B88B34217D13B881C
:10108000634514D1254B1B78A34210D100980199D8
:10109000234B1A685B68801A99410A1E07DC02D14B
:1010A000204B984203D8204801F012F8F7BD1C4BA2
:1010B0000099019A19605A60164B1E8063463B8066
:1010C000164B1C700D4B0020185E2B68C018174B78
:1010D000984202DCC343DB17034018B2144B18805C
:1010E000FFF7FCFC134B1B88002BDFD01248FFF7E7
:1010F0007FFEDBE740000020881200209E120020C7
:101100008A12002056010020AA6801003D0000203C
:10111000EE680100981200209A1200209C12002014
:1011200090120020701700006E680100FF7F000021
:10113000781200204C01002024010020080000212A
:1011400010B5034B19801100FFF768FF10BDC046B2
:101150004C01002010B50800034B8988198011004C
:10116000FFF75CFF10BDC0464C0100203F21F8B5E1
:101170002D4B2E4D820901402D481A70297000F028
:10118000A7FF00232B4F2C4C3E6823709E420BD0B0
:10119000F317F0185840294B1988FFF79FF80130D2
:1011A000C0B2192816D820700022254B21781A7059
:1011B000224B32001B88234800F08AFF0022224B7A
:1011C0001A60194A107803280AD82978FEF7DEFF3A
:1011D0000525282A19232370E6E764224A431A606A
:1011E0001D68267828003100FEF7EEFF174A03003D
:1011F000106029003200164800F06AFF3D6824782C
:1012000028002100FFF76AF8124A03B21380290070
:101210002200114800F05CFFF8BDFA229200DDE7E1
:101220000E4ADBE70E4AD9E74E0100204F010020AD
:10123000AD660100400000204400002014010020A1
:101240003C000020E6660100500100201001002053
:10125000316701003001002069670100102700009C
:10126000C0270900F7B50D000090484800F030FF96
:101270002B792800019312F098FF454B00B21860BB
:10128000280012F08AFF434B04001B78834209D0E8
:10129000414B00229B5E414A13803D4A12689B18D5
:1012A0003F4A13803A4A2300126801993D4800F0F2
:1012B0000FFF14F0B3FA009B9B889C463A4B1B88A7
:1012C00063451BD1009BDA88384B1B889A4215D1A5
:1012D000374B1B78A34211D106000F00354B1A681B
:1012E0005B68B61A9F41002F08DC02D1324B9E4248
:1012F00004D8324800F0ECFE01242BE062462D4B6E
:101300002F4F18605960284B2E481A80009BDA88AE
:10131000264B1A80264B1C7000242B4B3C701C70F3
:101320002A4B1A781A4B196800F0D2FE184B1B682A
:10133000A34211D1264800F0CBFE264D01342800EF
:1013400014F05CFE002805D1234800F0C1FE2800FF
:1013500014F025FE2000FEBD019B2048042BC9D9B6
:10136000280012F01AFF3870280012F016FF1C4DEA
:10137000397828701B4800F0ABFE29781A4800F035
:10138000A7FE3878FFF7F2FEE4E7C046C269010025
:1013900040000020881200209E1200208A120020A7
:1013A00078120020DB690100981200209A120020B8
:1013B0009C12002090120020701700006E6801003F
:1013C00056010020FC6901004F010020540100205B
:1013D000266A01008C3C0020646A0100926A0100C8
:1013E0003D000020746A0100886A010001220C4B54
:1013F00010B51A7014F012FA0A4B1860596014F004
:101400000DFA02000B00084800F062FE0521074BB0
:1014100007481B785943074B1A6814F0A2FD10BD0A
:101420005401002080120020FA6D01003D000020D0
:101430008C3C00201001002070B50C4C0D0023786E
:101440001600012B04D10A4814F0A9FD00232370D3
:101450000022084B310028001A80FFF703FF002804
:1014600003D101232370FFF7C1FF70BD5401002099
:101470008C3C00204C010020F0B58BB002AF040082
:1014800008207B60302315003A18D3181B780E0013
:101490000A22002138183B60FFF7FEFAFF23BE81C5
:1014A0007B740722012D00D102326946D31DDB086F
:1014B000DB00CB1A9D4602AB7B61FB610823002158
:1014C0000C267A83FA1839839019164906F0B0FE73
:1014D0000823FB182100981912F0FDFD012D0BD1F6
:1014E0003500043EBB197968581912F0F4FDBB1998
:1014F0003968581912F0EFFD082100230C227818E2
:10150000821801000093084806F0BAFE002802D0B5
:10151000064800F0DDFD2100054800F0D9FDBD467C
:1015200009B0F0BD04820000EC3600200C6B010015
:10153000396B010037B5040014F070F90B001B493A
:1015400002008C4220D11A4800F0C2FD14F066F966
:10155000184C0B00217802000091174800F0B8FDEC
:1015600023780024154D2B70154B1C7001F00CFCDA
:101570007D222B7821005343124A9B1801220092AE
:10158000023A01F0BFFB37BD0F498C42FBD10F4C33
:101590000F482188009100F09BFD0022074B218815
:1015A000187800921300FFF767FFECE73401002082
:1015B000F06C0100A0120020176D01009D120020A8
:1015C00054010020576B0100400100204C01002015
:1015D0003E6D0100F7B50C000B4800F079FD0020CE
:1015E0000A4BA6881D780A4B1C780A4B1F78844248
:1015F00001D0FFF7BFFA00903B0031002800220025
:10160000FFF73AFFF7BDC046CB6A01009D120020EC
:1016100054010020A0120020F0B5040089B002AFF0
:101620000A2200213800FFF737FAFF23BC802C4D37
:101630002C4C280021787B7200F04AFD227802238E
:10164000012A00D103331A0069460D32D208D200B4
:101650008A1A954600210C2602AA06333982B81947
:1016600021497B82FA607A6106F0E2FD2178280048
:1016700000F02EFD1D4D23782988002B1CD1B819B0
:1016800012F031FD00230C220093BA1839001848DB
:1016900006F0F6FD002802D0164800F019FD14F0FF
:1016A000BDF802000B000020295E1348009100F0F5
:1016B0000FFDBD4607B0F0BD0C26B81912F013FDA2
:1016C0000E4BB819198812F00EFD2178002902D0AE
:1016D000FFF750FA01000C23F81812F0FCFCD1E7D8
:1016E0004169010054010020088200009E12002080
:1016F00008370020716901009E69010078120020FE
:1017000037B5040014F08AF80B00174902008C4228
:101710001CD10524154800F0DBFC154D154829782F
:10172000614300F0D5FC2878604313F0EFFF14F01C
:1017300075F80B00104902000020095E0F48009167
:1017400000F0C6FC0E48FFF753FB37BD0D498C4235
:10175000FBD10D4C0D482188009100F0B9FC208888
:10176000FFF75AFFF1E7C04618010020206C010086
:101770003D000020476C0100781200205E6C0100E3
:10178000F83C0020240100204C010020856C010061
:10179000F8B5144D0C002B781700012B04D112481A
:1017A00014F0FDFB00232B70104EA388390020009D
:1017B0003380FFF757FD002810D10D4C0023E75E62
:1017C0000C4B1B68002B0ADB0B4B30882380FFF788
:1017D00023FF012327802B70FFF708FEF8BD074B7E
:1017E000F3E7C046540100208C3C00204C0100204F
:1017F0007812002040000020FF7F00000080FFFFE3
:1018000010B50C00044800F063FCA088034B18805E
:10181000FFF702FF10BDC046E16701004C01002048
:1018200070B5224813F0B0FA041E03D1204800F02E
:101830004FFC70BD00251F4B1F4A1D605A609D6004
:10184000436829001E6811223223B0471B491C4BF4
:1018500001224B6080239B028B6063682000DB6861
:101860009847636829001B69112220009847154B8F
:10187000154A1D605A609D60636829001E681A221F
:1018800032232000B0471149114B01224B608023C5
:10189000DB048B6063682000DB68984763681A226A
:1018A0001B69290020009847C3E7C046D86601009D
:1018B000DF660100000000203D0B0000C800002092
:1018C000210E00000C000020590B0000D400002065
:1018D000310E000010B50721114800F0F9FB114B43
:1018E000114A1A80FFF79CFF0023104A1049136029
:1018F000516093600F4A10485160136093600F4924
:101900000F4A5160136093600E4A516013609360F8
:1019100002F054FD011E02D00B4800F0D9FB10BDAF
:10192000B36C0100140100201E05000034010020EA
:1019300035150000400100207D0C0000011700005B
:101940001801002024010020C26C010030B5EFF323
:10195000108072B61D490B68DBB2012B0FD11C4BF6
:101960001B681B070BD11B4BE0251A68F0231400E2
:101970001C402A421FD1184A12681A421ED00B6816
:10198000DBB2012B12D1124A126812070ED1F021DC
:10199000104A12680A40402A08D10F4A12680A42C7
:1019A00004D18021C122C905D2008B50002800D16A
:1019B00062B6002030BD302CDDD0E0E7074B084A8E
:1019C0001A608022074B12021A60D8E7E00F00F07D
:1019D000E40F00F0E80F00F0EC0F00F00405004009
:1019E000DFFF07C0186C004010B5040008001100AC
:1019F0001A00A04713F0AEFE01F060FC30B50C24D5
:101A00004C43C568C07A2C1988420ADB21001F208C
:101A1000D4170440A4186411A400091910401960D7
:101A200030BD2168F3E707B501ABFFF7E7FF0123FE
:101A30008340019A11680B43136007BD07B501ABE2
:101A4000FFF7DCFF01238340019A1168994311607D
:101A500007BDF7B504000026038945686B43009372
:101A6000009A03689F18837A0193019BB34204DCB8
:101A700000252389AB421ADCF7BD29000098FEF748
:101A8000A3FB0C237343E268D3181A1D5A609A60B3
:101A90001F2806DCE6720323AD0803359D4301369B
:101AA000E3E71F30400980001F603F18F3E76368D9
:101AB00022686B43D318E2682000111D19609168F9
:101AC000596091680B60936000212A00FFF7ABFF1B
:101AD0000135CEE7F0B58BB000AF7A606A463B6067
:101AE0003962867A0400B3000A33DB08DB00D31ABC
:101AF0009D467B62436803206A4603338343012586
:101B000013600023043A6D42F861591EB9619E4288
:101B10000BDD002B05D01068F9698008033088437D
:101B200050605168386A814208D2BB69013311D1D3
:101B300000230C203A6C1360404244E00C205843D0
:101B4000E1680818011D4068884200D01D0001337B
:101B50000432DAE76B1CEBD0AB003B627B6AAA0075
:101B6000D1580C236B437B617A69E3689B185E68EC
:101B700004339E4264D0736832681A6032685360DE
:101B80002368F01AFEF7AAFB290002002000FFF7E5
:101B900055FF7A6A6B1C9446FB603B6A63443B6169
:101BA0002368BA69F01AFB68013B9A420EDC7B6835
:101BB0001A6093007A6A9958FEF790FB3B681860A8
:101BC00000203B6C1E60BD460BB0F0BD3B69196840
:101BD000FEF784FB8300BB607B690C337B610123D0
:101BE000FB613B69BA685D68FB69F9686B43F31890
:101BF0003B62FB6920009A18FFF715FF3B6A013D25
:101C00005D1923686268ED1A238953439D420CD203
:101C1000E3687A69396A9B181A1D0A600A00996894
:101C200051609A68396A11609960FB690133FB6100
:101C3000042BD6D1FB680133FB603B690433AEE76C
:101C40000B2079E7F0B589B0837A050068469B00E0
:101C50000A33DB08DB00C31A00AF9D460324684645
:101C60000126BB606B680333A3430360B14251D2CA
:101C7000140079617B69BA689B00D35879692200A6
:101C800028003B612E68FFF7CEFE7B69002B49D010
:101C90001C232200FB1879692800FFF7AFFE0322FE
:101CA0000300C0171040C018FB6980101B6880003B
:101CB000C3400F210B408B4234D10023FB60230033
:101CC00093437B60FA687B6879699E18320028002C
:101CD000FFF7B4FEB4420FD03B6969685E435A1EF9
:101CE0002B689B19B6182A894A43964204D25A682F
:101CF000196811601B685A60FB680133FB60042B94
:101D0000E0D17B69E217013B7B6103231A40141980
:101D1000A410AFE7036801369B080333A343436075
:101D20000430A3E73B692A685C43013B3619F3188A
:101D30009B1A69682A894A4393420BD20C237A6919
:101D4000E9685343C9180B1D33608B6873608B6857
:101D50001E608E60BD4609B0F0BD002070470000D7
:101D60000B6810B501330B60014B1B68984710BD21
:101D700024370020F0B587B003930C9B0700029135
:101D800014000193002B01DC012301932023059310
:101D9000039B012B01D12F3305930A2300930023CA
:101DA00001261F4D0493049B002B01D1A54226D28E
:101DB000691C2000FEF708FA02993030B847012369
:101DC00001360493009B691C013B20000093FEF741
:101DD00081FA28000C000A21FEF7F6F9009B0500A5
:101DE000012BE0D1200002993030B847039B032B30
:101DF00003D1019B9C1B002C0DDC07B0F0BD019BA7
:101E0000009A9342DEDB039B022BDBD802990598F4
:101E1000B8470136D6E702992020B847013CEAE7E7
:101E2000FFC99A3B8A680B6830B5551C002B02D05D
:101E30004C68944201DC8D6030BD013C9B188D6084
:101E4000944202D100221A70F6E71870F4E70000FD
:101E5000014B18607047C04624370020F0B51C00C5
:101E600000238DB00593013B0393002307001E0060
:101E7000029107920493079B1878002801D10DB0B6
:101E8000F0BD002E08D1252800D107E10299B847FE
:101E9000079B01330793EEE764285DD018D83928F3
:101EA0000AD831284CD22D2839D030283AD02528CC
:101EB00008D10299B84765E0582800D187E0632827
:101EC00000D1E6E002992520B847079B1878F0E793
:101ED000702872D006D869283ED06C2838D068287F
:101EE000F0D1D5E7752857D014D87328EAD12668E1
:101EF000251D34002078002800D0C1E0049B032B6E
:101F000000D0D4E0039BA41B1C1B002C00DDBBE015
:101F10002C0037E078285AD07A28B9D0D2E70323AA
:101F20000493B5E7039B002B0DDA049B002B00D133
:101F3000BBE0049B30380390002BA9D10233EFE7BC
:101F4000039B002BF5DB0A23039A53431818F0E791
:101F5000059B013305939BE7059B012B14DC25684A
:101F60000434002D06DA02992D20B847039B6D42F8
:101F7000013B03932A00039B0093049B02993800C2
:101F8000FFF7F8FE002683E7073423000722934378
:101F90001C001D680834E4E7059B012B05DC226862
:101FA0000434039B0093049BE8E7073423000722D3
:101FB00093431C001A680834F3E702993020B847AD
:101FC00002997820B84708230393073B0493059BA5
:101FD000012B16DC2368043409930823069300239D
:101FE000082508930B93013D0998AB00D8400F23B7
:101FF000184012D10B9B002B01D1002D2CD1302386
:102000000FE007342300072293431C001B680834A9
:102010000993E2E70A9B0693E5E75723092800D8CE
:10202000273BC0180299B847089B0B9601330893C9
:10203000069B0A93002DEDD1049B2E00032B00D0AC
:1020400026E7039B5D00089BED1A002D9ADD02999F
:102050002020B847013DF8E7069B069A013B0A930A
:10206000039B9342E6DB049B012B03D130200299B2
:10207000B847DFE7049B022BDCD102992020F7E769
:1020800002990134B84735E702992020B847013C4E
:102090003BE702992068251DB84739E701235B42D9
:1020A0000596049603930126F2E6012338E72C00F7
:1020B0000600EDE607B50B00002102000191034880
:1020C00001A9FFF7CBFE01980EBDC046611D0000BF
:1020D0000FB407B504A901C90191FFF7EBFF03B0E5
:1020E00008BC04B0184700000CB430B5002585B01A
:1020F00008AB04CB01900291040001A907480093AA
:102100000395FFF7ABFE0398029B984200DA255433
:1021100005B030BC08BC02B01847C046251E000000
:10212000704770B50D001C001100AB4204D81A00B6
:10213000FEF78BFC200070BD0024FBE710B5FEF716
:10214000ABFC10BD1B23C209534340005840C0B232
:1021500070470B6802781B0E534003700B6842787F
:102160001B0C534043700B6882781B0A53408370EA
:102170000A68C3785340C3704B6802791B0E534002
:1021800003714B6842791B0C534043714B68827951
:102190001B0A534083714A68C3795340C3718B68EB
:1021A000027A1B0E534003728B68427A1B0C534019
:1021B00043728B68827A1B0A534083728A68C37A9F
:1021C0005340C372CB68027B1B0E53400373CB6832
:1021D000427B1B0C53404373CB68827B1B0A5340EA
:1021E0008373CB68C27B5340C37370471FB56A4685
:1021F0000378137043795370837A9370C37BD370E1
:1022000003791371437A5371837B9371C378D371CC
:10221000037A1372437B537283789372C379D372B8
:10222000037B13734378537383799373C37AD373A4
:1022300010231900FFF775FF05B000BDF8B50600C3
:1022400008780C00FFF77EFF05006078FFF77AFF43
:10225000A27863785340E27853406B405840307026
:1022600060782778FFF76EFF0500A078FFF76AFF18
:10227000A378E2787B4053406B40584070706078A0
:1022800025784540A078FFF75DFF0700E078FFF76D
:1022900059FFE3785D406F407840B0702078FFF7D9
:1022A00051FF637825785D40A3785D404540E07834
:1022B000FFF748FFEDB24540F570F8BDF0B58DB0C1
:1022C00001AC2200244BE0CBE0C2E0CBE0C2E0CB8B
:1022D000E0C260CB60C2031E3AD00B1E38D00D00A6
:1022E000020010350B784E781B0636043343CE7847
:1022F00033438E7804313602334308C28D42F1D124
:10230000182304229C46FF27144E0321C3680A4267
:1023100016D16146CB41190E755C19003940715CCC
:102320002D060D43190C39401B0A715C3B40F35CD0
:10233000090429431B020B439108890061584B4053
:10234000016801324B40036104302C2ADDD10123A6
:1023500018000DB0F0BDC046A0630100166E01006C
:10236000F0B506008BB0140000285CD0081E5AD0CF
:102370000020824257D010230A0002A81900FFF75C
:10238000D0FE210002A8FFF7E4FE2300250010275D
:10239000A033103501930023244A02A9595C02A8F6
:1023A000515C19540133102BF7D1FFF71FFF02A91D
:1023B00006A8FFF743FF03A907A8FFF73FFF04A9FB
:1023C00008A8FFF73BFF05A909A8FFF737FF3B0067
:1023D00006AA390002A8FFF7A4FE290002A8FFF709
:1023E000B8FE019B1035AB42D5D100250F4A02AB98
:1023F000EB5C02A9D35C6B540135102DF7D10800BA
:10240000FFF7F4FE210002A8A031FFF7A2FE2B0087
:1024100002AA29003000FFF784FE02A82A0000214A
:10242000FFF78CFE01200BB0F0BDC046166E010018
:102430000B7810B587227F2B00D800220F23CC5CAD
:1024400064006240C254002B03D0CA5C013BD20935
:10245000F5E710BD002110B5884203D05822FFF7E0
:102460006DFE0121080010BD70B500240500A042DA
:1024700010D021001022FFF761FE28001022210059
:102480003030FFF75BFE802300225B022A656B651C
:102490006C640134200070BDF8B504000F00160014
:1024A000051E24D00025A94221D058222900FFF77B
:1024B00045FE3900A6643000FFF700FF2900250023
:1024C00010222000FFF73AFE1035A26C21002000F8
:1024D000FFF746FF28002100FFF7AAFF2000290090
:1024E0002030FFF7A5FF2000FFF7BEFF01252800E1
:1024F000F8BDF7B504000E001500071E26D0002A0F
:1025000001D1012722E00F1E20D0026D436D00276C
:1025100011001943B94219D001204042C1171218C5
:102520004B41606C22656365B8422BD010231B1AA7
:102530003030019320189D420AD22B00290032002E
:10254000FFF7EFFD636C01375D1965643800FEBD70
:10255000019B32001900FFF7E4FD019B2100ED1AF9
:10256000F6182300676410311A0030321878127898
:1025700042401A7001338B42F6D1A26C2100200038
:10258000FFF7EEFE2F007219D21B102F09D8002F73
:10259000B7D020003B0030303900FFF7C2FD676440
:1025A000AFE70023E15CD05C4140E1540133102BE4
:1025B000F8D1A26C21002000FFF7D2FE103FE2E725
:1025C00070B505000C0000281BD0081E19D0486CFF
:1025D000102817D10800103000231E00E25CC15CF7
:1025E00030365140A25D4A40E2540133102BF4D101
:1025F000A26C21002800FFF7B3FE2000FFF72AFF9E
:10260000012070BD1022121A303008180021FFF787
:1026100095FD80222000636C2030E31830331A705F
:10262000DAE7000037B50D4D280013F00DFD041E4C
:1026300007D10B4812F0A8FB04000100280013F09A
:1026400005FD636804221B6801A920009847002843
:1026500002DA00F05DFC019001983EBD58010020B7
:10266000166F010070B50400074D0A2804D12868D0
:102670000D2143685B6898472868E1B243685B684E
:102680009847200070BDC0465C01002010B502488C
:10269000FFF7DEFB10BDC0466526000010B50448FC
:1026A00012F072FB034B1860FFF7F0FF002010BD23
:1026B000206F01005C01002010B5EFF3108272B6AC
:1026C00015490B78002B05D1002A00D162B64520B0
:1026D000404213E0013BDBB20B70002B04D0002A18
:1026E00000D162B61020F3E70C4B01201C78002CBF
:1026F00005D00870002A0DD162B60C3810BD1870D4
:10270000002A00D162B6802201210020D20551604A
:102710001870F3E70B20DBE7620100206101002065
:10272000002210B51000012100F0EEFC002000F0A6
:10273000C1FC002010BD000070B5EFF3108372B62D
:10274000274A1078441C147000280BD0002B00D1AD
:1027500062B68022234BD205D3580020DB0300D47D
:10276000443870BD204E3478002C06D01070002BF9
:1027700000D162B60B204042F3E701223270002BF9
:1027800000D162B68024194DE405002924D0002030
:1027900000F09CFC0023C1226B6092000133A15821
:1027A000A35023606B68002B12D000236B600133B1
:1027B000194202D1C2229200A350C02301210C4A27
:1027C0005B00D150002000F075FC00233370C0E79F
:1027D00020BF40BF20BFE5E7012369602360F4E725
:1027E000620100200C04000061010020FC00004098
:1027F00000E100E0F8B507000D00EFF3108372B6BA
:102800002D4A117800290CD0002B00D162B680220D
:102810008323D205DB00D3580020DB0300D44438E7
:10282000F8BD01211170002B00D162B6002000F02C
:102830004DFC0022214C8023A260C1220220DB0536
:10284000920099589850A322D2009D5001229A607C
:10285000A268002A2CD00022A2600232114202D1CA
:10286000C22189005A50C0230126154A5B00D65068
:10287000002000F01FFC8023C22218209200DB05FC
:102880009850032100222940226162619142BED109
:10289000A7221024D2009C50C122920098509E5032
:1028A0003800FFF749FF0028B1D1064B5E60AEE764
:1028B00020BF40BF20BFCBE760010020FC000040EC
:1028C00000E100E0FCE100E0F7B5244C8023E26881
:1028D000DB059446C1229200995801220A40204902
:1028E00005005E5800926768A068216962690192DC
:1028F0006246002A01D00022E260002F01D00027AA
:102900006760009A002A06D0F20304D5C22601228D
:10291000B6009A511A61002801D00023A360002953
:1029200008D0002128002161FFF7C6FE8023012284
:10293000DB055A61019B002B0ED000218022C123B0
:1029400061610124D2059B00D4502800FFF7F4FEFA
:10295000002801D1034B5C60F7BDC046FC0000407D
:102960000C040000FCE100E010B50400043013F09A
:1029700016FB2200002339326365013A537013704D
:1029800007223A3423789343237010BDF7B5020031
:1029900004008C46002301263C32092700215F43B6
:1029A00011600D001D49C919019167460199485DE3
:1029B0000109795C0007000FC140314206D03000A8
:1029C000291D884001001068014311600135092D5F
:1029D000EBD1106812493500814318000D30854055
:1029E0000133294302C2032BD7D1230000223B33FA
:1029F0001A70236D01330AD101225242D317A26407
:102A0000E364201D0422002113F0ABFAF7BD12F09D
:102A100005FF226DD31712184B41F0E7566F0100E6
:102A2000F01F000010B543680A001C680021012354
:102A3000A04710BD10B51B4812F0A6F91A4C0D2185
:102A40002060FFF7EFFF0E212068FFF7EBFF0F215B
:102A50002068FFF7E7FF04212068FFF7E3FF052167
:102A60002068FFF7DFFF06212068FFF7DBFF072163
:102A70002068FFF7D7FF08212068FFF7D3FF09215F
:102A80002068FFF7CFFF0A212068FFF7CBFF0B215B
:102A90002068FFF7C7FF0C212068FFF7C3FF002065
:102AA00010BDC046D86601002837002003003A3325
:102AB000197802004B0702D00A480B070DD4536D5A
:102AC00039321278890609D59B5C0648203BDAB278
:102AD0005E2A02D805225343181870470520504338
:102AE000FAE7C046716F0100030001653A331B78B5
:102AF00010B5416D9B0608D50B780549203BDAB22D
:102B00005E2A02D805225343C918FFF73FFF10BDC4
:102B1000716F0100043810B500680022436801217C
:102B20005C68014BA04710BDF01F0000F0B5040029
:102B300026003736051F337828680E3342689B001D
:102B4000EB18576887B05B6800220121B8473078DE
:102B500003210130FDF7A8FC0F1E317000D097E073
:102B6000AB6C013303D1EB6C013300D190E012F078
:102B700055FEEB6C8B4205DB00D089E0AB6C8342E9
:102B800000D385E0210036310A78530700D19CE05C
:102B90005306DB0F05330193100008231840009003
:102BA00001985607760F864258DA18331A40039276
:102BB0002800FFF77BFF039B0290211F002B20D0F2
:102BC000009B4A6D002B09D012784D4B203AD1B2B0
:102BD0005E291AD805214A439B1816E02300353395
:102BE0001978535C9C466046454B00280DD052181E
:102BF0005278203AD1B25E2907D805235343404A80
:102C0000EAE7009B002B1AD04B6D019ADB5D921B0B
:102C10009340029AD25D3241134304AABB54013758
:102C2000052FC5D107223634237801361640934349
:102C30001E43267004A92800FFF7A8FE28E0230001
:102C400035331A78013B1B78013B9C462C4B62457F
:102C5000DBDA052301325A434B6DBDE72000009EAD
:102C60003530002E16D09A430A70220020233632C7
:102C700016780778334011D06B6DDB5D5C426341A1
:102C8000DBB2002B15D0F3060DD42800FFF76CFE45
:102C900007B0F0BD037801330370E6E734342478DD
:102CA000A7425B41ECE7002303701078083303432D
:102CB000137007220B7893431A00012313430B7000
:102CC0002800FFF7F3FE0100B5E72100202335318E
:102CD000087813400130C0B20870002B0AD06B6D29
:102CE0001B5C58424341DBB2002BE9D0D306CCD564
:102CF0000023E4E734342478A0425B41F3E7C04684
:102D0000716F0100F7B50400009308AB1B780F004A
:102D100016000193FFF728FE694625002200097975
:102D20003A3538322B781170009A00216265220002
:102D300039321170FA03D20F8F3112010B40134355
:102D40002B70BBB2012B02D9022B05D0F7BD31008D
:102D50002000FFF7C9FEF9E7002E0FD00521300053
:102D6000FDF7BCFA206507222B780649934302320F
:102D700013432B702000FFF709FEE7E7502323657C
:102D8000F1E7C046716F0100004870472837002006
:102D9000A822084BD2009850074A9B58C01A00023C
:102DA000000A064B0238984203D98022044B920253
:102DB0005A6070470010014004050000FDFF7F00CD
:102DC000FCE100E070B5114A114B124CD058256857
:102DD000401B0002000A822812D98321FDF7F4F972
:102DE0000D4B1A68824200D90200832353435B19BA
:102DF0001B021B0A2360094B10001A6012F016FD1B
:102E000020688330FFF7C4FF70BDC046001001404A
:102E1000040500006801002064010020E83B002058
:102E2000002210B5024B5A64FFF7CCFF10BDC0461C
:102E3000FC100140074A10B50300904200D913006E
:102E40008320054A58431360044B1B68C018FFF7E2
:102E50009FFF10BD23FA00006401002068010020DC
:102E60000022074B10B580215A64C023054A5B003D
:102E70008902D150FFF7A6FF0122034B1A6010BD53
:102E8000FC10014000E100E06401002070B51A4828
:102E900011F07AFF00282BD000240126436800217E
:102EA0001B689847154B83221C60154B154D1E60FF
:102EB000A123DB00EC503833EA508023D1225B029F
:102EC0009200AB50403AAB500F4B80215C64C02362
:102ED0000E4A5B008902D15011202200310000F01F
:102EE00013F9112000F0E6F82000AE602E6070BDEE
:102EF00001204042FBE7C046406F0100680100200E
:102F00006401002000100140FC10014000E100E0DD
:102F10000A490B4A70B58B580A4E34687568885850
:102F2000834209D183206043181A074B00021B68B3
:102F3000000A5C43001970BD0300EEE70010014079
:102F400004050000B0130020EC3B00200648816817
:102F5000006A884207D000B512F088FB01BC8646A3
:102F60000249034A0A6070477C13002004ED00E028
:102F700000000010F0B5C02400220326FF25A400A5
:102F800010002F003040C0008740930804499B0088
:102F90005B1819590132B94319511A2AF0D1F0BD01
:102FA00000E100E0074A0849936809681866596615
:102FB000802306495B05486803434B6062B693680B
:102FC000586E70477C130020F4BF010000ED00E054
:102FD00013498A6813481044EFF3098CF0C0434644
:102FE0004C4655465E466746F8C00F4F0F4E72B6C8
:102FF0000A6A8A603E60106E00231366002800D1C2
:1030000062B6084C10191030F8C89846A146AA4676
:10301000B346BC462438F0C88CF3098870470000DA
:103020007C1300202C00000004ED00E000000008EC
:1030300009487146014202D0EFF3098001D1EFF354
:103040000880816902390978022900D07EE700B53D
:1030500000F004F900BD0000040000000E4B10B5A4
:103060005A680400D205D20D032A0ED10B48FFF78F
:103070002FF812F06FFBA26901000948FFF728F84A
:103080002100002000F0F0F810BD06490F2A00DDF5
:103090000549103A0548F1E700ED00E084710100B0
:1030A0009C710100567101006B710100E671010015
:1030B00070470000030605D41F2318401E3B8340C1
:1030C000014A13607047C04600E100E0030609D4DE
:1030D0001F2318401E3B8340034AD367BFF34F8F23
:1030E000BFF36F8F7047C04604E100E04309054A13
:1030F0009B009B581F2210401E3A8240100018402F
:103100007047C04600E100E030B5FF2503242A00E7
:1031100043B2C0B20440E400A24089012940D24336
:10312000A140002B0ADBC0240A489B089B001B1807
:10313000A400185902401143195130BD0F23034018
:10314000083B05489B089B001B18D86902401143A7
:10315000D961F2E700E100E000ED00E010B500F019
:1031600043F810BD10B5EFF3108472B6054BD86963
:10317000002803D00022DA6111F02EFE002C00D1CD
:1031800062B610BD7C130020F8B517001E000C00BD
:103190000A9B09990422050012F042FD390007221A
:1031A00001200023203961189143094A2B6582438D
:1031B0006B658A61069A0E604A60079A8A60089A6F
:1031C000CA6080225204CA61E9642B66F8BDC04619
:1031D000E9190000014910220A60704710ED00E073
:1031E00062B630BF7047C04662B6064871460142BB
:1031F00002D0EFF3098001D1EFF3088000B5FFF7AB
:103200002DFF00BD0400000070B504000D0004286F
:1032100009D0052816D00C48032C05D021000B48F6
:10322000FEF756FF02E00A48FEF752FF12F092FA4C
:10323000AA6901000748FEF74BFF2900200000F0B3
:1032400013F870BD0448EFE7FA71010055720100F0
:1032500020720100787201003A72010010B501007D
:103260000068FFF7D1FF10BD10B505280CD012F093
:1032700014FC00280BD012F010FC0B49002800D1E0
:103280000A490B48FEF724FFFFF7AAFFFCE712F0FC
:103290000DFC0028EFD1074C0748A168FEF718FF86
:1032A000A06800F00BF810BDB4720100B872010004
:1032B000C97201007C130020E972010070B505009D
:1032C000EFF3108472B612F049FC0B4B9B68AB42D3
:1032D0000DD10A4B5A68D20504D112F0C7F920006B
:1032E000FFF760FE8022596852050A435A602000A9
:1032F00012F080F870BDC0467C13002000ED00E0A5
:1033000000B572B60A4AD069002803D00021D16105
:1033100011F062FD62B6EFF305800649401AC00065
:103320000549014409C9984708BC9E460EE60000BD
:103330007C13002010000000A800000072B60548B1
:103340000549401880F30988022080F31488BFF3F0
:103350006F8F06E0602B00208002000030BFFDE789
:10336000704710B5FFF7FCFF11F066FD11F070FD1E
:1033700011F094FD10B5FFF7F1FFFFF7E7FD10BD69
:10338000F0B5EFF3108372B68122134D134E2C78F3
:10339000624392190326013434402C70002B00D173
:1033A00062B6402900D9402103000F2710000C4DC0
:1033B0005E18B34204D10023490010008B54F0BDC5
:1033C0001C7824092C5D04701C7801333C402C5D72
:1033D00044700230EDE7C046C8010020C90100205A
:1033E00078730100122130B50C000E4A0E4D13788F
:1033F00087B05C432C19012501332B4013700278F0
:10340000437904924278039282780292C2780192C0
:10341000027920000092054AFEF766FE200007B000
:1034200030BDC046C60100206C0100205A73010067
:1034300070B51B261B4A1C4913788AB05E438E194F
:10344000012101330B4013700378040007AD032BF7
:1034500022D81800FCF79AFE021A1C1E13492800F5
:10346000FDF7C6FA6278A3790492A27805950392D3
:10347000E2781B2102922279300001926279009257
:103480000B4AFEF731FE30000AB070BD0949E6E78D
:103490000949E4E70949E2E7094A0A212800FEF759
:1034A00023FEDFE7C7010020900100200E7301001A
:1034B00037730100157301001C73010026730100AE
:1034C0003073010070B58AB069460A00084B70CBB2
:1034D00070C270CB70C270CB70C21B681360054B9A
:1034E000092801D88000435818000AB070BDC046B2
:1034F000CC630100487C0100F0B5070087B09079EB
:103500000E00140010F094FC234DA84212D0A479B0
:10351000200010F08DFC214B03900593009304953F
:10352000029401971E4B1F4A1F492048FEF7D0FD09
:1035300007B0F0BD200010F081FC1D4DC000281820
:103540004388BB4210D0200010F078FC134BC00021
:1035500003932D186A881449029200930197104B27
:10356000104A1448FEF7B4FD200010F067FC104D1F
:10357000C00028184368002BDAD0200010F05EFC51
:10358000C0004655200010F059FCC0002D18686896
:1035900012F0EFF8CCE7C046243D0020478C010034
:1035A000EC730100777701007E77010081770100DD
:1035B000D0030020C677010010B50400034812F0C4
:1035C00043FD01232041184010BDC046183800209B
:1035D000F7B50191012105004942134810F0B8FCEC
:1035E0000700083704000021380010F0D1FC002348
:1035F0002000237510F022FC0C4EC00030184580CE
:10360000200010F01BFC0023C00036187360380047
:10361000032110F04FFD6B461B7905702D0A457094
:1036200083702000FEBDC046243D0020D003002052
:1036300070B50C0086B01500002903D1FFF7C8FF54
:10364000041E2ED001220021684612F089F82000C5
:1036500010F0F4FB6B46144EC0003018436020009D
:1036600010F024FD2100114810F0E0FC10496846DC
:1036700012F0A3F8200010F0E1FBC000805D0028EC
:1036800005D0200010F0E0FC0520404202E0002DB3
:1036900002D02C6006B070BD200010F0D5FC2800D0
:1036A000F8E73720F1E7C046D00300204C3800206F
:1036B0001027000070B5022105001548FFF788FFAC
:1036C000041E22D00221083010F0F4FC0600012D67
:1036D00014D10B20FFF770FF7070210035700022AD
:1036E0000B48FFF7A5FF041E06D10A48012D08D19B
:1036F0008021490012F0B4FC200070BD002343700B
:10370000EBE7054912F0B7FCF6E737246442F3E72C
:103710000C20000018380020FFFEFFFF70B5134E8C
:10372000062231000500FDF781F9041E19D006219B
:103730000F48FFF74DFF041E15D006222900083060
:1037400010F0BFFC210000220948FFF771FF041EA2
:1037500007D1062229003000FDF777F90122054B39
:10376000DA71200070BD37246442FAE7B0370020D8
:1037700005200000A837002007B50621684609F09B
:1037800091FC002808D16B463F225B7968461340C4
:103790006A465371FFF7C2FF0EBDF7B50D00202139
:1037A00000900192FFF714FF061E35D0202108304B
:1037B00010F080FC2022002104000027FDF76CF9A6
:1037C000019B9F4205D1002231000098FFF730FF96
:1037D000FEBD23786A78D11802311F2905DD30003B
:1037E00010F032FC16204042F2E7501CE1184870FD
:1037F000981CC0B2207001332978DBB2E3185970ED
:10380000013069682018FDF720F96A7823780137BC
:103810009B1823700835D3E73720E4E710B509205B
:10382000FFF7CAFE041E01D0002010BD0820FFF7DC
:10383000C3FE0028F8D02000FFF73CFFF5E7012386
:1038400010B5062104000370C01809F02BFC0028F5
:1038500004D14023A2795B421343A37110BD000041
:10386000104B13B51A78012A04D19B793E32934349
:10387000C02B0CD00C4B0D4A019300930C490D4BFF
:103880000D481624FEF724FC6442200016BD0B48A8
:10389000FFF744FF041EF8D10421094812F0E0FBB1
:1038A000F3E7C046A8370020478C01002F770100BE
:1038B0007E7701004374010036770100A9370020AC
:1038C00018380020F0B51A4D87B02800FFF7B0FD7A
:1038D000184C194E01903300184A1949029400946B
:1038E0001848FEF7F5FBAF7B3800FFF7EBFD0594BA
:1038F000AB8A124A04932B8A11490393029733002F
:10390000019000941048FEF7E3FBEF7B3800FFF7CF
:10391000D9FD04946B8A094A03930190029700949D
:10392000330007490948FEF7D3FB07B0F0BDC04696
:10393000A8370020478C01009773010056740100DE
:103940007E7701005D7401007A740100C874010083
:10395000F0B58FB00CAA0021A248FFF769FE041E43
:1039600076D10C9B9B681B78002B0AD19E4C9F4AFA
:103970002000136012F068FB0D210140200012F0BE
:1039800065FB0C9810F060FB0CAA00219848FFF72B
:103990004FFE041E5CD10C9B0822996895480131AA
:1039A000FDF753F80C9810F04FFB21000CAA924839
:1039B000FFF73EFE041E4BD10C98904D83685A7859
:1039C000AA73DA78997812020A432A821A79EA737A
:1039D0001A7AD97912020A436A825A799B791B02B0
:1039E0001343AB8210F030FB0320FFF7E5FD011E0F
:1039F00010D10CAA8248FFF71BFE041E28D10C9B95
:103A0000062299687F480131FDF71FF80C982C7049
:103A100010F01AFB0CAA00217B48FFF709FE041ED8
:103A200016D10C9B4022996878480131FDF70DF8BA
:103A30000C9810F009FBAB7E5B060CD4744B754AF6
:103A4000019300937449754B7548FEF741FB133C95
:103A500020000FB0F0BD21000CAA7248FFF7E8FD6E
:103A6000041EF5D10C9B082299686F480131FCF7C0
:103A7000ECFF0C9810F0E8FAAB7E9B0671D52B009A
:103A80003A331B781B0700D584E008216748FFF70D
:103A90009FFD041E6BD00821401810F00BFB06227E
:103AA00040352B781340934200D198E00223002246
:103AB00003701B0A43708270C2700271427182717E
:103AC000C27121005948FFF7B3FD041EC0D108217F
:103AD0005748FFF77DFD051E49D00821083010F03A
:103AE000E9FA802343707E3BC3701E3304708470F8
:103AF000047144718471C371220029004C48FFF79E
:103B000097FD041EA4D101000CAA4A48FFF790FDBE
:103B10004149494B002800D19CE03D4A4748019269
:103B20000092474AFEF7D4FA072200210AA8FCF7C0
:103B3000B3FF324D07220AA92800FCF777FF0028BF
:103B400000D010E12B00012660331B78334200D0F7
:103B50001AE12F4B3A4A019300932F49394B3A48C7
:103B600020E102213948FFF733FD061E02D1372438
:103B700064426DE70221083010F09CFA0123447082
:103B80000370220031003148FFF752FD041E00D1BE
:103B900075E75DE70CAA00212D48FFF749FD041EDB
:103BA00000D055E70C988268531C59785278090266
:103BB00011439A781C7912041143DA7812060A43E9
:103BC000597909020C439979DB79090421431B06D1
:103BD0000B43290080310CC110F036FA55E7C123A0
:103BE0005B0064E7030C0000183800202C04002060
:103BF00003100000BE37002001100000A83700208D
:103C000009100000A937002002100000C63700206C
:103C1000478C01002F7701007E7701003B74010083
:103C20000978010003200000203800200120000056
:103C3000010C000001FC0000A87301003D780100A8
:103C40007777010089730100DA7901006D0C0000BB
:103C50001C2000000C9A734E9568AA7868781202AE
:103C60000243032A02D87048960036586F480292E1
:103C7000039000906E4A01966E48FEF729FA2B7960
:103C8000EA781B021343AA78697812020A4365494D
:103C9000022A04D1022B02D8674A99008958634A44
:103CA000664F03920293019100926549604A3B007E
:103CB0006448FEF70DFA6A795A49032A02D8624B22
:103CC0009100C958594E0696A87A6B7A000218439B
:103CD000EB7A1B0418432B7B1B06034305932B7ABB
:103CE000E8791B0203430493AB795848039302928B
:103CF0003B004F4A019100965149FEF7E9F90C98B3
:103D000010F0A2F90CAA00215148FFF791FC051E02
:103D100006D0019600963B004E4A49494E4801E7BD
:103D20000C9B022299684D480131FCF78EFE0C98DD
:103D300010F08AF90CAA29004948FFF779FC0028FD
:103D400006D0019600963B00424A3D494548E9E6C7
:103D50000C9B0122996844480131FCF776FE0C98CF
:103D600010F072F9E0E64149072228310CA8FCF76F
:103D70006CFE07220CA92800FCF758FE002800D191
:103D8000E0E6FFF79FFD63E609AA00213848FFF748
:103D90004FFC002809D0254B2E4A01930093284957
:103DA000344B3548FEF794F928E0099B99684B7825
:103DB000002B17D00231062230482E70FCF745FE4A
:103DC000099810F041F9FFF74BFD051ED9D0174BAC
:103DD0002B4A019300931A492A4B2B48FEF778F996
:103DE0002C0035E6114B1B4A019300931449214BDB
:103DF0002648FEF76DF9099810F026F92800FFF71C
:103E00001EFD051EE3D11D48FFF7ECFA074B01909C
:103E1000029300930F4A174B09491D48FEF758F9C2
:103E2000D1E7C046487C0100587B0100478C010067
:103E300056740100717801004C7B0100A8730100E9
:103E40007E7701009A780100387C0100C278010079
:103E500002FC000077770100FF780100073800209E
:103E600003FC00003879010006380020CC63010013
:103E700009FC00008973010071790100A937002055
:103E80002F770100B47301004F7A0100A17901007E
:103E9000167A010010B5FFF75BFD041E06D1022162
:103EA000064812F0DDF82000FFF7B8FC044B1B6851
:103EB000002B01D02000984710BDC04618380020C4
:103EC00028040020034B10B5B4331B68DB68984707
:103ED00010BDC046A837002030B5050085B00C1EC7
:103EE00003D1FFF775FB041E1DD0104B9D4214D16A
:103EF0002000FFF7E7FF051E0CD00D4B0190029349
:103F000000930C4A0C4B0D490D48FEF7E1F82000D8
:103F100010F09AF8280005B030BD2100094810F0D3
:103F200085F80025F6E737256D42F3E7350C0000EC
:103F3000478C01002F770100DC7301007E770100C0
:103F4000547501004C380020F0B585B00F22404C6C
:103F50000121637B200013406373103A12F02EF9A5
:103F6000002860D1637B1B09012B0BD9042B0CD0DB
:103F7000384A019302920092374B384A38493948FF
:103F8000FEF7A6F811F094FBE0E7267B002EF9D1AE
:103F9000310035480FF0E4FF051E50D00121334FAA
:103FA0004942380011F009FC314CA0342368002B41
:103FB0002BD1280010F07AF82D4CA0342060280076
:103FC000FFF780FF0028DDD0224B2A4A24490293C4
:103FD000019000932848294BFEF77AF8380011F039
:103FE000C8FB28000FF02AFFC30025480022C01894
:103FF0001F214088FFF780FA206810F025F8002381
:104000002800236010F020F8BCE7124B194A0193F6
:1040100000931349194B1B48FEF75AF8206810F01B
:1040200013F82660C5E70B4B124A019300930C4925
:10403000154B1648FEF74CF862B6042002DF054B1C
:104040000C4A0193009306490C4B1148F2E7C04615
:1040500060380020478C01001E7401007777010052
:104060007E7701007E7A01004C3800203038002035
:10407000A83700202F770100547501001574010046
:10408000D0030020AF7A01002D740100DA7A01001C
:10409000047B0100F0B5057D8DB00400012D00D03A
:1040A000C3E0866833780E3B012B0BD8674B684A18
:1040B000019300936749684B6848FEF709F862B6B8
:1040C000042002DF070008370221380010F05DF8F5
:1040D00036783E2E00D098E0A6682900380010F00F
:1040E00054F83578082D47D0092D00D16AE0022D0B
:1040F00000D078E0380010F050F80690069B013BA5
:10410000DBB20693FF2B4ED0A5680921380010F0D2
:104110003CF82B7A0AAEEB185B7A691C07936B7834
:104120000722023B3000012B5AD8FCF78EFC337873
:10413000023B33704A4E3368002B17D0380010F022
:1041400070F8A389089009932B7A1C21A3816B46F0
:104150002A78595636683B000AA8B0476B46226950
:104160001B8CD318A3606B469B8CA381297A3800E3
:10417000013110F00AF8C1E721213A4DA668494201
:10418000280011F078FF3378002B08D1711C4022F1
:104190003548FCF75AFC1021280011F061FF334B21
:1041A0001D68002D05D120000FF04EFF00200DB03E
:1041B000F0BD002032782B68824200D1701C9847F5
:1041C0006D68EEE72A4D2B68002BECD00020A2682A
:1041D0001178814200D1501C984700232B60E2E700
:1041E000FCF733FCA6E7A689A0683100FFF7C8F802
:1041F000164B0390049300931E4A1F4B15491F480A
:1042000002960195FDF764FFCDE7A589A068290016
:10421000FFF7B6F80D4B03900493009302950196B7
:104220000D4B144A0B491648ECE7084B084A029319
:1042300000930849134B01951348FDF749FF2000EF
:104240000FF002FF16204042B1E7C046478C010044
:104250002F7701007E7701000B7401008675010045
:104260002C04002018380020E4030020240400203F
:10427000E003002077770100F9730100C5750100A4
:10428000FA750100BD7301002C760100F0B5037DC5
:1042900085B004008568012B0BD0344B344A019360
:1042A00000933449344B3548FDF712FF62B60420C1
:1042B00002DF8389012B07D82C4B2D4A01930093F1
:1042C0002C492D4B2E48EFE72B780E3B012B15D8B0
:1042D00007000837022138000FF057FF2B780E2B0C
:1042E00014D00F2B2DD020000FF0AEFE1F4B204A14
:1042F000019300931F49204B2248D5E71B4B1C4AD2
:10430000019300931B491C4B1F48CDE7A368032171
:104310009D785A782D02380015431E780FF035FF2E
:10432000A368220019782800FFF7E6F8002E02D0D3
:10433000164811F01EFA20000FF086FE002005B08E
:10434000F0BDA6680421F578B3782D021D4373787B
:10435000380003930FF019FF317822002800FFF78F
:10436000CBF8039B002BE6D0E2E7C046478C010068
:104370002F7701007E770100C573010050760100A0
:10438000947601000C770100CE76010030380020D1
:10439000094AB4321368002B08D18168002908D07B
:1043A000C168002905D010601800704745204042C0
:1043B000FBE71620FBE7C046A8370020F0B52C4CE1
:1043C00087B0B43423680700002B0BD1294B2A4A4D
:1043D0000193009329492A4B2A48FDF779FE1324BB
:1043E000644227E0284E0121300011F039FE0125FA
:1043F00028403BD1254BEB221F6009235B420590EF
:1044000004900393029001900090214B9200214967
:10441000214811F083FB23689B689847041E0CD049
:10442000144B019002930093134A154B13491B48F8
:10443000FDF74EFE200007B0F0BD002F0BD1FFF7B7
:1044400087FA041EF6D10221300011F009FE200087
:10445000FFF7E4F9EEE72900114811F001FE2842C8
:10446000E8D11049104810F0AAFEE3E74524B7E769
:10447000A8370020478C01002F7701007E770100CC
:10448000D2730100FF7401001838002028040020B6
:10449000493F000038140020300400202875010036
:1044A000143800200C380020B8130020F0B5170095
:1044B00002781E0085B005000C004388D20706D4A0
:1044C000504A927B082A02D89F2B00D895E0AA88F0
:1044D0009A4200D291E01F2B00D88EE08023DB01AE
:1044E0009A4200D989E00620FFF766F8002800D03C
:1044F00085E021003A004448FFF74FF9041E32D10D
:10450000002E29D12B78DB0726D40F220021684604
:10451000FCF7C2FA6A466B8801271380AB88538088
:10452000072353732B783B4220D00220FFF744F837
:10453000002802D03548FFF7F1F86A46314B1B7866
:10454000537100230F2132481371FFF741F8041E05
:1045500029D13724644206E00A9A31002D48FFF73A
:104560001CF9041ED1D0200005B0F0BD5B0714D5A6
:104570000220FFF721F8041E03D02448FFF7CEF8ED
:1045800004006A461F4B1B785371002CEBD10223A9
:10459000002E00D103236A46D4E7FFF7EDF86B46FF
:1045A00004005F71F1E70F22694608300FF089FDC2
:1045B000210000221648FFF73BF8041ED3D1012149
:1045C0001548FFF705F8061EC3D0012108300FF08B
:1045D00082FD220031001048FFF72AF8041EC2D1E4
:1045E0000E4E4021300011F03BFD2B789B07BAD4D2
:1045F0008021300011F034FDB5E71624AAE74524E8
:10460000A8E7C046A837002008200000A9370020EE
:1046100006200000092000000A20000018380020B1
:10462000812170B5194D4942280011F024FD062062
:10463000FEF7C2FF002802D10024200070BD012136
:104640001348FEF7C5FF041E1CD0002108300FF0F0
:1046500042FD210000220E48FEF7EAFF041EECD1C5
:1046600041212800494211F006FD0820FEF7A4FF71
:104670000028E1D00A20FEF79FFF0028DCD0FFF7DA
:104680007BF8DAE737246442D7E7C04618380020C1
:104690000A2000000378F7B505000F00012B00D9B0
:1046A00087E04378012B00D983E0418843480B1F02
:1046B0009BB2834200D97CE0AA88131F9BB283423D
:1046C00000D976E0914200D273E080243C4EA400F1
:1046D0002100300011F0C4FC044000D06CE0082040
:1046E000FEF76AFF00280AD02000FEF7E3FF041E51
:1046F00005D03000334911F0BEFC2000FEBD6B78C0
:10470000002B47D080213000090111F0A9FC0722BD
:10471000002168466C882E78AD88FCF7BDF96B46A1
:104720005C70240A1E709C706B46DD702D0A1D7132
:104730006A4600239371244B214D1B785371012E3F
:104740000AD10620FEF738FF002805D1FFF714F83C
:10475000041E2BD16B465E7107211C48FEF738FF03
:10476000041E21D00722694608300FF0AAFC210060
:104770001648FFF7B1FB0120FEF79CFF041E15D180
:10478000012E0CD180212800C90011F069FC104BCA
:104790001F60B2E70F49300011F06DFCB7E70E491A
:1047A000280011F068FCF2E737246442054928002C
:1047B000A1E716246442A0E74524FBE7FC3F000084
:1047C00018380020FFFDFFFFA83700200B20000055
:1047D0002C040020FFF7FFFFFFFBFFFF10B5074988
:1047E000074811F048FC830505D50020054B1860EB
:1047F000FFF714F810BD45204042FBE7FFFDFFFF27
:10480000183800202C04002070B5050005480FF072
:104810009FFB041E04D0002108300FF0B9FB257562
:10482000200070BD443D002010B50100EFF3108260
:1048300072B600200B4BA0331C681860824200D176
:1048400062B6002C09D00123002120002375A1812C
:1048500008300FF09DFB200010BD0120FFF7D4FFB2
:104860000400F8E7A8370020F0B58BB01D0010ABAE
:104870001B881D4C1D4F1E4E09900691079231005A
:104880001C4A08930294019300943B001A48FDF7D8
:104890001FFC10F05FFF079B05940393069B01909C
:1048A000029300943B00154A310004951448FDF72B
:1048B0000FFC2B00099A0799069800F02DFD041EA5
:1048C0000ED1104A53681B0E1B065360089803F064
:1048D0009FFA102211990C48FCF7B7F801F0C8FABA
:1048E00020000BB0F0BDC046478C0100507C010099
:1048F0007E77010056740100627C01008A7C010011
:10490000917C010074380020C038002070B510265A
:10491000134CE379334222D003F0C2FAF622002589
:10492000636810481B0E1B0663601B0E1340621C5D
:10493000D5770222B3439343E371256011F0D4F994
:1049400006F03AFB02F090FB02F0A8FB32002900CF
:104950000548FCF7A1F800F07FF900F05DFB70BDA1
:104960007438002098380020C0380020024BD879D5
:10497000C006C00F7047C0467438002010B508004C
:1049800003F032FA041E07D101F080FA02F08EFB28
:1049900000F008FB00F036F9200010BD0C23434363
:1049A0000148C0187047C0469804002070470000B6
:1049B000F0B58BB00121434849420FF0D1FA051EF2
:1049C000F8D004214269137A0B4253D08B431372FF
:1049D0003D4B10319B7B082B00D850316B691A6816
:1049E00004925A6805920A225C7AE0080130424338
:1049F00088B28A4200DB90B20722144002001B7A80
:104A00000A32013454439B07304A9B0FD35C08AFF2
:104A10003B70AB8906AE7B70AB6805210993002320
:104A2000C0003370FBF75AFC002380B27080B08066
:104A30000122009339003000FFF738FD06002800FE
:104A40000FF002FB049B0A34A4B2002B30D01B6889
:104A5000002B03D0059A310020009847002E10D07B
:104A60001B4B1C4A029300931B491C4B1C4801968C
:104A7000FDF72EFB1B491C4811F00EF810F018FE34
:104A800098E7200010F042FEFFF7CAFD049B0400E7
:104A90005B68002B01D005999847002CEAD00C4B9D
:104AA0000194029300930B4A0C4B0B490F48DFE72C
:104AB000002ED5D1200010F029FEFFF7B1FD040033
:104AC000EBE7C046D83C0020A8370020527D01000B
:104AD000478C01002F7701007E770100D27C010016
:104AE000EB7C01004A7D0100AD490000167D01000C
:104AF000F0B50F0085B01C00032A14D1A388012B48
:104B000011D920000FF049FB061E0CD0A38885B2F6
:104B1000AB420AD2184B194A019300931849194B1A
:104B20001948FDF7D5FA05B0F0BD20000FF079FB6C
:104B3000A3880290200003930FF02FFB013DA58076
:104B40002A280ED02B2812D06B46A2681B89310070
:104B5000D31823606B469B892000A3800FF015FBC0
:104B6000CCE700223900200001F068F8ECE72000D3
:104B700000F042F9E8E7C046478C01007777010072
:104B80007E770100DB7C0100567D0100F8B50C004A
:104B9000069917001E000FF0DBF9051E0FD00FF06D
:104BA0004DF9A04704000C2268610021FBF774FF57
:104BB0000323227A1F409A433A43227266722800E6
:104BC000F8BD000007B50B0000920349020003483E
:104BD000FFF7DCFF0EBDC0469D490000043D0020EC
:104BE000436910B506C304234269117A0B4313725B
:104BF0000FF05CFA010002480FF018FA10BDC04631
:104C0000D83C00207FB509210023CB2249420593DF
:104C1000049303910293019300939200034B044980
:104C2000044810F07BFF07B000BDC046B14900004A
:104C3000D81900201005002007B50622044968464F
:104C4000FBF703FF03496846FFF724FD0EBDC0468E
:104C5000FC630100F14A000010B5FFF7BFFD10BD75
:104C600010B50C0010F0C6FD206010BD10B505F0A9
:104C700051FD002802D1024811F036F810BDC0469F
:104C80007805002010B5064C01212000083011F0F5
:104C9000E7F9C30703D42100024810F090FA10BDD1
:104CA00078050020B8130020F8B504000D0000F0CE
:104CB0000DFB26000700012128000FF00CFAA37F4E
:104CC0003036002B00D04936390028000FF003FAA7
:104CD00031000822280021310FF0F3F9054B28009C
:104CE00019680FF021FA21002800283108220FF05E
:104CF000E8F9F8BD7438002073B5FFF737FE0028D7
:104D000058D001232C4A2D4C11782D4D4B40137057
:104D100034D010F06FFD2300A0331B88AB4220D0AD
:104D200023000833DB6FC01A264B984209D82300B2
:104D300088331A78244B01325343244A9B189842F3
:104D40000FD3002208210220FFF73CFF051E22D1CD
:104D50001F4B204A019300931F49204B2048FDF729
:104D6000B7F905F0D7FC012802D0E3799B0704D5F9
:104D7000154A1C491C4811F017F873BD2200A032D7
:104D80001288AA42C5D022002100893210788831C9
:104D900008701370BDE70100144E08313000FFF7B2
:104DA00083FF280032001249FFF71AFF28000FF096
:104DB0004BF9D6E70F4ADCE7A00500207438002045
:104DC000FFFF0000BF2709001027000078ECFFFF5D
:104DD000478C01002F7701007E770100847D010060
:104DE000BE7D010078050020B8130020F8380020AF
:104DF000EC7E010088130000F0B583888BB00400BE
:104E0000002B0AD1584B594A019300935849594BEA
:104E10005948FDF75DF90BB0F0BD0FF0BEF9002861
:104E2000F9D0012869D1A288142A0AD84E4B0192E0
:104E3000029300934D4A514B4D495148FDF748F9B3
:104E4000E9E7504F3B00A0331A884F4B9A425DD0A0
:104E5000152221684D48FBF7E9FD002856D14C4C3E
:104E600015E0A01D15220699FBF7EFFD002000F0CC
:104E7000C1F9002815D0A38B002B12D03A4B454A1C
:104E8000019300933A493D4B4348FDF721F905F062
:104E900041FC0128BFD16379FF2BBCD00133637182
:104EA000B9E70220FB797508EDB2034209D001226F
:104EB000D907C90F2A40914203D18343FB71FFF701
:104EC000D5FE012729000598394000F0F9FA17238B
:104ED000310004AA9B1805001A783940200000F020
:104EE00093FA00283DD0200000F0FEF92000002DAC
:104EF00000D0002000F0E2FAC9E71B4B01900293BA
:104F00000093244A1B4B1A49244897E72368200042
:104F100006930FF042F923680821060017252000A8
:104F200007930FF032F920000FF069F904ABED1888
:104F300000950590236802003100079800F038FDC5
:104F4000041E00D167E7E37F022B8AD12B78002B68
:104F500087D1054B0F4A019300930549074B104831
:104F600057E7002D93D0C4E7478C01002F7701004D
:104F70007E770100AA7D0100EF7D0100977D010091
:104F8000107E010074380020FFFF0000FE38002072
:104F9000F838002077770100827E0100BF7E010093
:104FA000417E010010B50249024810F08DFE10BD8F
:104FB000F94C000078050020012310B502240749B0
:104FC00003405A00CB79A3431343CB71002802D08E
:104FD000FFF758FE10BDFFF749FEFBE774380020CD
:104FE00010B5FFF7C3FC002802D1FFF74BFE10BD40
:104FF000064B1A00A0321188054A9142F5D00022D2
:1050000088331A80034800F06FF9EEE77438002007
:10501000FFFF0000F8380020044B10B5DB799B0738
:1050200002D4034810F060FE10BDC0467438002062
:1050300078050020F0B504002600213689B008006C
:105040001700310008220593FBF7F0FC0023050050
:10505000984225D1200006AC059B3200390039303A
:10506000009402F0FFFC082221000E98FBF7DEFC02
:105070000123002814D008210E98FEF781F9082199
:1050800006002000FEF77CF9074B02900393009383
:105090000196064B064A07490748FDF719F82B0009
:1050A000180009B0F0BDC046478C01005A7F0100CE
:1050B000777701007E770100967F0100F0B589B017
:1050C00005910121424D1F00160013782A68DB0963
:1050D0000A405A400E9B0F9C1B7D04908B43134348
:1050E0000E9A390013750023A380A3682000236063
:1050F0000EF0E0FF3A003100FBF7A7FC0E9B059A8B
:10510000197D2B68C907C90F591A206802F05CFB8A
:1051100000285BD130260E9B1F7D3E4026D12168A2
:105120002B68FF07FF0FDF1B8B78042203313F0240
:1051300007A81F43FBF789FC3100079A254BC800DD
:1051400018180668964202D14068B84225D001314D
:105150000A29F3D1204E3088C3009C461D4B0130F4
:10516000634484C380B2FBF7B5F8318021684A7983
:105170008B79120213431BB20E999AB20A81002B4B
:1051800017DC164B019202930093154A154B1649F2
:105190001648FCF79DFF162009E0104B104A0193BA
:1051A000009311490F4B1248FCF792FF45204042F3
:1051B0000AE00E9B21001A7D2B68D207D20F9A1AA3
:1051C0000498002302F062FB09B0F0BD0220EEE774
:1051D00074380020B805002008060020478C010024
:1051E00077770100657F01007E770100568401001A
:1051F0001D840100064A074B904206D0064BA0339F
:105200001A88044B824200D0002318007047C04621
:10521000FFFF0000F8380020743800200023F0B5AC
:1052200085B00E0003A90B7003000F2729330193EB
:105230006F44183B009304003B000122300002F051
:10524000FFF9051E0BD0194B194A01930093194918
:10525000194B1A48FCF73CFF280005B0F0BD10229E
:1052600031002000FBF7F1FB21003B782131237452
:10527000300002F037FA051E07D00C4B0C4A0193A0
:1052800000930C490C4B0E48E4E722000D493932DB
:10529000300002F081FA051EDED0044B044A01936F
:1052A00000930449044B0848D4E7C046478C0100EA
:1052B0002F7701007E770100F47E01006E820100ED
:1052C000AA820100D4820100D9820100031E00D00D
:1052D000837F044AD279D20701D5022213431800F2
:1052E0007047C0467438002013B50400FFF7EEFF86
:1052F00001002000A27F3030002A00D04930020097
:105300002834044B009421321B68393002F0AAFB88
:1053100016BDC04674380020F7B501931023234C06
:105320000090E6790D0017001E403DD1502231005B
:105330001F48FBF7B1FB1F4B22001E800123A23246
:105340002B4013703900002B28D01B48FFF766FF55
:10535000002802D0052040421FE023000222A33390
:105360001A706A4623001288A033E1791A8023005C
:105370000222A4331A70019B6D0823602B001025B4
:10538000013A0D43134095431D436023E5710B48DB
:10539000A418E377FFF7A8FF0020FEBD0848FFF739
:1053A0003DFF0028DDD0D5E74520D4E77438002044
:1053B000B80500200806002071390020F8380020C8
:1053C00028390020010070B54922050079313030BC
:1053D000FBF73BFB094C23005C331A88AB8B9A42EA
:1053E0000AD160342378002B06D0112204490548E5
:1053F000FBF72BFB0023237070BDC04674380020E0
:10540000E6380020D538002037B5837F0400C57FFB
:105410008B420DD0002D0BD1134B144A01930093F6
:105420001349144B1448FCF753FE2A0010003EBDEC
:105430000B00581E8341A377002905D00022012DBF
:10544000F4D10223E377F0E7012D03D0022D03D03E
:105450000A00EBE7002AE9D02000FFF7B3FF0023A2
:105460000122E377E2E7C046478C0100777701002D
:105470007E7701000C7F0100C47F010070B500241D
:1054800001250D4823181A004932FF321288002ADC
:105490000BD04B33FF331A78002A0AD04930FF3043
:1054A000001908220021FBF7F7FA0834502CE8D144
:1054B00070BD1D70F9E7C0467438002070470000C9
:1054C0000122F0B54C4C85B0E77906000D00236849
:1054D000174013D098420BD0484A02930392019090
:1054E0000092474B474A48494848FCF7F1FD01E024
:1054F000002958D00025280005B0F0BD984279D089
:1055000003D31A002A32824209D23C4A0293039200
:10551000009201963A4B3E4A3B493E48E5E701334B
:10552000834230D2354B374A019300933649344B8E
:105530003948FCF7CDFD502239003848FBF7ACFA6A
:10554000636826601B0E1B06636001232A0000218E
:10555000E5791A409D431543E218E571D1771D4264
:1055600043D02660FFF78AFF2D4A2E492E48A034EB
:1055700010F01AFC22882D4B01259A42BBD02C48F2
:10558000FFF7B2FEB7E783420BD100290BD11B4BCB
:105590001C4A019300931C49194B2648FCF798FDBF
:1055A000A9E70029A7D0631CDB7F5F2B09D8134B29
:1055B000144A019300931449114B1F48FCF788FDCE
:1055C00098E7002DC1D101F0E1F80028BDD00B4BC8
:1055D0000C4A019300930C49094B1848FCF778FDDD
:1055E0000823E2791343E37185E763681B0E1B060A
:1055F0006360B9E73D007EE774380020478C010006
:105600001E7F0100777701007E7701003381010062
:105610002F770100678101009E810100BC390020C5
:10562000005C260598380020B8130020FFFF00001A
:10563000F8380020CB810100FD8101002F8201009C
:1056400010B50C4C621CD37F1833DBB2D3775F2BC1
:1056500005D8094A09490A4810F0A6FB10BD0120E7
:10566000E3790342FAD0FFF7A7FC00212068FFF797
:1056700027FFF3E774380020005C260598380020E7
:10568000B813002005494B681A02100A0132FF3294
:105690001B0E120A1B0613434B6070477438002020
:1056A000F0B589B0079349230E005343414D05934C
:1056B000E9795933C3180693C9072B68C90F070046
:1056C000591A069AB06802F07FF8041E0CD03A4BC3
:1056D000019002930093394A394B3A493A48FCF712
:1056E000F7FC200009B0F0BD3300059A08334132C1
:1056F000BF18EA790593D2072B68D20F9A1A059939
:105700000300380002F0C2F8041E08D02A4B0190B2
:1057100002930093294A2A4B2A492C48DFE7FFF7D6
:10572000B1FFB268030C9370B268030AD370B36818
:1057300005991871EA792B68D207D20F9A1A3800A6
:10574000230002F06DF8041E08D01B4B0190029359
:1057500000931A4A1A4B1B491D48C0E7E9792B6888
:10576000C907C90F591A069AB06802F02DF8041E2D
:1057700008D0114B019002930093104A104B11492D
:105780001448ACE7300001260E9A0799FFF728FA73
:10579000EB793342A5D16B680F4A1B021B0A934277
:1057A0009FD93000FFF708FC286831008019FFF707
:1057B00087FE96E774380020478C01002F770100A0
:1057C000347F01007E77010077830100A38301000D
:1057D000CB830100F383010000127A00F0B5436827
:1057E00085B003925F883B4B05000C009F4211D1AE
:1057F00008000EF01AFD07280CD8374B374A0193E2
:1058000000933749374B3848FCF762FC162040427A
:1058100005B0F0BD20000EF008FD032807D82E4B80
:105820002E4A019300932E492E4B3048ECE76B68CB
:10583000200099880EF08EFC298920000EF08AFC49
:10584000032120000EF07EFC0600FFF71BFF030C77
:105850003370030A7370B0706B681E4A597A9742AE
:1058600001D18023194320000EF087FC0122EB7A3E
:105870002E689343EB724925B27F1D4F55432B0091
:10588000F9794133F3180293C9073B68C90F591AD4
:10589000731940331B78C9011943C9B220000EF0B7
:1058A0006CFCFA793B68D207D20F9A1A2100039B4D
:1058B000029801F0B5FF0028AAD12A00F9793B68C7
:1058C000C9075932C90FB218591A206801F07CFF74
:1058D0009EE7C046FFFF0000478C01002F770100C4
:1058E0007E770100477F0100D18001000481010023
:1058F00074380020F7B51F004368050001935B7AF8
:105900000E001400FF2B03D105F04CF9019B5872D7
:105910003100002208312800FFF760FF01900028C5
:1059200020D16B68988802F049FB00281FD0002C1A
:105930002DD130000EF0BAFB010019480EF02CFBFF
:10594000002C05D06368002B02D039000020984756
:105950000121144810F084FBC30703D412491348F3
:105960000FF02DFC30000EF06FFB0198FEBD6B6850
:10597000988802F0F9FA0028D9D16B685B7A012B7C
:10598000F0D03A0021003000FFF72AF9EAE7236857
:10599000002BCED000213A0008009847C9E7C04646
:1059A0008C3800208838002080380020B813002070
:1059B000F7B51C00144B1700A0331A88134B0500D1
:1059C0000E009A4216D00A00009401003B001048D5
:1059D000FFF730FB00280FD10B4BA3331B78002BB4
:1059E00008D000943B00320029000A48FFF722FB50
:1059F000002806D10020FEBD0023089A0648137037
:105A0000F9E70123F9E7C04674380020FFFF0000E2
:105A10002839002071390020F8380020F0B587B00F
:105A20000593838804000F0015000493112B1AD8E6
:105A3000704D714F714E019332003B0070490295D9
:105A400000957048FCF744FBA1882068FDF798FC9E
:105A50000295019000953B00320069496A48FCF7C5
:105A600037FB162043E00668002930D1049BF31869
:105A70001A00083A1178DA1F127809020A43991FAE
:105A80000878591F097800021204014311431A1FB4
:105A90001078DA1E127800020243981E0078013B4B
:105AA0001B780002034312041A433B0057484A4044
:105AB000990009588A42D4D00133042BF8D15449B3
:105AC0000B689C0022500322013313400B60032318
:105AD00030213B401A012B7D8B4313432B754D4BDB
